:1000000062C700007DC700007BC700000C948F32E0
:1000100077C7000075C7000073C7000071C70000F4
:100020006FC700006DC700000C94221B0C94DE1AF1
:100030000C94572C65C7000063C7000061C700001F
:100040005FC700005DC700005BC7000059C7000024
:1000500057C700000C94091C53C7000051C700008B
:100060004FC700004DC700004BC7000049C7000044
:1000700047C7000045C7000043C7000041C7000054
:100080003FC700003DC700003BC7000039C7000064
:1000900037C7000035C7000033C7000031C7000074
:1000A0002FC700002DC700002BC700000000000074
:1000B0000000000000000000000000000000000040
:1000C0000000000000000000000000000000000030
:1000D0007E0F00D4FFFFFFC7000000780000000083
:1000E000000000002A2B2800000000000000000093
:1000F0000000000000000029000000002C1E342039
:10010000212224342627252E362D3738271E1F205E
:100110002122232425263333362E37381F040506A3
:100120000708090A0B0C0D0E0F10111213141516E7
:100130001718191A1B1C1D2F3130232D35040506E5
:100140000708090A0B0C0D0E0F10111213141516C7
:100150001718191A1B1C1D2F3130354C716D6B206F
:10016000636F6D70696C65202D6B62206B6C6F72B4
:10017000202D6B6D2064656661756C740000001441
:10018000001A000800150017002B000400160007D5
:100190000009000A004C001D001B000600190005A4
:1001A000000000E000417E2C00E200A800000013E7
:1001B0000012000C0018001C00340033000F000E69
:1001C000000D000B00E5003800370036001000116C
:1001D0000000002A00427E2800E300AE0000003943
:1001E00000530052002E002F0229004A00500051F7
:1001F000004F002F0000004D004B0016014E00265E
:100200000200000100010001000100A800000057E9
:1002100000610060005F00300234022D005E005D6E
:10022000005C003000010055005B005A00590027B7
:100230000200006200010001000100AE0000001E8B
:10024000021F022002210222020000000000000022
:10025000000000000000000000000000000000009E
:100260000000000100010001000100A800000031B1
:1002700000201455002402230200000000000000AA
:10028000000000000000000000000000000000006E
:100290000000000100010001000100AE000000822A
:1002A000744B78477845784978007C027C4C7848D4
:1002B0007846784A78457E447E0000427844784308
:1002C0007800000100010001000100007C000069CD
:1002D000004200410040000000680045003F003E31
:1002E000003D000000440043003C003B003A000099
:1002F0000000000100010001000100007CA900AA2B
:1003000000BD00BE00A900AA00AB00AC0049784ABD
:1003100078487848784B784C784378447800DA12FB
:1003200081FFD9F1DB20A4A62EAF00A0C0D300002E
:10033000A1C8D30000AED580A83F408D1420000096
:100340000101010101010101010202020202020296
:100350000202030303030303030304040404040469
:10036000040505050505060606060607070707072F
:1003700008080808090909090A0A0A0B0B0B0C0CE2
:100380000C0D0D0D0E0E0E0F0F0F1010111111127E
:100390001213131414151516161717181819191AFD
:1003A0001A1B1B1C1D1D1E1E1F2020212222232460
:1003B00024252626272829292A2B2C2D2D2E2F309F
:1003C000313232333435363738393A3B3C3D3E3FB3
:1003D000404142434445464748494A4C4D4E4F50A0
:1003E000515354555658595A5B5D5E5F616264655E
:1003F0006668696B6C6D6F7072737577787A7B7DE8
:100400007E8082838587888A8C8E8F91939596983B
:100410009A9C9EA0A2A3A5A7A9ABADAFB1B3B5B757
:10042000BABCBEC0C2C4C6C9CBCDCFD1D4D6D8DB2E
:10043000DDDFE2E4E7E9EBEEF0F3F5F8FAFDFF00CB
:10044000AF00AEE1E1E1E1E1E1E1E1E1E1E1008F15
:100450009000939400E1E100919200A0A1A2A3A4D6
:10046000E100B7B800B5B6008081828384E100E185
:10047000E1E1E1E1E1E1E1E1E1E1E1E100979800C1
:10048000959600C0C0C0C0C0C0C0C0C0C0C0C0C081
:10049000C0C0C0C0C0C0C0C000000000000000005C
:1004A000000000000000000000000000000000004C
:1004B000000000000000000000F0F0F0F0FFFFFF7F
:1004C000FFFFFFFFFFFFFFFFFFFFFFFFFFFFFFFF3C
:1004D000FFFFFFFFFFFFFFFFFFFFFFFFFFFFFFFF2C
:1004E000FFFFFFFFFFFFFFFFFFFFFFFFFFFFFFFF1C
:1004F000FFFFFFFFFFF0F0F0F00000000000000041
:1005000000000000000000000000000000000000EB
:1005100000000000000000000000000000000000DB
:1005200000000000000000000000000000000000CB
:10053000000000000000000000FFFFFFFFFFFFFFC2
:10054000FFFFFFFFFFFFFFFFFFFFFFFFFFFFFFFFBB
:10055000FFFFFFFFFFFFFFFFFFFFFFFFFFFFFFFFAB
:10056000FFFFFFFFFFFFFFFFFFFFFFFFFFFFFFFF9B
:10057000FFFFFFFFFFFFFFFFFF0000000000000084
:10058000000000000000000000000000000000006B
:10059000000000000000000000000000000000005B
:1005A0000000000000F0F0F0F0FFFFFFFFFFFFFF92
:1005B000FFFFFFFFFFFFFFFFFFFFFFFFFFFFFFFF4B
:1005C000FF0F0F0F0F00000000000000000F0F0FC3
:1005D0000FFFFFFFFFFFFFFFFFFFFFFFFFFFFFFF1B
:1005E000FF0F0F0F0F00000000000000000F0F0FA3
:1005F0000FFFFFFFFFFFFFFFFFFFFFFFFFFFFFFFFB
:10060000FFFFFFFFFFFFFFFFFFF0F0F0F000000033
:1006100000000000000000000000000000000000DA
:100620000000000000FFFFFFFFFFFFFFFFFFFFFFD5
:10063000FFFFFFFFFFFFFFFFFFFFFFFFFFFFFFFFCA
:10064000FFF0F0F0F00000000000000000F0F0F01B
:10065000F0FFFFFFFFFFFFFFFFFFFFFFFFFFFFFFB9
:10066000FFF0F0F0F00000000000000000F0F0F0FB
:10067000F0FFFFFFFFFFFFFFFFFFFFFFFFFFFFFF99
:10068000FFFFFFFFFFFFFFFFFFFFFFFFFF00000077
:10069000000000000000000000000000000000005A
:1006A0000000000000FFFFFFFFFFFFFFFFFFFFFF55
:1006B000FFFFFFFFFFFFFFFFFFFFFFFFFFFFFFFF4A
:1006C000FFFFFFFFFFFFFFFFFFFFFFFFFFFFFFFF3A
:1006D000FF0F0F0F0F0F0F0F0F0F0F0F0F0F0F0F3A
:1006E0000FFFFFFFFFFFFFFFFFFFFFFFFFFFFFFF0A
:1006F000FFFFFFFFFFFFFFFFFFFFFFFFFFFFFFFF0A
:10070000FFFFFFFFFFFFFFFFFFFFFFFFFF000000F6
:1007100000000000000000000000000000000000D9
:1007200000000000000F0F0F0FFFFFFFFFFFFFFF94
:10073000FFFFFFFFFFFFFFFFFFFFFFFFFFFFFFFFC9
:10074000FFFFFFFFFFFFFFFFFFFFFFFFFF0F0F0F89
:100750000F00000000F0F0F0F0F0F0F0F00000000A
:10076000000F0F0F0FFFFFFFFFFFFFFFFFFFFFFF58
:10077000FFFFFFFFFFFFFFFFFFFFFFFFFFFFFFFF89
:10078000FFFFFFFFFFFFFFFFFF0F0F0F0F00000036
:100790000000000000000000000000000000000059
:1007A0000000000000000000000000000000000049
:1007B000000000000000000000FFFFFFFFFFFFFF40
:1007C000FFFFFFFFFFFFFFFFFF0F0F0F0F000000F6
:1007D00000F0F0F0F0FFFFFFFFFFFFFFFFF0F0F091
:1007E000F0000000000F0F0F0FFFFFFFFFFFFFFFE4
:1007F000FFFFFFFFFFFFFFFFFF0000000000000002
:1008000000000000000000000000000000000000E8
:1008100000000000000000000000000000000000D8
:1008200000000000000000000000000000000000C8
:10083000000000000000000000FFFFFFFFFFFFFFBF
:10084000FFFFFFFFFFFFFFFFFFF0F0F0F0F0F0F021
:10085000F0FFFFFFFFFFFFFFFFFFFFFFFFFFFFFFB7
:10086000FFF0F0F0F0F0F0F0F0FFFFFFFFFFFFFF10
:10087000FFFFFFFFFFFFFFFFFF0000000000000081
:100880000000000000000000000000000000000068
:1008900000000000000000000005010980A10185A2
:1008A0000319012AB700150126B7009501751081BB
:1008B00000C0050C0901A101850419012AA0021537
:1008C0000126A002950175108100C005010906A14D
:1008D00001050719E029E715002501950875018133
:1008E000029501750881010507190029FF150026E9
:1008F000FF009506750881000508190129051500F6
:100900002501950575019102950175039101C009B5
:10091000023B00020100A0FA0904000001030101EA
:10092000000921110100012244000705810308008C
:100930000109040100010300000009211101000167
:10094000223200070582032000011201000200008C
:1009500000083C3A01000001010200010A034B00BB
:100960006C006F007200000018034700650069000A
:100970006700650069006700650069007300740026
:100980000000040309040000000000003E5B4F5B10
:100990003E003E6B4F6B3E001C3E7C3E1C00183CF4
:1009A0007E3C18001C577D571C001C5E7F5E1C009F
:1009B00000183C180000FFE7C3E7FF0000182418E8
:1009C0000000FFE7DBE7FF0030483A060E0026296B
:1009D00079292600407F05050700407F05253F0057
:1009E0005A3CE73C5A007F3E1C1C0800081C1C3E79
:1009F0007F0014227F2214005F5F005F5F00060902
:100A00007F017F00006689956A0060606060600019
:100A100094B6FFB69400080C7E0C080010307E30AF
:100A2000100008083E1C0800081C3E0808001E10A4
:100A3000101010000C1E0C1E0C0030383E38300018
:100A4000060E3E0E060000000000000000005F00E1
:100A50000000000700070000143E143E14002E2A78
:100A60007F2A3A00201208240200374949375000F3
:100A7000000807030000001C224100000041221C66
:100A800000002A1C7F1C2A0008083E08080000807D
:100A900070300000080808080800000060600000CE
:100AA0002010080402007F5149457F000804027F9E
:100AB0000000714949494F004141494977000F10F1
:100AC00010107F004F49494971007E494949700023
:100AD00001017109070077494949770007494949E8
:100AE0003F00000014000000004034000000000837
:100AF000142241001414141414000041221408009C
:100B0000010159090F007F415D594F007F09090913
:100B10007F007F49494976007F41414141007F4143
:100B200041417E007F49494949007F09090909007F
:100B30007F4141497B007F0808087F0000007F005B
:100B40000000704040407F007F08080877007F4029
:100B5000404040007F011F017F007F0408107F009C
:100B60007F4141417F007F0909090F007F417141A9
:100B70007F007F0909196F00474949497900010140
:100B80007F0101007F4040407F001F2040201F0068
:100B90007F407F407F007708080877004F4848482B
:100BA0007F00615149454300007F4141000002043C
:100BB000081020000041417F0000040201020400EF
:100BC000404040404000000007080000605454547A
:100BD0007C007F44444478007C444444440078448E
:100BE00044447F007C5454545C00087F0909090088
:100BF00038A4A4A4FC007F040404780000007D0055
:100C000000007040407D00007F080808760000006A
:100C10007F4000007C047C047C007C040404780099
:100C20007C4444447C00FC242424380038242424BC
:100C3000FC007C04040404005C5454547400040458
:100C40007F0404007C4040407C001C2040201C00AD
:100C50007C407C407C006C1010106C00BCA0A0A0FC
:100C6000FC004464544C440000083641000000007D
:100C70007700000000413608000002010204020073
:100C80003C2623263C000000E0F0F0F0F0FEFF9F41
:100C90000F0F9FFFFFFFFF9F0F0F9FFFFEF0F0F072
:100CA000F0E00000FF000000000000C0300C030076
:100CB000000000FF0000000000000000E010080439
:100CC000020202010101010101020202040810E016
:100CD00000000000FF01010101010101010101FF0C
:100CE0007F515555457F415F5F5F7F007F417B7737
:100CF000417F415F5F5F7F007F415D5D5D7F415F61
:100D00005F5F7F00C0E0F0F0F0E0E6F7F3F0600036
:100D10007C7C7C7C7C007C7C7C7C7C00F81CDE1FEA
:100D2000FFFFFF1FDE1CF800C0E2B4F8F8F8F8F887
:100D3000B4E2C0000000000000000000000000005D
:100D40000000000000000000070F0F0F0FFFFFFF63
:100D5000FF9F87E1F9F9E1879FFFFFFFFF0F0F0F6B
:100D60000F070000FF0000C0300C33C0000000007F
:100D7000000000FF000000000000003FC000000075
:100D8000000000000000000000000000000000C0A3
:100D90003F000000FF08080808080838C808080FC6
:100DA0007E00007F00007800007E000024241212E4
:100DB00024244848242412120000000000000000EF
:100DC000000000000F1F3F7F7F3F3F7F7F381000F4
:100DD0001F1F1F1F1F001F1F1F1F1F000F14214059
:100DE0004541454021140F007D7D7D7D7D7D7D7DCC
:100DF0007D7D7D000000000000000000000000007C
:100E000000000000000008080808080800000000B2
:100E100000000000000000000000000000000000D2
:100E2000000000003F0C030000000000030C300035
:100E30000000003F20202020202020200102040864
:100E40001010102020202020201010100804020173
:100E5000000000003F0000000000000000030C3014
:100E60004000004000004000004000001C3E3E3EAC
:100E70001C003E1C1C0808003E3E3E3E3E0000009A
:100E80000000000000000000000000000000000062
:100E90000000000000000000000000000000000052
:100EA0000000000000000000000000000000000042
:100EB0000000000000000000000000000000000032
:100EC00000000000000011241FBECFEFDAE0DEBFFB
:100ED000CDBF12E0A0E0B1E0ECE4FAE602C005907C
:100EE0000D92A63DB107D9F72AE0A6EDB2E001C008
:100EF0001D92AB33B207E1F70E947E2C0C94BD34F7
:100F00007FC890912606937071F0809327066093B6
:100F10002806453B08F044EB4093290680912506BE
:100F2000816080932506089590912606937061F064
:100F300081110BC0946090932606109291018091CC
:100F400025068160809325060895803110F09C630A
:100F5000F2CF880F880F982BEECF482F2091F40501
:100F60009091BB0557E0291302C080E0089530E05E
:100F7000529FF001539FF00D1124E454FA4F8181E8
:100F8000681306C08081481303C085818111EECFAC
:100F90002F5F3F4F2770E7CFE8EDF0E080818E7F35
:100FA00080831092E2001092DA001092E100A0EE2D
:100FB000B0E08C9181608C9380818F77808319BCA5
:100FC000A7EDB0E08C918E7F8C9380818F7E8083A3
:100FD0001092A60508952091E4003091E50095E671
:100FE000A9012091EC00822F817020FF06C0809122
:100FF000E80080FF06C080E008952091E80022FD0F
:101000001AC08091B105882389F0853089F08091DC
:10101000EB0085FD0FC02091E4003091E500421700
:101020005307F9F29150E1F684E0089582E00895C3
:1010300083E0089581E008958091B30587FF13C090
:101040008091E80082FF06C08091E8008B77809352
:10105000E80004C08091B1058111F2CF089580911C
:10106000B1058823D9F38091E80080FFF8CF809103
:10107000E8008E77ECCF982F9093E900242F762FFD
:1010800050E0891731F07091EC002091ED00509103
:10109000F00021FD07C09F5F973071F78093E90052
:1010A00081E008953091EB003E7F3093EB0030916A
:1010B000ED003D7F3093ED003091EB0031603093D7
:1010C000EB007093EC002093ED005093F000209122
:1010D000EE0027FDE0CF80E00895B0E0A0E0E3E778
:1010E000F8E00C94BD33C8EDD0E088818F7E888312
:1010F000E7EDF0E080818160808384E082BF81E061
:101100008093A60588818E7F888302EE10E0F80127
:1011100010821092DA0081EEC82ED12CF6011082D6
:1011200088818F77888388818068888388818F7D94
:10113000888319BC1092B1051092B2051092B005C7
:101140001092AF0590EEE92EF12CF70180818B7F94
:10115000808388818160888342E060E080E08BDF6B
:10116000F60180818E7F8083F80180818160808399
:10117000808188608083F70180818E7F8083888171
:1011800080618883CDB7DEB7E8E00C94D933FC01E9
:101190008091B9059091BA0586179707A0F061155F
:1011A000710529F49091E8009E779093E80090E013
:1011B0006115710551F4911108C08091E80082FF1A
:1011C00034C080E00895BC01F2CF8091B10588233E
:1011D000C1F18530C1F18091E80083FD30C080917C
:1011E000E80082FDEACF8091E80080FFE1CF8091A6
:1011F000F3002091F200382F6115710519F02830A5
:10120000310558F091E02830310509F090E0209147
:10121000E8002E772093E800CBCF81918093F100F6
:10122000615071092F5F3F4FE7CF8091B10588234F
:1012300041F0853041F08091E80083FFBECF81E02E
:10124000089582E0089583E00895089508952FB7E2
:10125000F8946091A2057091A3058091A4059091E6
:10126000A5052FBF089580918B0108959C01FC0175
:1012700032969FEF80E04191461751F09F3F19F45D
:10128000411101C0982F8F5F8630A9F79F3F09F465
:101290000895290F311D97FD3A95F901628308954C
:1012A000A3E0B0E0E6E5F9E00C94C33320919F059C
:1012B0003091A00528173907B1F09093A0058093CD
:1012C0009F05E0919D05F0919E05309761F00084A7
:1012D000F185E02D309739F024E029839B838A83C0
:1012E000CE01019609952396E2E00C94DF33A3E04A
:1012F000B0E0EDE7F9E00C94C33320919B05309109
:101300009C0528173907B1F090939C0580939B05A5
:10131000E0919D05F0919E05309761F00084F18584
:10132000E02D309739F023E029839B838A83CE0117
:10133000019609952396E2E00C94DF33809198059D
:10134000811103C080919A050895E0919D05F09167
:101350009E05309739F00190F081E02D309711F023
:101360000995089580E00895DC01ED91FC911197B5
:1013700084913196ED93FC930895FC01680F791FD9
:101380008FEF91E32191822728E030E087FF09C0A9
:10139000880F892721503109C9F7E617F70791F718
:1013A0000895880FF7CFFC01EE0FFF1FE80FF91F1C
:1013B000E65EFA4F6183408322830895539A08952D
:1013C00090E06623A1F087579E4FFC0120812F3FBC
:1013D00089F0E22FE295EF70F0E080A190E02F70AD
:1013E00002C0959587952A95E2F7817008958857F0
:1013F0009E4FEBCF80E0089590E06623E9F0875799
:101400009E4FFC0180818F3FB1F0E82FE295EF7095
:10141000F0E041A18F7021E030E0B90102C0660F19
:10142000771F8A95E2F7CB01962F9095942391A38D
:1014300092A1892B82A3089588579E4FE2CF909165
:101440001405E92FF0E0409115059F012F5F3F4FF4
:101450002370332742171306A9F0EA5EFA4F282FAC
:101460002F7780818078822B60FB87F980839F5F54
:10147000937090931405809112058F5F80931205ED
:1014800081E0089580E00895E6E2F6E0248130E10D
:10149000231B08F420E0248380912506816080933B
:1014A00025060895E6E2F6E0248130E1230F08F4F2
:1014B0002FEF24838091250681608093250608956F
:1014C000E6E2F6E0438120E1421B08F440E081813E
:1014D000628190E016CDE6E2F6E0438120E1420F22
:1014E00008F44FEF8181628190E00BCDE6E2F6E0F7
:1014F000628120E1621B08F460E08181438190E019
:1015000000CDE6E2F6E0628120E1620F08F46FEFC1
:101510008181438190E0F5CCE6E2F6E08181438170
:1015200062818850990BEDCCE6E2F6E0818190E093
:10153000438162810896E5CC809126068695869542
:10154000815009F48FE0F0CC80912606869586952F
:101550008F5F803108F081E0E7CCE6E2F6E0808141
:1015600091E0892780831092910180912506816006
:1015700080932506089599E0899F802D1124980F66
:101580009B3208F09AE220919905222321F09631AE
:1015900028F095E10895853108F485E10895EF92EA
:1015A000FF920F939701201B31092F3F310519F04E
:1015B00010F02FEF30E02095382F320F08F43FEF76
:1015C000832F0F91FF90EF900895EF92FF920F936A
:1015D0009701201B31092F3F310519F010F02FEF33
:1015E00030E0322F3095482F430F08F44FEF842F0F
:1015F000620F0F91FF90EF900895EF92FF920F937B
:10160000970195E0099F200D311D11242F3F3105D1
:1016100019F010F02FEF30E02095382F320F08F43A
:101620003FEF832F0F91FF90EF900895322F50E0FE
:10163000FA01EE0FFF1FE85DFD4F91A9905297FD53
:101640009195440F551FFA01E85AFD4F2081231B45
:10165000330B290F311D97FD3A95620F0895E42F42
:10166000F0E0EE0FFF1FE85AFD4F6081621B089506
:1016700030919905311104C0853191050CF04597E1
:1016800092CEFF920F931F93CF93DF93182F062FC5
:10169000F42ED0E0C0E02F2D402F612FCE01E8DFE7
:1016A0002196CA32D105B9F7CDB7DEB7E5E00C9483
:1016B000DC330F931F93522F10E0F801EE0FFF1F42
:1016C000E85DFD4FA1A9A052BB0B9D015203F001A3
:1016D000539FF00D1124000F111FD801A85ABD4FC0
:1016E0000C910057110B40039001419F300D1124C4
:1016F0002E0F3F1F37FF02C0215C3F4F96E035950C
:1017000027959A95E1F7620F1F910F910895E82FA1
:1017100086FDE0952E2F2F7086FD2F5FE695E695CE
:10172000E695E670F0E0E05FFD4F9181929F902D8D
:10173000212D112492959F702295207F922B20813C
:10174000920F87FD919580E8890F089540917B0164
:1017500050917C0125E038E0429FC001439F900DED
:10176000529F900D1124875E994C90937C01809339
:101770007B01890F0895AC018230910508F408952A
:101780009FEF413E8EE1580740F49A0195E036956F
:1017900027959A95E1F798E0920F61E0E62FE90F1F
:1017A000FF27FF1F9F0135952795822F229FF0016C
:1017B000239FF00DF00D11244E175F0738F49FEFB3
:1017C000920F961758F78FEF860F08952F3FE9F382
:1017D00061E0620FF6CF30E020E0869F080E211D09
:1017E000969F200D311D1124290F311DC901089527
:1017F000282F269F020E20E0211D1124822F0895FC
:101800001F93CF93DF93C62F172FD82FE42FF0E02D
:10181000EE0FFF1FE85AFD4F8081821B87FD8195E7
:1018200068E1E6DF682F6C0F712F8D2FDF91CF916C
:101830001F9108950F931F93CF93DF93162FC72FF8
:10184000D82F022FE42FF0E0EE0FFF1FE85AFD4FD4
:1018500064EE8081CDDF4C2F50E0282F30E0245EF5
:101860003F4F201B310937FF03C0319521953109C6
:1018700083E0220F331F8A95E1F7CA01821B930B85
:1018800097FD80E06C2FB4DF612F782F8D2FDF91D3
:10189000CF911F910F910895CF93DF93D62FC72F2C
:1018A0004F3F510519F010F04FEF50E0682F842F93
:1018B00080959EDF6D2F7C2FDF91CF910895982F1B
:1018C00080919905882329F081E0953128F080E006
:1018D00003C081E09A32D8F70895B0E0A0E0E3E7D2
:1018E000FCE00C94BD339B01E82FF0E0E15CFC4F81
:1018F000311109C0E4918E2F7E2F6E2FCDB7DEB748
:10190000E8E00C94D933E32EF12CE491FE2F0E2F56
:1019100010E046E0649FC0011124CFEFD0E0BE018B
:101920000E949F33AB01822F90E0880F991F25E51D
:10193000249FB001259F700D1124861B970B982FB3
:10194000990F980FBE016E197F09609FD001619FAA
:10195000B00D709FB00D11248B2F399F9001112471
:10196000232F3327BE01621B730B609F9001619F81
:10197000300D709F300D11246E01C91AD108CE9C14
:10198000B001CF9C700DDE9C700D1124672F77275E
:10199000C61BD70BC09F7001C19FF00CD09FF00CED
:1019A00011247F2D42305105A1F050F4411551050D
:1019B00009F4A3CF4130510581F07B2F832F9DCFB8
:1019C0004430510569F080F04630510509F495CF57
:1019D000F4CFEB2F8F2D7F2F90CF7E2FE32F8DCF46
:1019E000EF2D7B2F8F2F89CF732FEB2FFBCFB0E005
:1019F000A0E0EDEFFCE00C94BE33C82FD0E0FE0178
:101A0000E455FD4F8081682341F1D0902806009174
:101A1000290610912706E12EF12C98DE282FC70108
:101A20008C549F4F68E671E00E94F6338E199F092F
:101A300097FD0396959587959595879543E0249F07
:101A400090011124612F839F600D11247D2D802F23
:101A500044DF472F282FCE010BDECDB7DEB7E7E0FE
:101A60000C94DA332F923F925F926F927F928F9213
:101A70009F92AF92BF92CF92DF92EF92FF920F931D
:101A80001F93CF93DF93CDB7DEB729970FB6F894A6
:101A9000DEBF0FBECDBF89837D836C8380918E01B5
:101AA0006ADD9A832091F9052B83E82FF0E0F9870E
:101AB000E887CF01880F991F9C01285D3D4F690180
:101AC0003981832F90E0FC013196FF83EE838A8178
:101AD00098859817C8F0F3DE29960FB6F894DEBF04
:101AE0000FBECDBFDF91CF911F910F91FF90EF906F
:101AF000DF90CF90BF90AF909F908F907F906F902E
:101B00005F903F902F900895E885F985E455FD4F4B
:101B1000808190918F018923D1F030902706109118
:101B200028062E813F8127503A4F39015980212CB8
:101B3000FB815F16B0F060912906822D59DE632D7E
:101B4000712FCBDE472F282F8885998591DD288539
:101B500039852F5F3F4F3987288732E0C30ED11C6C
:101B6000B6CFF30181913F01F601A0A8A81ABB08E6
:101B700081A8F3018781881A9908AA9C9001AB9CDF
:101B8000300D300D1124889CC001899C900D900D62
:101B90001124820F931FEFDD082F60912A0621E0A8
:101BA000620F08F46FEFF301EE0FFF1FE95FF540DE
:101BB0008589968910DE7C019401A501632D712F22
:101BC000822DEC81FD810995362E172F5394282EF6
:101BD000AFCFEF92FF920F931F93CF93DF937C01D0
:101BE00080918E01C8DCC82F192F60912A06669556
:101BF000669521E0620F08F46FEF8091F5059091F2
:101C0000F605E9DD082FD0E0C11738F0812F57DE47
:101C1000CDB7DEB7E6E00C94DB33FE01E455FD4FB3
:101C2000808190918F01892379F0609127067091CE
:101C3000280680912906202F4C2FF70109954DDEAB
:101C4000472F282FCE0114DD2196DECF80E00895A6
:101C500081E08093C6030895F894E82FE295EF7031
:101C6000F0E031A1282F2F7081E090E001C0880FB3
:101C70002A95EAF7982F9095932391A392A1892B07
:101C800082A3789408950F931F93809198058823D9
:101C900021F0DDDA1F910F910895D9DA00919B03AD
:101CA00010919C0320919D0330919E03600F711F42
:101CB000821F931FEFCF9091AE0492FF10C041E0BE
:101CC000282F2471243009F040E031E0282F2871BA
:101CD000283009F030E0431711F02CE0822793FF01
:101CE00010C041E0282F2471243109F040E031E098
:101CF000282F2871283109F030E0431711F02CE02B
:101D000082273091AF0430FF10C051E0282F21719D
:101D1000213009F050E041E0282F2871283009F0E7
:101D200040E0541711F029E0822731FF10C041E054
:101D3000282F2171213109F040E031E0282F28714E
:101D4000283109F030E0431711F029E0822794FD93
:101D5000877E089582389105B9F1B0F481339105F9
:101D600009F47DC048F48932910509F46DC08A32C6
:101D7000910509F47BC008958533910509F45FC08E
:101D80008933910509F10895833E9105D9F138F41D
:101D9000803E910529F1823E910579F10895863EB4
:101DA0009105D9F1873E910509F43EC0843E910525
:101DB00041F52091AF0421FF24C08091AE0484FD41
:101DC00019C087EE90E008952091AE04237009F0C9
:101DD0005AC02091AF0423FF14C089E290E0089517
:101DE0002091AE0420FD38C03091AF0430FF09C00F
:101DF00024FF43C090E080E008952091AE0422FDCE
:101E0000F7CF08952091AE0422FD3AC03091AF047F
:101E100030FD39C024FFF5CFEDCF2091AE0423FF74
:101E2000F0CF24FDE7CFCDCF2091AE0423FD2EC00F
:101E30003091AF0431FFEECF84EE90E00895209111
:101E4000AE0425FFDECFC9CF2091AE0425FD21C011
:101E50002091AF0423FFD5CF89E390E0D2CF20912A
:101E6000AE0426FFCECF8AE290E008952091AE0422
:101E700026FFC7CF81E390E0089583EE90E00895B8
:101E800082EE90E0089580EE90E0089586EE90E076
:101E9000089585E390E00895E62F972F7830C8F4F1
:101EA000663008F03EC0843008F03EC070E026E0A6
:101EB000929F600D711D1124FB0190E3899FE00D3D
:101EC000F11D1124EE0FFF1FE358FE4F85919491F1
:101ED00008957D3F91F4623020F5843028F5682F15
:101EE00070E0660F771FE60FF72FF11DEE0FFF1F53
:101EF000EE0FFF1FE350FD4FE9CF7C3F91F46230BE
:101F000080F4843088F4682F70E0660F771FE60F46
:101F1000F72FF11DEE0FFF1FEE0FFF1FE150FD4FDA
:101F2000D5CF80E090E0089581E0FCCF1F93CF9360
:101F3000DF9310DFEC01C11580E5D807F0F5C1157E
:101F400080E4D80708F0A8C0C03ED10520F5CD3CFC
:101F5000D10508F090C0C83AD10578F4C53AD1054A
:101F600008F081C0C130D10519F1209709F1C430C2
:101F7000D105F0F4D0E0C0E01BC0C33CD105D0F7E0
:101F8000C85AD0E0CC0FDD1FC254DE4F0990D88173
:101F9000C02DD4640DC0C11580E2D80708F0C5C0BB
:101FA000C11581E0D80708F068C0C83ED10510F718
:101FB000CE01DF91CF911F910895C03682E5D807F9
:101FC00018F5C03482E5D80708F076C0C03282E543
:101FD000D80708F06AC0C11582E5D80708F48BC09D
:101FE0002C2F2695269580E2289F900111248C2F76
:101FF0008370C1E0D0E002C0CC0FDD1F8A95E2F70C
:10200000C22BD32BDD68D4CFC03C82E5D807F8F4CF
:10201000C03A82E5D80708F064C0C03882E5D80726
:1020200008F0A8CF2C2F26952695277080E2289FB0
:10203000900111248C2F8370C1E0D0E002C0CC0F3E
:10204000DD1F8A95E2F7C22BD32BDA68B1CFC03EF1
:1020500082E5D80708F08ECFDC2FCC27CC27DF71A4
:10206000C06FD06AA5CFC55AD0E0C554DE4FC88135
:10207000D0E0D0649DCFD0659BCF8D2F1CDE182F74
:10208000CE01992767DEC12FD0E0DC2FCC27CC27EB
:10209000DF71C82BD92B8CCFCE0199275BDECC27E3
:1020A000DF70C82BD92BD06A83CFCF71D0E0DC2F63
:1020B000CC27C16FD06A7CCF2C2F26952695277010
:1020C00080E2289F900111248C2F8370C1E0D0E022
:1020D00002C0CC0FDD1F8A95E2F7C22BD32BDC6840
:1020E00067CF8C2F8F71E7DDC82FD0E0DC2FCC2796
:1020F000CC27DF715DCF8C2F8F71DDDD55E0D6955C
:10210000C7955A95E1F7CF70D0E0DC2FCC27282F68
:1021100030E084FF06C044E0220F331F4A95E1F708
:102120003327C22BD32BD06943CF8D2F8F71C3DDC3
:10213000182FCE0199270EDEC12FD0E0DC2FCC273F
:10214000CC27DF71C82BD92BD06232CF8091F40518
:102150009091BB05981301C008958F5F8770FACFE7
:10216000B0E0A0E0E6EBF0E10C94BC337C01009120
:102170002E0610912F068091A9039091AA03082B97
:10218000192BCFE0D0E0CC24C394D12CBC2EC601B7
:102190000C2E02C0880F991F0A94E2F78023912326
:1021A000892B49F4219790F7B12C8B2DCDB7DEB751
:1021B000E9E00C94D833B7018C2F6EDEB7DE0197BF
:1021C00089F3F3CFCF93DF93EC01CADFBE0164DE66
:1021D000ADDEDF91CF910895A82FA77023E09695EB
:1021E00087952A95E1F7880F991F880F991FFB01A2
:1021F000E80FF91F50E040E080E0219130E00A2E26
:1022000002C0369527950A94E2F721703327042EF1
:1022100001C0220F0A94EAF7822B4F5F5F4F4430D0
:10222000510559F70895292F983058F4863080F4D5
:1022300090E06DEF72E036E0239F800D911D112438
:10224000CBCF2C5F223020F469EF72E090E0F8CF22
:1022500080E00895262F277091E001C0990F2A95FC
:10226000EAF723E0769567952A95E1F7660F771FE1
:10227000660F771FFA01E60FF71F50E040E0682F66
:1022800070E08191DF0111979B01042E02C0369509
:1022900027950A94E2F721702195282729232827DA
:1022A0002C934F5F5F4F4430510559F70895282F05
:1022B000862F983068F4263050F4622F70E026E0C4
:1022C000929F600D711D11244DEF52E0C3CF089510
:1022D0009C5F9230E0F7622F70E049EF52E0F6CF5A
:1022E0009093AA038093A9030895FC0124812223DB
:1022F000B9F08081918166DF92959F70963091F060
:1023000058F4925F9F70923058F4803F19F030F487
:10231000883E30F481E008959A5FF4CF843FD1F392
:1023200080E00895883EB0F3813FD1F7F3CFA6E077
:10233000B0E0EDE9F1E10C94C23326E0FC01DE01EE
:10234000119601900D922A95E1F7FC012581898172
:102350009A81222381F0662371F002DF182F682F03
:1023600089819A81A4DF69817A81812F95DD269602
:10237000E3E00C94DE3357DF182FF5CFCF93DF93D4
:10238000682F81E06A3019F06D3029F480E082D046
:10239000DF91CF9108958091390A90913A0A26E011
:1023A000FC01A3E3BAE001900D922A95E1F7603EAB
:1023B00008F458C026E0FC0111922A95E9F7C09173
:1023C000390AD0913A0A46E050E0BE0183E39AE030
:1023D0000E9456349E0123533640892B41F1C90196
:1023E00046E0969587954A95E1F741E050E0BA01BD
:1023F00002C0660F771F8A95E2F7CB016091310624
:1024000070913206862B972BB9016B5F7F4FE6E008
:1024100076956795EA95E1F702C0440F551F6A95D6
:10242000E2F7842B952B90933206809331062A5F36
:102430003F4F40913006642F70E0C9010E949F33E6
:10244000481B463010F4240F311D211574E0370766
:1024500010F030E020E02D5C394F30933A0A2093A1
:10246000390A96CFF6E06F9FB00111246A57764F74
:1024700046E050E00E944D34A2CFCF93DF93EC01B1
:10248000FE018491811103C0DF91CF91089576DF21
:102490002196F6CFCF93382FE091390AF0913A0A7E
:1024A000E353F64020913006622F70E0CF010E9486
:1024B0009F33281B822F332359F066E00E94EA33B2
:1024C000C82FC15010F4CF91089580E257DFF9CFA3
:1024D0009F01280F311D2115344018F080E0F0E0F5
:1024E000E0E08E0F9F2F911D8D5C994F90933A0ADB
:1024F0008093390AE8CF8091840390918503892BDA
:102500008093D80248E050E06CE173E088ED92E0FF
:102510000E945634892BB9F088E0E8EDF2E0ACE196
:10252000B3E001900D928A95E1F7E0919D05F0915D
:102530009E05309741F00280F381E02D309719F02D
:1025400088ED92E00995089510928403EAEDF2E097
:1025500086E0DF011D928A95E9F790E080E00E9415
:10256000770990E080E00E94500910928503C3CF64
:10257000AAE2B0E0EEEBF2E10C94C23383EB95E01B
:102580002091F100FC012193CF01F5E08B3B9F07E7
:10259000B9F78091B405833009F470C0B8F4813084
:1025A00009F447C0823009F4B4C08091E80083FF89
:1025B00088C28091B3059091B4059A3008F081C229
:1025C000E92FF0E0E154FB4C0C9425348A3009F4F7
:1025D0008FC08B3009F46FC0893039F78091B30513
:1025E000813219F78091B7059091B8050297E8F606
:1025F0008091E800877F8093E8008091E80082FF67
:1026000038C09091F3008091F200029731F48091EC
:10261000F100813011F0863021F48091F100809337
:102620008B018091E8008B778093E8000E941C0862
:10263000BCCF8091B305813A09F0B7CF8091E80013
:10264000877F8093E8008091B7059091B805892B2A
:1026500061F468E087EA95E070E00E94C708809125
:10266000E8008B778093E800A0CF60E090E080E006
:10267000F3CF8091B1058111C0CF97CF8091B30581
:10268000813A09F092CF8091B7059091B805892BD6
:1026900009F08BCF8091E800877F8093E8008091DC
:1026A000E80080FFFCCF80918C018093F100809145
:1026B000E8008E77B9CF8091B305813209F075CFEC
:1026C0008091B7059091B805892B09F06ECF809164
:1026D000E800877F8093E8000E941C0881E09091C9
:1026E000B505911101C080E080938C012DDF5DCF95
:1026F0008091B305813209F058CF8091E800877F3F
:102700008093E8000E941C088091B60580938A019E
:102710004CCF8091B305813A09F047CF8091E80012
:10272000877F8093E8008091E80080FFFCCF809154
:102730008A01BBCF803899F0823809F0C2C18091FC
:10274000B7058F70873008F0BCC18093E900809195
:10275000EB0085FB882780F91092E90006C0809184
:10276000AF059091B005911182609091E800977F3C
:102770009093E8008093F1001092F1008091E800BE
:102780008E779BC1882309F489C1823009F099C1F1
:102790008091B50581118CC18091B7058F702FEFA5
:1027A000280F263008F08DC18093E9002091EB00BE
:1027B00020FF7EC1933031F48091EB0080628093E2
:1027C000EB0076C19091EB0090619093EB0021E0DB
:1027D00030E001C0220F8A95EAF72093EA001092B8
:1027E000EA008091EB008860EACF81116AC1109104
:1027F000B5051F778091E3008078812B8093E300FB
:102800008091E800877F8093E8000E941C088091F7
:10281000E80080FFFCCF8091E30080688093E300B4
:1028200082E0111183E08093B1054BC18058823062
:1028300008F047C18091B5059091B6058C3D23E025
:102840009207A1F583E08A838AE289834FB7F894DF
:10285000DE01139620E03EE051E2E32FF0E05093DA
:102860005700E49120FF03C0E295EF703F5FEF70E7
:102870008E2F90E0EA30C0F0C7968D939D932F5F26
:10288000243159F74FBF8091E800877F8093E8009B
:102890006AE270E0CE0101960E94C7088091E800CC
:1028A0008B778093E8000DC1C096E7CF4091B705C4
:1028B0005091B805292F33272330310509F444C03E
:1028C00078F52130310509F46FC08BE390E0EFE03B
:1028D000F9E02230310509F0F4C02091E800277FAB
:1028E0002093E8002091B9053091BA05821793072B
:1028F00008F49C0140E02115310509F064C0411144
:1029000062C08091E80082FDC9CF8091B105882323
:1029100029F2853019F28091E80083FFF2CFBECF13
:1029200021323105A9F12232310509F0CAC0411521
:10293000510509F443C04130510509F0C2C082E39A
:1029400090E0E9E9F8E0C9CF992781309105C1F01D
:10295000009759F0029709F0B4C0ECE5F9E0E49172
:102960008E2F90E0ECE5F9E007C0E2E8F9E0E491B1
:102970008E2F90E0E2E8F9E0009709F4A2C0ADCF15
:10298000E8E6F9E0E4918E2F90E0E8E6F9E0F4CF94
:102990004115510571F04130510509F092C089E0AF
:1029A00090E0EAE3F9E099CF82E190E0EAE4F9E02F
:1029B00094CF89E090E0E1E2F9E08FCF84E490E009
:1029C000EBECF8E08ACF8091B105882309F466CF5B
:1029D000853009F463CF8091E80083FD5FCF80915B
:1029E000E80082FD8ECF8091E80080FF84CF909137
:1029F000F3008091F2002115310519F0883091051E
:102A000050F041E0089709F040E08091E8008E77AF
:102A10008093E80070CF44914093F10031962150AB
:102A200031090196E8CF803809F04BC08091E80069
:102A3000877F8093E8008091B2058093F1009ECE5D
:102A400081113FC01091B5051230D8F58091E80092
:102A5000877F8093E8001093B2050E941C08112321
:102A600011F084E005C08091E30087FDFACF81E09A
:102A70008093B10542E061EC81E00E943B0842E2B4
:102A800061EC82E00E943B088091B105843021F026
:102A900081E080938D0115C082E0FBCF8091B50568
:102AA000813079F481E0933009F080E08093B005C3
:102AB0001092E9008091E800877F8093E8000E94EF
:102AC0001C088091E80083FF0AC08091E800877F9E
:102AD0008093E8008091EB0080628093EB00AA96DF
:102AE000E3E00C94DE33882339F0809590918403E1
:102AF000892380938403FFCC0895882331F090913B
:102B00008403982B90938403F6CC08958823A9F12D
:102B10009CEF980F913A68F4EAEDF2E091918913F5
:102B200003C0DF0111971C9242E0E03EF407B1F7C9
:102B3000E2CC90E2980F983088F4877021E030E082
:102B4000A90102C0440F551F8A95E2F7CA0180957A
:102B500090918403892380938403EACF9BE5980FA7
:102B6000933020F490E080E00C947709885A8B3100
:102B700020F490E080E00C9450090895CF93C82F82
:102B80008823A9F08CEF8C0F813AF0F4EAEDF2E0A3
:102B900080EE92E0DF012D91C21759F08A179B0752
:102BA000D1F76C2F88ED92E00E943609A4DCCF911A
:102BB00008952191C21303C0DF0111971C928E1753
:102BC0009F07B9F798DCEDCF80E28C0F883068F46E
:102BD000C77021E030E001C0220FCA95EAF780916A
:102BE0008403822B80938403E1CFEBE5EC0FE33089
:102BF00040F4F0E0E554FE4F808190E00E947709B8
:102C0000D6CFC85ACB3198F6EC2FF0E0EE0FFF1F6D
:102C1000E254FE4F808191810E945009C8CF0F93EA
:102C20001F93CF93DF938B01EA019091B10594300C
:102C300061F58093E9008FEF9091E800815095FD58
:102C400006C095ED9A95F1F700008111F5CF8091BE
:102C5000E80085FF1AC00E94EB07811111C0809126
:102C6000E80085FD06C08091E8008E778093E8003B
:102C7000F2CFF80181918F018093F100219779F7CC
:102C80008091E8008E778093E800DF91CF911F91CB
:102C90000F91089543E050E0BC0182E0C0CFCF9394
:102CA000DF93EC0148E050E0BC0181E0B8DF88E050
:102CB000FE01A7EAB5E001900D928A95E1F7DF9158
:102CC000CF9108953BB1377F2BB128604FB7F8946F
:102CD0008AE195E0FC015191CF0168E02BB9000039
:102CE00000C057FF3BB9550F000000C000C000C036
:102CF0003BB900C06A9591F7F5E088399F0751F715
:102D00004FBF8FE594E00197F1F700C000000895F0
:102D1000B0E0A0E0EEE8F6E10C94BB337C015B018F
:102D20006A0180919A0301E010E08A3010F40AE011
:102D300010E0C1E0D0E0B501C701F60109958111AD
:102D400004C021960C171D072CF4CDB7DEB7EAE0BE
:102D50000C94D733CC9F9001CD9F300D300D1124B2
:102D600090E080E045E34A95F1F700000196821774
:102D70009307C1F7E0CFE8DB2FEF84E39CE021501D
:102D800080409040E1F700C0000088E19AE00FB673
:102D9000F894A895809360000FBE90936000FFCFD9
:102DA000AB0124E630E0BC0188E70E94713121E0EC
:102DB000892B09F020E0822F089580910E059091D3
:102DC0001105911103C091E089270895882361F0CE
:102DD00062E070E081E494E0E3DF811103C0809160
:102DE0000E05089510920E0580910E05ECCFCF933D
:102DF000C0910E05809111058823C9F00E94270912
:102E0000605A75418F4F9F4F60930A0570930B0571
:102E100080930C0590930D05C11107C062E070E02E
:102E20008FE394E0BDDF811105C0C0910E058C2FAA
:102E3000CF91089581E080930E05F7CFE6E2F6E0AA
:102E400085E180838091920190919301A0919401FA
:102E500081839283A3838FE784838FEF858348E008
:102E600050E067E170E0CF010E9490341092250697
:102E70000895B0E0A0E0EFE3F7E10C94BE337901F0
:102E8000C82F880FDD0B41155105A9F0FE0193E015
:102E9000EE0FFF1F9A95E1F7E050FF4F818192817D
:102EA000805D9C4F208130E04217530708F49A015F
:102EB000A9010E946334CE010E942F33D82E8823AB
:102EC000D1F001151105B9F083E0CC0FDD1F8A9513
:102ED000E1F7FE01E050FF4F438150E00417150772
:102EE00008F4A801C050DF4F6C817D81605D7C4F8C
:102EF000C7010E9463348D2DCDB7DEB7E7E00C9497
:102F0000DA33A2E0B0E0E7E8F7E10C94BD33C0901B
:102F10008603D0908703E0908803F09089030E9495
:102F20002709DC01CB018C199D09AE09BF0921E0FD
:102F300084369105A105B10508F420E030918403A1
:102F4000398384369105A105B10520F480914B03A6
:102F5000831321E0809185038A83211105C090911C
:102F60004C0311E09817C1F010E000E030E020E0E1
:102F700042E050E0BE016F5F7F4F8AE07ADF182F9A
:102F8000882351F00E94270960938603709387037A
:102F90008093880390938903812F2296E8E00C9414
:102FA000D933A4E0B0E0E7EDF7E10C94BD33C09075
:102FB0007403D0907503E0907603F09077030E943D
:102FC00027096C197D098E099F0911E06436710586
:102FD0008105910510F10E94430E6E5F7F4F8F4F68
:102FE0009F4F69837A838B839C8310E000E030E0FD
:102FF00020E044E050E0BE016F5F7F4F86E039DFA4
:10300000182F882351F00E9427096093740370934E
:1030100075038093760390937703812F2496E8E0DD
:103020000C94D9334F925F926F927F92AF92BF927E
:10303000CF92DF92EF92FF920F931F93CF93DF9384
:10304000B82E7B01A42EE9016801FB01408051806C
:10305000628073800E94270964197509860997099F
:10306000643671058105910510F4AA2011F110E074
:1030700000E030E020E0A601BE018B2DFADEC82F73
:10308000882339F00E942709F701608371838283C6
:1030900093838C2FDF91CF911F910F91FF90EF9031
:1030A000DF90CF90BF90AF907F906F905F904F90E8
:1030B0000895C1E0EECFA1E0B0E0E1E6F8E10C94C4
:1030C000C13380910E0589832091560390E041E041
:1030D0002817190609F440E001E010E09E012F5F77
:1030E0003F4F6EE873E08CE09DDF2196E4E00C94A6
:1030F000DD330F931F9341E0209146033091470346
:1031000080912E0690912F062817390709F440E088
:1031100002E010E02EE236E06CE773E087E082DF49
:103120008823A9F041E02091480330914903809120
:10313000A9039091AA032817390709F440E002E097
:1031400010E029EA33E068E773E088E06BDF1F9165
:103150000F910895CF92DF92FF920F931F93CF9319
:10316000DF93F82E6B01EA01A801B901CE010E949C
:10317000563441E0892B09F440E09E01B6018F2DC1
:1031800051DFDF91CF911F910F91FF90DF90CF9092
:103190000895ACE0B0E0EFECF8E10C94C13380911D
:1031A000BC039091BD03A091BE03B091BF0389837E
:1031B0009A83AB83BC838091C7039091C803A0918D
:1031C000C903B091CA038D839E83AF83B887809172
:1031D000920390919303A0919403B09195038987F2
:1031E0009A87AB87BC870CE010E027E533E0AE019F
:1031F0004F5F5F4F66E973E08DE0ACDF2C96E4E053
:103200000C94DD33A9E0B0E0E8E0F9E10C94C133BF
:1032100088E0E6E2F6E0DE01119601900D928A95D3
:10322000E1F7198609E010E02DE433E0AE014F5FCD
:103230005F4F6AE873E08BE08DDF2996E4E00C9441
:10324000DD33A1E0B0E0E7E2F9E10C94C1330E9484
:103250009E09898301E010E02AE433E0AE014F5F6C
:103260005F4F60E873E089E075DF2196E4E00C943D
:10327000DD330F931F9304E010E025E333E0AC014E
:103280006BE673E082E066DF1F910F9108952F9245
:103290003F924F925F927F928F929F92AF92BF9296
:1032A000CF92DF92EF92FF920F931F93CF93DF9312
:1032B0000F92CDB7DEB7762E4A015901680101E0C1
:1032C00010E09E012F5F3F4F50E040E070E060E073
:1032D000D0DD182F882309F445C0F4012080318007
:1032E000428053800E942709621973098409950955
:1032F000643671058105910538F4B701C6010E9455
:10330000BD099981891771F18701950150E040E06D
:1033100070E060E0872DADDDB82EB701C6010E94D8
:10332000BD0911E09981981310E01B2139F00E942A
:103330002709F4016083718382839383812F0F9027
:10334000DF91CF911F910F91FF90EF90DF90CF9081
:10335000BF90AF909F908F907F905F904F903F90E5
:103360002F900895A701B601C5010E946334E6CFEE
:10337000A8E0B0E0EEEBF9E10C94BF3388E0E82E72
:10338000F12C0AE313E09E012F5F3F4F40E753E02B
:1033900064E083E07CDF182F8823B9F19091390332
:1033A00080916F03981789F1F12C90913D038091E2
:1033B0003C03891721F1E92FF0E0EC5CFC4F82859A
:1033C00087FB662760F99F5F937090933D03909110
:1033D0003B039F5F90933B038F770E941F0AF82E59
:1033E0008111E3CF10E000E030E020E050E040E069
:1033F00070E060E085E03DDD182F1F2102C0F11074
:10340000F1CF8091390380936F03812F2896E6E0F6
:103410000C94DB33A4E0B0E0E0E1FAE10C94BD33BE
:103420006B0184E0E82EF12C01E313E09E012F5F95
:103430003F4F47E653E061E080E029DF882361F0F9
:1034400049815A816B817C8140936303509364036B
:103450006093650370936603409163035091640326
:103460006091650370916603F60140835183628326
:1034700073832496E8E00C94D9331F93CF93DF93A2
:10348000182FEB017BDB209731F4812F3FDBDF919D
:10349000CF911F9108958FE99FE00197F1F700C048
:1034A00000002197F0CFCF93DF93EC0120912E06FF
:1034B00030912F068091A9039091AA03282B392BD4
:1034C000832F9927009709F442C09C0198E0A90135
:1034D00074E0569547957A95E1F74115510511F03D
:1034E0009C5F9A01A90156954795569547954115B8
:1034F000510511F09E5F9A0136952795232B09F00F
:103500009F5F61EA71E0913071F065E971E09923A4
:1035100051F067EA71E0923031F06DEA71E093307A
:1035200011F064EB71E080EE92E00E946C3460EE8A
:1035300072E080EB94E00E946C34CE018670992793
:10354000069739F4CE018860DF91CF91089590E01D
:10355000BECFCE01877FF8CFA6DF90932F06809352
:103560002E06089580912E0690912F069C012670BC
:1035700033272630310511F48860EECF877FFDCFE9
:1035800021E030E002C0220F331F8A95E2F7209538
:10359000309580912E0690912F0682239323DCCFC5
:1035A00021E030E002C0220F331F8A95E2F78091BC
:1035B0002E0690912F06822B932BCECF1F920F9227
:1035C0000FB60F9211242F933F934F935F936F93F6
:1035D0007F938F939F93AF93BF93CF93DF93EF939B
:1035E000FF93D091E900DF708091EC00C82FC1708B
:1035F00080FDC0E81092E9008091F000877F809301
:10360000F00078940E94B8121092E9008091F000C6
:1036100088608093F000CD2BCF70C093E900FF91BC
:10362000EF91DF91CF91BF91AF919F918F917F915A
:103630006F915F914F913F912F910F900FBE0F901F
:103640001F9018951F920F920FB60F9211242F936F
:103650003F934F935F936F937F938F939F93AF931A
:10366000BF93EF93FF938091E10082FF09C08091A7
:10367000E20082FF05C08091E1008B7F8093E10032
:103680008091DA0080FF24C08091D80080FF20C0A4
:103690008091DA008E7F8093DA008091D90080FFDC
:1036A000AAC080E189BD82E189BD09B400FEFDCFD9
:1036B00081E08093B1058091A605811109C00E9427
:1036C000CC070E946D088091E20084608093E20044
:1036D0008091E10080FF1AC08091E20080FF16C057
:1036E0008091E2008E7F8093E2008091E200806111
:1036F0008093E2008091D80080628093D80019BC4A
:1037000085E08093B10583E080938D018091E10095
:1037100084FF30C08091E20084FF2CC080E189BD2D
:1037200082E189BD99B5892F817090FFFBCF90917F
:10373000D8009F7D9093D8009091E1009F7E909358
:10374000E1009091E2009F7E9093E2009091E20070
:1037500091609093E2009091B205992309F451C0D1
:1037600094E09093B1059091B105943009F482E012
:1037700080938D018091E10083FF2CC08091E20055
:1037800083FF28C08091E100877F8093E10082E081
:103790008093B1051092B2058091E1008E7F8093F5
:1037A000E1008091E2008E7F8093E2008091E20050
:1037B00080618093E20042E060E080E00E943B088C
:1037C0008091F00088608093F00081E080938D010B
:1037D00080938C01FF91EF91BF91AF919F918F9159
:1037E0007F916F915F914F913F912F910F900FBEFD
:1037F0000F901F90189519BC1092B1051092A60554
:1038000067CF9091E30097FD02C0982FAACF93E075
:10381000A8CF78941F921FB61F9211248F939F9365
:10382000AF93BF938091A2059091A305A091A405A9
:10383000B091A5050196A11DB11D8093A20590939D
:10384000A305A093A405B093A505BF91AF919F9147
:103850008F911F901FBE1F9018952FB7F8948091DD
:10386000A2059091A305A091A405B091A5052FBF35
:103870000895CF93DF93EC01F0DF8C1B9D0BDF915C
:10388000CF910895EF92FF920F931F93CF93DF9301
:10389000C62FD42F022FFC018581882399F06093D5
:1038A0002406DBDF9093230680932206C77081E015
:1038B00001C0880FCA95EAF720D9CDB7DEB7E6E098
:1038C0000C94DB3380912406681331C0E09022060B
:1038D000F0902306C2DF8E199F098A3A910538F5C8
:1038E00010E21D0FCD17A9F080E28C0F883038F45C
:1038F000C77081E001C0880FCA95EAF7F4D8183084
:1039000040F481E09D2F977001C0880F9A95EAF7E7
:10391000F4D870E060E0802FB0DD183070F6D7701A
:1039200081E001C0880FDA95EAF7DDD8C6CFC7700D
:1039300081E001C0880FCA95EAF7F7CFA2E0B0E0B6
:10394000E4EAFCE10C94B7337C01FC018481882318
:1039500009F475C061E0C7010E9497118C0182349F
:10396000FEE79F0709F46FC0A0F480343EE7930799
:1039700009F44DC081349E4709F457C0F801E8515D
:10398000FC47E730F10508F098C0E753FB4C0C9476
:10399000253484349E4789F104348EE7180708F4EF
:1039A0005AC005349EE7190749F7F7018581882336
:1039B00009F483C08CE591E09A8389838AE0682EBC
:1039C000CE0101960E94B409882309F472C08130A7
:1039D00009F0AAC0CE0101960E94B409813009F015
:1039E00044C0CE0101960E94B40970E060E08933C2
:1039F00011F460E570E041DDE3CFF70185818823B4
:103A000031F08091AF0480FD53C181600BC1F7019B
:103A100085818823A1F061E083E090E00E949F34DB
:103A200081E090E00E9470110AC0F701858188232F
:103A300019F081E0B5DD02C081E0A2DD93DD2296C0
:103A4000EEE00C94D333F7018581882311F082E0F6
:103A5000F1CF82E0F2CFF7018581882319F083E06E
:103A60009FDDEDCF83E08CDDEACF823031F4CE01F3
:103A700001960E94B40982D8A3CF833031F4CE01DD
:103A800001960E94B40942D89BCF843081F4CE01C4
:103A900001960E94B409D12CC12C482F4053550BDC
:103AA0009A014A30510548F1C114D10499F58111A8
:103AB00087CF70E060E088E2E0DCF7019581992330
:103AC00009F4BDC310922406980130572332310502
:103AD00008F09FC384E090E00E948B349093AF0481
:103AE0008093AE04F801E150F047E232F10508F0AE
:103AF00090C0E053FB4C0C9425346C9CC0016D9C31
:103B0000900D11246901C80ED91ECE0101960E94A4
:103B1000B409C3CFEFE9FFE03197F1F700C000002F
:103B2000F1E0CF1AD108C0CFE82FF0E0E452FF4F08
:103B30007490282F26952695269530E0F901E453B8
:103B4000FF4FC4908770D12C082E02C0D594C79423
:103B50000A94E2F741E0C422DD24F901E454FF4F66
:103B6000A490B12C082E02C0B594A7940A94E2F751
:103B700051E0A522BB24F901E455FF4F8490912C1C
:103B800002C0959487948A95E2F781E0882299246F
:103B9000C114D10419F081EE0E94BE15A114B10424
:103BA00019F086EE0E94BE1570E060E0872D65DC9E
:103BB000A114B10419F086EE0E948615C114D10437
:103BC00019F081EE0E9486158114910409F4F8CE53
:103BD00070E060E08CE20FCF26E241EE61EEC701BB
:103BE00051DE2DCF27E245EE65EEF9CF26E241EE1C
:103BF00060EEF5CF27E245EE64EEF1CF26E241EE2E
:103C000062EEEDCF27E245EE66EEE9CF28E241E035
:103C1000EBCF8091AE0481608093AE0494C080911C
:103C2000AF0488608093AF048EC08091AE04826040
:103C3000F3CF8091AE048460EFCF8091AE048860B2
:103C4000EBCF8091AF04E1CE8091AF048260EACFE8
:103C50008091AE048061E0CF8091AE048062DCCFC1
:103C60008091AE048064D8CF0E94A4128091AE04EB
:103C70008068D2CF8091AE048C60CECF8091AF04AB
:103C80008360D0CF8091AE048E7FC6CF8091AF0489
:103C9000877FC8CF8091AE048D7FBECF8091AE0468
:103CA0008B7FBACF8091AE04877FB6CF8091AF046F
:103CB0008E7FB8CF8091AF048D7FB4CF8091AE045A
:103CC0008F7EAACF8091AE048F7DA6CF8091AE0467
:103CD0008F7BA2CF0E94A4128091AE048F779CCFDD
:103CE0008091AE04837F98CF8091AF048C7F9ACF70
:103CF0008091AE0482FB992790F921E0922790FBF6
:103D000082F990FB83F988CF8091AF04982F90952A
:103D100091708E7F892B90FB81F984CF9091AE04B6
:103D2000892F8F7B96FF806477CF0E94A412909199
:103D3000AE04892F97FB87F980586ECF61E08EE043
:103D400090E00E949F346091AE047091AF0484E0D3
:103D500090E00E94B9340E94A41271CE60E0EFCFCF
:103D60009091AE04892F8F7E94FF806155CF909102
:103D7000AE04892F8E7F90FF81604ECF9091AF046B
:103D8000892F877F93FF88604DCF85E361C20E94B2
:103D9000AD0A55CE8823A9F10E949C0A50CE8823F3
:103DA000A9F10E948C0A4BCE8823A9F10E94760AC1
:103DB00046CE8823A9F10E94600A41CE8823A9F14A
:103DC0000E94440A3CCE80912606837011F4109222
:103DD0009101809126068C7F8160809326068091D8
:103DE00025068160809325062ACE80912606837061
:103DF00011F010929101809126068C7FEECF8823DE
:103E000059F20E94A40A1BCE882359F20E94940AF8
:103E100016CE882359F20E94810A11CE882359F2C6
:103E20000E946B0A0CCE882359F20E94520A07CED8
:103E30009801205E32452032310598F4911113C06B
:103E40000F7181E090E09C0102C0220F331F0A95A0
:103E5000E2F78901622F83E090E00E949F34C8015D
:103E6000E1CD992379F101303CE7130749F10330A3
:103E70004CE71407F9F001151C4721F50E94A41224
:103E80008FEF94E3ECE081509040E040E1F700C018
:103E9000000087E797E7909301088093000888E186
:103EA0009AE00FB6F894A895809360000FBE9093A7
:103EB0006000FFCF6FEF7FEF90E080E00E94B934A9
:103EC0000E94BB16F70100811181992309F1C801F5
:103ED0000E94B010D82E682FC8010E945711B80157
:103EE0008D2D0E944C0F0E94960F182FB82EF701AF
:103EF0002581368132953F70892F82958F70C82E2B
:103F0000D12C8C30E8F5F601EE50FB4C0C942534A6
:103F1000C8010E941311D82EE2CF092F0F70907F95
:103F200011F00295007F812F2223C9F0002369F050
:103F300090E2910F983010F011110BC08091840322
:103F4000082B009384030E947B12812F0E94BE15D0
:103F500017C080918503082B00938503F4CF0E943E
:103F60008615002369F00095105E183010F0B1102E
:103F700015C0809184030823009384030E947B1260
:103F800048E0C41AD10854E0C516D10410F40E94C8
:103F90009E0960E0C7010E94971151CD8091850371
:103FA000082300938503EACF892F8F70907F90328A
:103FB00011F08295807FF1E0BF120CC0222329F01E
:103FC0003630F0F60E947D15DBCF3530C8F60E9402
:103FD0007315D6CF222319F03323A1F3B6CF3323A1
:103FE000B1F3193349F42FEF37EE43E0215030405D
:103FF0004040E1F700C00000812F0E948615C0CF2D
:10400000892F86958695837061F0813009F0B8CF4D
:10401000812F9370211102C080E090E00E9450092E
:10402000AFCF812F9370211102C080E090E00E94F9
:104030007709A6CF892F837009F042C02111A0CF44
:10404000812F829586958770880F880F212F2F707A
:1040500030E0082E02C0220F331F0A94E2F750E02E
:1040600040E014FF09C04FE050E002C0440F551F6C
:104070008A95E2F740955095969596959370923073
:10408000A9F080F46091A9037091AA03913041F0E6
:10409000C901842B952B862397230E94701170CF22
:1040A000262B372BC901842B952BF7CFC901842BE5
:1040B000952B2091A9033091AA0382279327EDCF56
:1040C0008695222311F0892F8170882309F458CF17
:1040D000812F829586958770880F880F212F2F70EA
:1040E00030E0082E02C0220F331F0A94E2F750E09E
:1040F00040E014FF09C04FE050E002C0440F551FDC
:104100008A95E2F7409550959695969593709230E2
:10411000A1F078F460912E0670912F06913039F05D
:10412000C901842B952B8623972316DA29CF262BBA
:10413000372BC901842B952BF8CFC901842B952BE4
:1041400020912E0630912F0682279327EECF092F3C
:104150000F70222321F0802F23DA812F33CF812F7C
:104160000E947315802F0CDA0BCF812F51EF15179A
:1041700091F1511750F0E0EF1E17D1F02223C9F151
:104180003111E3CE892F8F712AC0F2EF1F1749F149
:1041900043EF1413F3CF222349F19F7121E030E064
:1041A000F90102C0EE0FFF1F9A95E2F7CF01BDCFD4
:1041B000222369F0353008F0E3CE292F2F7181E0FA
:1041C00090E002C0880F991F2A95E2F7B9CF3630E8
:1041D00008F0D6CEF2CF892F8F71222321F2E0D9B9
:1041E000CFCE892F8F712223D1F3BDCF90E080E015
:1041F0009CCF332359F0893309F0FECEFFEF27EE31
:1042000033E0F15020403040E1F7F4CE892F8F7138
:10421000AACF809184030631ECE71E0739F58A7A2C
:1042200091E009F490E09093F80269E2811165E36E
:1042300088ED92E00E9436090E947B1200CC063184
:10424000FCE71F07F9F48091F80281119ECD89E205
:10425000EAEDF2E020EE32E09191891303C0DF0134
:1042600011971C922E173F07B9F7E6CF8272F8011B
:10427000E052F847EB30F10508F0DACDE250FB4CA4
:104280000C942534809184038272F801E054F8473D
:10429000ED30F10508F0CCCDE75FFA4C0C942534F5
:1042A000CF93DF9380911B03807F09F04CC08091F6
:1042B0001A03882309F447C0E091F4055091BB0527
:1042C000C0911603D09115036091170370911803E4
:1042D00047E05E17C1F18E2F90E0E49FF0011124BA
:1042E000E454FA4F2481222389F1489FF001499F29
:1042F000F00D1124DF01A454BA4F11962C9111979F
:104300002C1324C02C912D1321C015962C91159798
:1043100021111CC012962D913C91261B370B2A3A75
:104320003105A0F480911B038F70806180931B0383
:10433000EE53FA4F80818F708061808385E193E036
:10434000FDDA0E94A610DF91CF910895FC0131960D
:10435000E770BFCFA4E1B0E0E0EBF1E20C94B93339
:104360008C0186E0F801DE011F9601900D928A957E
:10437000E1F7F8018481E58095E1A92E93E0B92E5B
:1043800090911903911126C0882309F1EE20E9F0DC
:10439000C8010E947511F82E8823B9F087E0F80152
:1043A000D50101900D928A95E1F780911903813032
:1043B00031F480911503909116030E94E21070DF92
:1043C0008F2D6496ECE00C94D533C801B7DAFF2446
:1043D000F394F6CFD080C18082809380F0901A034E
:1043E0002091170330911803A401421B530BFF20A7
:1043F00009F4D3C04A3A510508F08EC0882301F36E
:104400009091160380911B03282F207F09F054C040
:10441000C91213C090911503D9120FC0E11046C004
:104420008F70806180931B0385E193E087DA809130
:104430001B03F8018683F12CC3CFE11037C06C2D2C
:104440008D2D0E94AD076C2D8D2D0E94AD07E82E9D
:104450008111F1CFDF86C88A8F8598890E94E2108A
:10446000292F22952F70243058F49F70223080F02D
:10447000992391F0F8019681907F71F4FE2CA0CFE2
:104480002A5F2F70223060F0C80158DAEF2CF6CF87
:10449000992311F0882391F3805E883078F3F4CF6C
:1044A000803F60F3815F833078F7E8CF80911B0312
:1044B000816080931B03BFCFC91207C09091150381
:1044C000D91203C0EE2009F489C0C8010E947511F9
:1044D000882309F47ACFEE2009F477CF80911B036B
:1044E000803280F020911503309116033987288798
:1044F0009B868A86909119039C871D868E87CE01A4
:1045000008961CDA87E0F801A5E1B3E001900D926E
:104510008A95E1F7C5DE5BCF90911B03292F207FA1
:1045200049F485E193E00ADA87E0F50111928A9572
:10453000E9F781CF882309F443CF809116038C11CA
:104540000FC080911503D8120BC0E11009C09683EB
:10455000C801F4D987E0F50111928A95E9F730CFC7
:10456000C8010E947511882309F42FCFEE2009F4A9
:104570002CCF80911B03803228F2209115033091BB
:1045800016033A8329839C828B82909119039D8321
:104590001E828F83CE010196B4CF4A3A5105D0F6E0
:1045A000882309F414CFFE2CEE2009F40ECF80915D
:1045B00016038C111FC080911503D8121BC0809167
:1045C0001B0380FD0EC0982F907F59F08683903F8B
:1045D00031F0982F907F905F8F70892B8683C80170
:1045E000ADD987E0F801A5E1B3E001900D928A957D
:1045F000E1F7E6CEC8010E947511811183CF809149
:104600001B03816080931B03C80198D9D9CEABE10D
:10461000B0E0EDE0F3E20C94C2334E8B5F8B688F19
:10462000798F8A8F9B8F9111109285031D8A86E066
:10463000FE017696DE011F9601900D928A95E1F7B4
:104640008B89882351F061E0CE010F960E9497116B
:1046500061E0CE010F960E94971187E0FE013F9620
:10466000DE01189601900D928A95E1F7CE01089629
:1046700071DE81110CC087E0FE013896DE011196D3
:1046800001900D928A95E1F78C8581110BC017E09E
:104690008091F4059091BB05891331C06B96E3E0DE
:1046A0000C94DE332091BB0530E0C9010196877080
:1046B00099274091F4054817190699F097E0929FC1
:1046C000D001939FB00D1124A454BA4FFE0131962E
:1046D00001900D929A95E1F78093BB050E94A61078
:1046E000D6CF0E94A4121092BB051092F40587E069
:1046F000E5E1F3E0DF011D928A95E9F7C8CF819FDC
:10470000C001112484549A4F25DE882339F2809108
:10471000F40590E00196877099278093F405B8CF4F
:10472000ACE0B0E0E6E9F3E20C94BC3380E00CEFDF
:1047300093E0F92EEE24E3942DEFD22E32E0C32E37
:104740009091150520911405291709F442C0E92F0D
:10475000F0E0EA5EFA4F108117FBBB24B0F81F7738
:104760009F5F937090931505809113058F5F8093E1
:104770001305B11007C071D81F8308879A878987EE
:10478000FB8606C06AD81F83D8869A878987CB861E
:10479000EC864F81588569857A858B859C8537DFC6
:1047A000BB2081F05AD81983DA829C838B83CD8217
:1047B0001E8249815A816B817C818D819E8127DF98
:1047C00081E0BECF4AD819830A839C838B83FD8204
:1047D000EFCF2C96E9E00C94D8332F923F925F9262
:1047E0006F927F928F929F92AF92BF92CF92DF9201
:1047F000EF92FF920F931F93CF93DF938091110558
:10480000882309F49EC0C0910F05D091100525D8CA
:104810008C1B9D0BC29708F474C01FD89093100591
:1048200080930F0583E396E090933A0A8093390AC8
:1048300080919805882309F4A2C0C0EBD4E00990C8
:104840000020E9F7219700EB14E00C171D0708F48E
:104850008AC081E00E944A1283E894E00E943D12DF
:1048600081E00E944A128091AF0480FF82C080E8FC
:1048700094E00E943D128FE694E00E943D1288E68B
:1048800094E00E943D128091AF0480FF75C085E6E0
:1048900094E00E943D128FE694E00E943D128BE569
:1048A00094E00E943D1283E894E00E943D1281E072
:1048B0000E944A120E949E09C82F88E594E0C0FD1C
:1048C00002C085E594E00E943D1282E594E0C1FDBE
:1048D00002C085E594E00E943D128FE494E0C2FDA1
:1048E00002C085E594E00E943D1283E494E00E94BA
:1048F0003D1285E594E00E943D1285E594E00E941A
:104900003D128091310690913206892B09F064C0E6
:1049100080910E058823A9F00E94270900910A05BD
:1049200010910B0520910C0530910D05601B710B4A
:10493000820B930B6F3F7F4F8F4F9F4710F40E9466
:10494000DD16DF91CF911F910F91FF90EF90DF90D7
:10495000CF90BF90AF909F908F907F906F905F901F
:104960003F902F900895D8018D918D010E94BE1126
:104970006CCF8DE794E07DCF82E694E08ACF2091E2
:10498000310630913206A3E3B6E090E080E041E0EA
:1049900050E0FC01E756FB4FE4916D91E61791F072
:1049A000ED012197E883BC01E6E076956795EA95ED
:1049B000E1F7EA0102C0CC0FDD1F6A95E2F7BE0104
:1049C0002C2B372B01968115D4E09D0711F73093DE
:1049D00032062093310695CF80911105882309F482
:1049E00097CF80910905811193CF0E94F7162091EE
:1049F0003106309132062115310509F489CF80E066
:104A000041E050E0082F10E01A01082E02C0220CED
:104A1000331C0A94E2F7B10162237323672B11F46C
:104A20008F5FF0CF9091080590FF95C0880F880F99
:104A3000880F8093830110928601895F809384019F
:104A400087E08093870124E630E047E050E061E8AA
:104A500071E088E70E943231892B09F059CFA80113
:104A600026E0440F551F2A95E1F78091080580FF45
:104A700083C0E8ECF4E080E4DF011D928A95E9F759
:104A8000A0E2B2E008E112E088E2C82E82E0D82E6F
:104A900097E0592E772473948D91E80129918E0126
:104AA000240F352F311D2D5C394FE82FF0E0E853EE
:104AB000FB4F90E080E0652C681A872C082E01C01F
:104AC000880C0A94EAF77901A12CE701B9907E01DC
:104AD000B820662D6A196770962E062E000C770B8B
:104AE000DB2D01C0DD0F9A94EAF77195619571098C
:104AF0006770772701C0B6946A95EAF7BD2A60818E
:104B0000962E9B289082A39468E0A612DECF019691
:104B100031968830910579F6CA16DB0609F0BCCFCC
:104B200004E610E020E430E048EC54E060E488E77C
:104B30000E94B231892B09F0EBCEE101C095D095EE
:104B40008091310690913206C823D923D093320642
:104B5000C0933106DDCE8295880F880F80748093D4
:104B6000830198013695279520938601815C809377
:104B700084012093870167CF4D5C594F04E610E014
:104B800020E430E0D3CFB0E0A0E0E9ECF5E20C9413
:104B9000B5338090F5039090F603A090F703B090A2
:104BA000F80380919805882309F43FC00E942709E3
:104BB0006B017C01C818D908EA08FB080E94430E63
:104BC0004B015C018092F5039092F603A092F703EB
:104BD000B092F803A091CC03ECECF3E08A2F90E0C4
:104BE0004FEF5FEF60E070E04C195D096E097F09DF
:104BF000A9131EC08093CC0380912606C82FC370D2
:104C000019F0C82FC695C695909191019130D1F1B8
:104C1000992309F1923009F4B4C3933009F4BAC36B
:104C2000CDB7DEB7E0E10C94D1330E94430EC0CF84
:104C3000218D328D2901712C612C44155505660595
:104C4000770520F481509F5F3296D2CF2C0D3D1D09
:104C5000328F218FF8CF10928E018092F5059092BD
:104C6000F605A092F705B092F80589E2ECECF3E0C6
:104C7000A9EFB5E001900D928A95E1F781E080936C
:104C80009101CECF90918001C91322C083702091F1
:104C90007F0130E091E08217130609F490E0892F3C
:104CA00081708093900180912B0690918F019817CD
:104CB00039F080938F0140E060E080E00E94410B7A
:104CC000C03190F4EC2FF0E0EA5EFA4C0C942534FD
:104CD00081E0E6CF80919001882309F452C040E042
:104CE00060E080E00E94410B80E04BC080918E012B
:104CF0000E94BB0A082FD92F6091270670912806C1
:104D0000809129060E946D0CF62EE72ED82E10E019
:104D10000D1710F08D2F33C0F801E455FD4F808141
:104D200090918F01892331F02D2D4E2D6F2DC801CB
:104D30000E94380B0F5F1F4FEBCF80918E010E94B6
:104D4000BB0A082FF92EE090280610912906D09171
:104D500027066D2F7E2D812F0E946D0CD62EC72E1B
:104D6000B82E60912A066D0F7E2D812F0E946D0C4A
:104D7000D62FE72EA82E10E00F15C8F08F2D0E9419
:104D80005F0C90918E0121E0290F20938E018111FB
:104D9000F5C282E080939101809190018111EEC271
:104DA000CC2309F4F5C2892F0E94BB0A39CFF80140
:104DB000E455FD4F908180918F01892359F02A2D70
:104DC0004E2D6D2F90FD03C02B2D4C2D6D2DC80148
:104DD0000E94380B0F5F1F4FCFCF80918E010E9432
:104DE000BB0A082FD92FE0902806D09029066091A1
:104DF0002A0680E40E94F80BF82E10E00D1708F048
:104E000089CFF801E455FD4F808190918F0189236E
:104E1000D1F0F801EE0FFF1FE85DFD4F60A9F69E8F
:104E2000B0011124B5E075956795BA95E1F78091C9
:104E30002706680F7E2D8D2D0E946D0C472F282F81
:104E4000C8010E94380B0F5F1F4FD8CF8AE19CE04A
:104E50000E94E90D96CF8FE29BE0FACF86E19BE0BE
:104E6000F7CF80918E010E94BB0AC82E192F609146
:104E70002A06669566958091F5059091F6050E9443
:104E8000EB0BD82F80E48D0F0E94870B70E8F72E74
:104E9000F80E8D2F0E94870BE0E8BE2EB80ED12CA5
:104EA000C11610F0812F6BCFF601E455FD4F8081C4
:104EB00090918F01892399F06091270670912806BF
:104EC00080912906ED2E0C2D2B2D4F2D0E94590B74
:104ED0000E946D0C472F282FC6010E94380B2FEF20
:104EE000C21AD20ADDCF80918E0181111CC060915F
:104EF0002A0620E1620F08F46FEF8091F50590918A
:104F0000F6050E94EB0B6AE070E00E949F33892B4C
:104F100051F40E94A60B3AE2839FC00111249093A2
:104F20007D0110927E0180918E010E94BB0A192F93
:104F3000D82F90919001911120C020917D01309146
:104F40007E018217130611F008F0ACCF121713067A
:104F500009F008F4A7CF60918F01822F0E94F70C0F
:104F60008BE290E090937E0180937D019BCF6091D6
:104F70008F018D2F0E94F70CDF5FD117C0F392CF06
:104F800080E09CE065CF4091770450917804609177
:104F9000790470917A048091F5059091F605A091BD
:104FA000F705B091F80584179507A607B70708F429
:104FB0009BCE80919001811154C080918E010E94FE
:104FC000BB0AD92FE82EF12C93E0899F8001112490
:104FD00007501C4FED1608F475C08D2F0E945F0C12
:104FE000811198CE20E0ED2FE150FF0B7F01822F41
:104FF00090E08E159F050CF47EC00E94A60B8701E1
:10500000000F111F81FF8EC0F801EE0DFF1DE7504C
:10501000FC4F10821182128220912A0630E1230F68
:1050200008F42FEF60E1822F90E00E94EB0BBC01AF
:1050300088EB9BE00E949F338091F5059091F605E7
:10504000A091F705B091F805860F971FA11DB11D1E
:105050008093770490937804A0937904B0937A04B2
:1050600059CE40E060E080E00E94410B09EF13E080
:1050700067E7E62E64E0F62E0E94A60B81FF0DC0C6
:10508000D8011C9211961C92119712961C920D5FDA
:105090001F4FE016F10681F790CF0E94A60BD82F84
:1050A0000E94A60BB0E88B9FC00111247FE7790F07
:1050B0006D2F809129060E946D0CF8016083718329
:1050C0008283E5CFF701E455FD4F808190918F01F8
:1050D000892359F0D80112962C91129711964C9170
:1050E00011976C91C7010E94380B0D5F1F4FBFEFE6
:1050F000EB1AFB0A6FCFFC01EE0FFF1FE80FF91F41
:10510000E750FC4F0196DC01AA0FBB1FA80FB91F87
:10511000A750BC4F8D919D91AC9180839183A283C8
:105120002F5F65CF0E94A60BD82E0E94A60BF0E839
:105130008F9FC00111247FE7790F6D2D8091290683
:105140000E946D0CF801EE0DFF1DE750FC4F6083CF
:105150007183828361CF80918E010E94BB0A982E59
:10516000B92E80919001882361F040E060E080E0FA
:105170000E94410BEEE7F4E080E3DF011D928A9587
:10518000E9F780918E01811117C000917C04109184
:105190007D040E942D1C801B910B21E0893191051B
:1051A00008F420E020937B04499730F00E942D1CE6
:1051B00090937D0480937C04F12CE12CD0E096E068
:1051C000892E2AEAA22E05C0E8E0EE1508F455C0A3
:1051D000D0E08D2F90E08F9C80011124F801E85DD4
:1051E000FD4FE80FF91FC080C91408F43EC0CB146E
:1051F00008F03BC0E394D12CF601E455FD4F20812B
:1052000030918F01232309F430C002581B4F080F3F
:10521000191FF8017080272D35E5231B08F420E0C5
:10522000622E509028062A2D372D230F08F42FEFD9
:10523000822F880F820F609129068E5F0E94F80BE3
:105240006A2D6619752D0E946D0C472F282FC601F7
:105250000E94380B80917B04882339F0272D31E0A0
:10526000231B08F420E0D8012C93DF5FD63009F02F
:10527000B0CFF394B8E0FB12A7CF8B2D80CD8091F7
:105280008E010E94BB0A082FD92F20912A0631E0F7
:10529000230F08F42FEF30E050E040E06FEF7FEF96
:1052A00080E090E00E940934790110E0DD24D3947D
:1052B000202F0D1708F02ECDF801E455FD4F808109
:1052C00090918F01892309F14091F9054150042EF5
:1052D000000C550B47FF1CC0C70160912A062D2DFD
:1052E000620F08F46FEF0E94EB0BAC016091270690
:1052F00070912806809129060E944C0C0E946D0C2A
:10530000472F282FC8010E94380B0F5F1F4FD0CFA7
:10531000FA01E750FA4F818928130AC0FA01EE0F0B
:10532000FF1FE750FA4F818D928D8E159F05A8F2D1
:1053300041505109CFCF8091F90521E0382F321B20
:1053400008F430E0832F6DEF7AE00E94320D19CD22
:105350008091F90521E0382F321B08F430E0832FCB
:1053600065EE7AE0F2CF8091F90521E0382F321B0B
:1053700008F430E0832F6FEC7AE0E7CFC11113CD52
:105380004FCCC0938001837080937F010E9462168E
:1053900083E075CC80912506882351F048E050E0E9
:1053A00067E170E086E296E00E9490341092250654
:1053B000C090F505D090F605E090F705F090F8055F
:1053C00080919805882379F00E9427096C197D093E
:1053D0008E099F09603171058105910508F420CC83
:1053E000109291011DCC0E94430EF0CFACE0B0E0D2
:1053F000ECEFF9E20C94B8338E010F5F1F4F88E099
:10540000D8011D928A95E9F786EFC82E81E0D82E43
:10541000F12CE12CAA24A394B12C20E0822E22E0CE
:10542000922EF60181916F018F3F09F442C0F894EA
:10543000E82FE295EF70F0E021A18F70A50102C086
:10544000440F551F8A95E2F7CA01922F982B91A31A
:1054500092A18095892382A3789400C0EAEFF1E0BD
:10546000712C31E021912F3F09F4E5C0A22FA295C4
:10547000AF70B0E090968C9190E02F7002C095953F
:1054800087952A95E2F780FDD6C0832F782A330FBF
:105490008E169F0639F7F601319780818F3F11F004
:1054A0000E942C0E50EA5A95F1F7F801EE0DFF1DFF
:1054B00070828FEFE81AF80A94E0E916F10409F017
:1054C000B0CF48E050E0B8018FE993E00E94563435
:1054D000009741F028E0F801AFE9B3E001900D92A8
:1054E0002A95E1F70091A80310E005551C4F892B80
:1054F00009F4A3C081E0809328030E942D1C90939F
:10550000270380932603F12CE0909805EE2009F400
:10551000F2C019861A861B861C8680919A038A30EF
:1055200008F0B1C04AE05AE1BE01675F7F4FC80191
:105530000E948816882309F4CDC049E359E1BE01D1
:10554000675F7F4FC8010E948816882309F4C2C094
:1055500048EB59E1BE01675F7F4FC8010E94881682
:10556000882309F4B7C041ED57E1BE01675F7F4F63
:10557000C8010E948816882309F4ACC049E758E1A5
:10558000BE01675F7F4FC8010E948816882309F417
:10559000A1C041E259E1BE01675F7F4FC8010E948F
:1055A0008816882309F496C041E857E1BE01675F79
:1055B0007F4FC8010E948816882309F48BC042E0FF
:1055C00059E1BE01675F7F4FC8010E94881688239A
:1055D00009F480C04BE558E1BE01675F7F4FC80109
:1055E0000E948816882309F475C049EC58E1BE0171
:1055F000675F7F4FC8010E948816882309F46AC03C
:1056000010929A038091A70390E044E050E0BE011D
:10561000675F7F4F85559C4F0E94563421E0209351
:105620002F03892B09F048C0E12C8E2D8F292C9651
:10563000EDE00C94D43380E029CFF0902803FF20D4
:1056400009F461CFC0902603D09027030E942D1C3F
:105650008C199D09059708F456CF44E050E06FE996
:1056600073E0C8010E945634892B59F084E0EFE9B9
:10567000F3E0D80101900D928A95E1F7109228038A
:1056800043CFF12CFBCFC0902903D0902A030E9476
:105690002D1C8C199D09843F914008F043CF8091C7
:1056A0002F03882309F2FE01399684E0DF011D9261
:1056B0008A95E9F710922F03E091A703F0E0E555F2
:1056C000FC4F89859A85AB85BC8580839183A283B5
:1056D000B383ABCF80919A038F3F31F08F5F80937C
:1056E0009A038A3008F48ECF0E942D1C90932A03CF
:1056F00080932903D4CFC090A703D12CF601E555A0
:10570000FC4F6F0184E0F801A1E3B3E001900D923A
:105710008A95E1F764E070E081E393E00E94BD09BF
:105720008093300384E0E5E3F3E0D60101900D922D
:105730008A95E1F788E0E2E1F5E0AAE3B3E00190C1
:105740000D928A95E1F768E070E08AE393E00E94A9
:10575000BD09809339038090420390904303A09049
:105760004403B090450380912B0390912C03A091AA
:105770002D03B0912E0388169906AA06BB06B1F038
:1057800080922B0390922C03A0922D03B0922E03B3
:105790000E942709861A970AA80AB90A80929B03D1
:1057A00090929C03A0929D03B0929E038091460329
:1057B0009091470390932F0680932E068091480383
:1057C000909149039093AA038093A90380914A037F
:1057D00080939A0580914C0390914B03909384039E
:1057E0008093850388E0EDE4F3E0A6E2B6E0019063
:1057F0000D928A95E1F780915603882399F10E94D2
:10580000F71680915F0390916003A0916103B091BE
:10581000620340915B0350915C0360915D03709162
:105820005E03009157031091580320915903309162
:105830005A030093BC031093BD032093BE0330931F
:10584000BF034093C7035093C8036093C903709389
:10585000CA038093920390939303A0939403B0930D
:105860009503E3CE0E94DD16CCCFA6E0B0E0EAE3DC
:10587000FCE287C70E942D1C8C018091240390912B
:1058800025038017910781F019821A820E942D1C2E
:10589000682F49815A81792F80E090E00E94072388
:1058A00010932503009324032696E4E086C71F92F5
:1058B0001FB61F9211248F939F93AF93BF93809134
:1058C000A105811113C08091A2059091A305A0911B
:1058D000A405B091A5054196A11DB11D8093A20517
:1058E0009093A305A093A405B093A505BF91AF9194
:1058F0009F918F911F901FBE1F901895CDB7DEB757
:1059000061970FB6F894DEBF0FBECDBF85B7806834
:1059100085BF85B7806885BF84B7877F84BF0FB692
:10592000F894A8958091600088618093600010923F
:1059300060000FBE80E890E00FB6F894809361009D
:10594000909361000FBE81E080938D0186E29EE01E
:105950009093D7028093D6020E94CC070E946D08D4
:105960008091E20084608093E20078948091B10598
:105970008823A1F01091E9001F709091EC00892F0D
:10598000817090FD80E8182B1092E9008091E8006A
:1059900083FD0E94B8121F701093E90082E084BD5D
:1059A00093E095BD9AEF97BD80936E0010929B0394
:1059B00010929C0310929D0310929E038091D80038
:1059C00080618093D8002AE12A95F1F700C0809188
:1059D000D900182F117080FD04C00E94CC071092CE
:1059E000B10510939805109399051093700111114A
:1059F00053D5E2E1F5E088E0DF011D928A95E9F7F1
:105A00008091700191E089278093C2038091700199
:105A10009093C5038091700180917001811106C03F
:105A200084EF8093880185EF8093890160E080E0B6
:105A30000E94FC0961E080E00E94FC09EFE8F1E0CF
:105A40003197F1F700C0000010E08091C5031817EE
:105A500008F4D7C1809170018091700194E08111A8
:105A600090E09093A80384E0891B8093A70386E6C7
:105A70000E942C0E87E90E942C0E86EC0E942C0EB0
:105A800084E30E942C0E0AEF11E0D8018D918D0164
:105A90008F3F11F00E942C0EB2E000301B07A9F7D7
:105AA00088E0EBEAF3E0DF01282F1D922A95E9F761
:105AB000EFE9F3E0DF011D928A95E9F790E080E0DD
:105AC0002AD7833E9E4F79F163EE7EEF90E080E02F
:105AD00050D760E082E090E032D781E090E0909390
