:100000007CC7000097C7000095C700000C94DA3247
:1000100091C700008FC700008DC700008BC700008C
:1000200089C7000087C700000C94FD240C94BA24F3
:100030000C94962A7FC700007DC700007BC7000094
:1000400079C7000077C7000075C7000073C70000BC
:1000500071C700000C94531A6DC700006BC70000F5
:1000600069C7000067C7000065C7000063C70000DC
:1000700061C700005FC700005DC700005BC70000EC
:1000800059C7000057C7000055C7000053C70000FC
:1000900051C700004FC700004DC700004BC700000C
:1000A00049C7000047C7000045C700000501098097
:1000B000A101850319012AB700150126B700950192
:1000C00075108100C0050C0901A101850419012AE0
:1000D000A002150126A002950175108100C00660DE
:1000E000FF0961A1010962150026FF00952075082E
:1000F00081020963150026FF00952075089102C052
:1001000005010906A101050719E029E715002501E8
:10011000950875018102950175088101050719008F
:1001200029FF150026FF00950675088100050819AE
:1001300001290515002501950575019102950175A7
:10014000039101C0716D6B20636F6D70696C6520E8
:100150002D6B62206B6C6F72202D6B6D2064656659
:1001600061756C740000DA1281FFD9F1DB20A4A65E
:100170002EAF00A0C0D30000A1C8D30000AED58030
:10018000A83F408D1420000001010101010101017F
:10019000010202020202020202020303030303033A
:1001A0000303040404040404040505050505060608
:1001B00006060607070707070808080809090909C6
:1001C0000A0A0A0B0B0B0C0C0C0D0D0D0E0E0E0F6C
:1001D0000F0F1010111111121213131414151516FC
:1001E000161717181819191A1A1B1B1C1D1D1E1E6D
:1001F0001F202021222223242425262627282929BE
:100200002A2B2C2D2D2E2F303132323334353637E8
:1002100038393A3B3C3D3E3F4041424344454647E6
:1002200048494A4C4D4E4F50515354555658595ABF
:100230005B5D5E5F616264656668696B6C6D6F7063
:1002400072737577787A7B7D7E8082838587888AD2
:100250008C8E8F91939596989A9C9EA0A2A3A5A709
:10026000A9ABADAFB1B3B5B7BABCBEC0C2C4C6C905
:10027000CBCDCFD1D4D6D8DBDDDFE2E4E7E9EBEEBE
:10028000F0F3F5F8FAFDFF00AF00AE939400E1E162
:1002900000919200A0A1A2A3A4E100B7B800B5B656
:1002A000008081828384E100E1E1E1E1E1E1E1E1DB
:1002B000E1E1E1E1E100979800959600C0C0C0C07F
:1002C000C0C0C0C0C0C0C0C0C0C0C0C0C0C0C0C02E
:1002D000C00000000000000000000000000000005E
:1002E000000000000000000000000000000000000E
:1002F0000000F0F0F0F0FFFFFFFFFFFFFFFFFFFF48
:10030000FFFFFFFFFFFFFFFFFFFFFFFFFFFFFFFFFD
:10031000FFFFFFFFFFFFFFFFFFFFFFFFFFFFFFFFED
:10032000FFFFFFFFFFFFFFFFFFFFFFFFFFFFF0F0FB
:10033000F0F00000000000000000000000000000DD
:1003400000000000000000000000000000000000AD
:10035000000000000000000000000000000000009D
:10036000000000000000000000000000000000008D
:100370000000FFFFFFFFFFFFFFFFFFFFFFFFFFFF8B
:10038000FFFFFFFFFFFFFFFFFFFFFFFFFFFFFFFF7D
:10039000FFFFFFFFFFFFFFFFFFFFFFFFFFFFFFFF6D
:1003A000FFFFFFFFFFFFFFFFFFFFFFFFFFFFFFFF5D
:1003B000FFFF00000000000000000000000000003F
:1003C000000000000000000000000000000000002D
:1003D0000000000000000000000000000000F0F03D
:1003E000F0F0FFFFFFFFFFFFFFFFFFFFFFFFFFFF3B
:1003F000FFFFFFFFFFFFFFFFFFFF0F0F0F0F0000CB
:100400000000000000000F0F0F0FFFFFFFFFFFFFB6
:10041000FFFFFFFFFFFFFFFFFFFF0F0F0F0F0000AA
:100420000000000000000F0F0F0FFFFFFFFFFFFF96
:10043000FFFFFFFFFFFFFFFFFFFFFFFFFFFFFFFFCC
:10044000FFFFF0F0F0F000000000000000000000EE
:100450000000000000000000000000000000FFFF9E
:10046000FFFFFFFFFFFFFFFFFFFFFFFFFFFFFFFF9C
:10047000FFFFFFFFFFFFFFFFFFFFF0F0F0F00000C6
:10048000000000000000F0F0F0F0FFFFFFFFFFFFB2
:10049000FFFFFFFFFFFFFFFFFFFFF0F0F0F00000A6
:1004A000000000000000F0F0F0F0FFFFFFFFFFFF92
:1004B000FFFFFFFFFFFFFFFFFFFFFFFFFFFFFFFF4C
:1004C000FFFFFFFFFFFF0000000000000000000032
:1004D0000000000000000000000000000000FFFF1E
:1004E000FFFFFFFFFFFFFFFFFFFFFFFFFFFFFFFF1C
:1004F000FFFFFFFFFFFFFFFFFFFFFFFFFFFFFFFF0C
:10050000FFFFFFFFFFFFFFFFFFFF0F0F0F0F0F0F9B
:100510000F0F0F0F0F0F0F0F0F0FFFFFFFFFFFFF4B
:10052000FFFFFFFFFFFFFFFFFFFFFFFFFFFFFFFFDB
:10053000FFFFFFFFFFFFFFFFFFFFFFFFFFFFFFFFCB
:10054000FFFFFFFFFFFF00000000000000000000B1
:1005500000000000000000000000000000000F0F7D
:100560000F0FFFFFFFFFFFFFFFFFFFFFFFFFFFFF7B
:10057000FFFFFFFFFFFFFFFFFFFFFFFFFFFFFFFF8B
:10058000FFFFFFFFFFFF0F0F0F0F00000000F0F055
:10059000F0F0F0F0F0F0000000000F0F0F0FFFFF81
:1005A000FFFFFFFFFFFFFFFFFFFFFFFFFFFFFFFF5B
:1005B000FFFFFFFFFFFFFFFFFFFFFFFFFFFFFFFF4B
:1005C000FFFF0F0F0F0F00000000000000000000F1
:1005D000000000000000000000000000000000001B
:1005E000000000000000000000000000000000000B
:1005F0000000FFFFFFFFFFFFFFFFFFFFFFFFFFFF09
:10060000FFFF0F0F0F0F00000000F0F0F0F0FFFFF2
:10061000FFFFFFFFFFFFF0F0F0F0000000000F0F02
:100620000F0FFFFFFFFFFFFFFFFFFFFFFFFFFFFFBA
:10063000FFFF0000000000000000000000000000BC
:1006400000000000000000000000000000000000AA
:10065000000000000000000000000000000000009A
:10066000000000000000000000000000000000008A
:100670000000FFFFFFFFFFFFFFFFFFFFFFFFFFFF88
:10068000FFFFF0F0F0F0F0F0F0F0FFFFFFFFFFFFF2
:10069000FFFFFFFFFFFFFFFFFFFFF0F0F0F0F0F0C4
:1006A000F0F0FFFFFFFFFFFFFFFFFFFFFFFFFFFF78
:1006B000FFFF00000000000000000000000000003C
:1006C000000000000000000000000000000000002A
:1006D0000000000014001A000800150017002B008D
:1006E00004001600070009000A004C001D001B0052
:1006F0000600190005000000E000417E2C00E20029
:10070000A8000000130012000C0018001C003400A8
:1007100033000F000E000D000B00E500380037001D
:1007200036001000110000002A00427E2800E3007D
:10073000AE0000003900530052002E002F022900A5
:100740004A00500051004F002F0000004D004B00A8
:1007500016014E0026020000010001000100010008
:10076000007C00002E00610060005F00300231005C
:100770002D005E005D005C003000010055005B0054
:100780005A00590027020000620001000100010028
:10079000AE0000001E021F022002210222023500CC
:1007A0000000000000000000000000000000000049
:1007B0000000000000000000010001000100010035
:1007C000A80000003100201455002402230200007C
:1007D0000000000000000000000000000000000019
:1007E0000000000000000000010001000100010005
:1007F000007C000082744B78477845784978007C0B
:10080000027C4C78487846784A78457E447E0000E1
:1008100042784478437800000100010001000100A3
:10082000007C0000690042004100400000006800B8
:1008300045003F003E003D000000440043003C00F6
:100840003B003A000000000001000100010001002F
:10085000007CA900AA00BD00BE00A900AA00AB0050
:10086000AC0049784A78487848784B784C78437897
:10087000447809025B00030100A0FA0904000001AA
:100880000301010009211101000122440007058133
:1008900003080001090401000203000000092111FE
:1008A0000100012222000705820320000107050341
:1008B00003200001090402000103000000092111C6
:1008C000010001223200070584032000011201000B
:1008D00002000000083C3A01000001010200010A88
:1008E000034B006C006F00720000001803470065A6
:1008F00000690067006500690067006500690073B2
:10090000007400000004030904000000000000005F
:1009100000000000000000000000000000000000D7
:10092000000000000000000000000000007E0F003A
:10093000D4FFFFFFC70000007800000000000000A7
:10094000002A2B280000000000000000000000002A
:100950000000000029000000002C1E342021222469
:10096000342627252E362D3738271E1F20212223F7
:100970002425263333362E37381F04050607080989
:100980000A0B0C0D0E0F101112131415161718194F
:100990001A1B1C1D2F3130232D35040506070809AD
:1009A0000A0B0C0D0E0F101112131415161718192F
:1009B0001A1B1C1D2F3130354C0000000000003E7A
:1009C0005B4F5B3E003E6B4F6B3E001C3E7C3E1C13
:1009D00000183C7E3C18001C577D571C001C5E7F95
:1009E0005E1C0000183C180000FFE7C3E7FF000092
:1009F0001824180000FFE7DBE7FF0030483A060E36
:100A000000262979292600407F05050700407F053B
:100A1000253F005A3CE73C5A007F3E1C1C0800085A
:100A20001C1C3E7F0014227F2214005F5F005F5F6A
:100A30000006097F017F00006689956A006060609A
:100A400060600094B6FFB69400080C7E0C0800109D
:100A5000307E30100008083E1C0800081C3E0808C4
:100A6000001E10101010000C1E0C1E0C0030383E22
:100A7000383000060E3E0E060000000000000000A8
:100A8000005F000000000700070000143E143E1441
:100A9000002E2A7F2A3A00201208240200374949F2
:100AA000375000000807030000001C22410000002E
:100AB00041221C00002A1C7F1C2A0008083E08084E
:100AC000000080703000000808080808000000607E
:100AD0006000002010080402007F5149457F000893
:100AE00004027F0000714949494F0041414949775B
:100AF000000F1010107F004F49494971007E49498D
:100B000049700001017109070077494949770007D9
:100B10004949493F00000014000000004034000033
:100B2000000008142241001414141414000041227F
:100B3000140800010159090F007F415D594F007FE2
:100B40000909097F007F49494976007F41414141B8
:100B5000007F4141417E007F49494949007F0909A1
:100B60000909007F4141497B007F0808087F000098
:100B7000007F000000704040407F007F0808087739
:100B8000007F40404040007F011F017F007F04083C
:100B9000107F007F4141417F007F0909090F007FDD
:100BA0004171417F007F0909196F0047494949791F
:100BB0000001017F0101007F4040407F001F204075
:100BC000201F007F407F407F007708080877004F94
:100BD0004848487F00615149454300007F4141003A
:100BE000000204081020000041417F0000040201BF
:100BF0000204004040404040000000070800006040
:100C00005454547C007F44444478007C444444441D
:100C100000784444447F007C5454545C00087F09AD
:100C200009090038A4A4A4FC007F0404047800008F
:100C3000007D0000007040407D00007F08080876BD
:100C40000000007F4000007C047C047C007C0404E5
:100C50000478007C4444447C00FC2424243800387C
:100C6000242424FC007C04040404005C54545474C4
:100C70000004047F0404007C4040407C001C2040B1
:100C8000201C007C407C407C006C1010106C00BC70
:100C9000A0A0A0FC004464544C440000083641006D
:100CA0000000007700000000413608000002010249
:100CB0000402003C2623263C000000E0F0F0F0F0A7
:100CC000FEFF9F0F0F9FFFFFFFFF9F0F0F9FFFFE76
:100CD000F0F0F0F0E00000FF000000000000C03085
:100CE0000C0300000000FF0000000000000000E016
:100CF00010080402020201010101010102020204C2
:100D00000810E000000000FF0101010101010101E4
:100D10000101FF7F515555457F415F5F5F7F007F38
:100D2000417B77417F415F5F5F7F007F415D5D5D1C
:100D30007F415F5F5F7F00C0E0F0F0F0E0E6F7F337
:100D4000F060007C7C7C7C7C007C7C7C7C7C00F883
:100D50001CDE1FFFFFFF1FDE1CF800C0E2B4F8F826
:100D6000F8F8F8B4E2C00000000000000000000045
:100D70000000000000000000000000070F0F0F0F30
:100D8000FFFFFFFF9F87E1F9F9E1879FFFFFFFFF6B
:100D90000F0F0F0F070000FF0000C0300C33C00022
:100DA000000000000000FF000000000000003FC045
:100DB0000000000000000000000000000000000033
:100DC0000000C03F000000FF08080808080838C8F5
:100DD00008080F7E00007F00007800007E000024DD
:100DE0002412122424484824241212000000000077
:100DF000000000000000000F1F3F7F7F3F3F7F7F0C
:100E00003810001F1F1F1F1F001F1F1F1F1F000F55
:100E10001421404541454021140F007D7D7D7D7D9D
:100E20007D7D7D7D7D7D00000000000000000000D4
:100E30000000000000000000000808080808080082
:100E400000000000000000000000000000000000A2
:100E5000000000000000003F0C0300000000000341
:100E60000C30000000003F20202020202020200106
:100E7000020408101010202020202020101010083C
:100E8000040201000000003F00000000000000001C
:100E9000030C304000004000004000004000001CF7
:100EA0003E3E3E1C003E1C1C0808003E3E3E3E3EB0
:100EB0000000000000000000000000000000000032
:100EC0000000000000000000000000000000000022
:100ED0000000000000000000000000000000000012
:100EE0000000000000000000000000000000000002
:100EF0000000000000000000000011241FBECFEF22
:100F0000DAE0DEBFCDBF12E0A0E0B1E0EAEFFAE642
:100F100002C005900D92AE3EB107D9F729E0AEEEC2
:100F2000B2E001C01D92AB3AB207E1F70E94BD2AC0
:100F30000C940F3565C8482F20918E05909155056A
:100F400057E0291302C080E0089530E0529FF0017D
:100F5000539FF00D1124EA5AFA4F8181681306C09D
:100F60008081481303C085818111EECF2F5F3F4FF1
:100F70002770E7CFE8EDF0E080818E7F80831092CC
:100F8000E2001092DA001092E100A0EEB0E08C9145
:100F900081608C9380818F77808319BCA7EDB0E04E
:100FA0008C918E7F8C9380818F7E8083109236050A
:100FB00008952091E4003091E50095E6A901209183
:100FC000EC00822F817020FF06C08091E80080FF36
:100FD00006C080E008952091E80022FD1AC08091AB
:100FE0004B05882389F0853089F08091EB0085FDE1
:100FF0000FC02091E4003091E50042175307F9F249
:101000009150E1F684E0089582E0089583E0089528
:1010100081E0089580914D0587FF13C08091E8001D
:1010200082FF06C08091E8008B778093E80004C0BF
:1010300080914B058111F2CF089580914B05882353
:10104000D9F38091E80080FFF8CF8091E8008E7797
:10105000ECCF982F9093E900242F762F50E089173A
:1010600031F07091EC002091ED005091F00021FDE5
:1010700007C09F5F973071F78093E90081E0089582
:101080003091EB003E7F3093EB003091ED003D7FDF
:101090003093ED003091EB0031603093EB007093B2
:1010A000EC002093ED005093F0002091EE0027FD1E
:1010B000E0CF80E00895B0E0A0E0E1E6F8E00C9435
:1010C0000834C8EDD0E088818F7E8883E7EDF0E0BA
:1010D00080818160808384E082BF81E080933605D7
:1010E00088818E7F888302EE10E0F80110821092D2
:1010F000DA0081EEC82ED12CF601108288818F771C
:10110000888388818068888388818F7D888319BCE3
:1011100010924B0510924C051092400510923F051D
:1011200090EEE92EF12CF70180818B7F80838881FE
:101130008160888342E060E080E08BDFF60180819F
:101140008E7F8083F80180818160808380818860C8
:101150008083F70180818E7F80838881806188838E
:10116000CDB7DEB7E8E00C942434FC018091530540
:101170009091540586179707A0F06115710529F421
:101180009091E8009E779093E80090E061157105DA
:1011900051F4911108C08091E80082FF34C080E0D2
:1011A0000895BC01F2CF80914B058823C1F18530B1
:1011B000C1F18091E80083FD30C08091E80082FD9C
:1011C000EACF8091E80080FFE1CF8091F300209189
:1011D000F200382F6115710519F02830310558F0EB
:1011E00091E02830310509F090E02091E8002E7759
:1011F0002093E800CBCF81918093F1006150710979
:101200002F5F3F4FE7CF80914B05882341F085301A
:1012100041F08091E80083FFBECF81E0089582E035
:10122000089583E008950895089587E797E79093D8
:1012300001088093000888E19AE00FB6F894A89519
:10124000809360000FBE90936000FFCF2FB7F8949B
:101250006091320570913305809134059091350588
:101260002FBF08958091930108959C01FC0132964F
:101270009FEF80E04191461751F09F3F19F44111D3
:1012800001C0982F8F5F8630A9F79F3F09F408951A
:10129000290F311D97FD3A95F90162830895A3E066
:1012A000B0E0E5E5F9E00C940E342091270530918B
:1012B000280528173907B1F0909328058093270552
:1012C000E0912505F0912605309761F00084F185C5
:1012D000E02D309739F024E029839B838A83CE0167
:1012E000019609952396E2E00C942A34A3E0B0E03D
:1012F000ECE7F9E00C940E3420912305309124059D
:1013000028173907B1F09093240580932305E091C5
:101310002505F0912605309761F00084F185E02DD8
:10132000309739F023E029839B838A83CE0101968D
:1013300009952396E2E00C942A3480918F0581115F
:1013400003C0809122050895E0912505F0912605BE
:10135000309739F00190F081E02D309711F0099528
:10136000089580E00895DC01ED91FC91119784913E
:101370003196ED93FC930895FC01680F791F8FEF70
:1013800091E32191822728E030E087FF09C0880F90
:10139000892721503109C9F7E617F70791F7089512
:1013A000880FF7CFFC01EE0FFF1FE80FF91FEC5578
:1013B000FB4F6183408322830895539A089590E000
:1013C0006623A1F08F569E4FFC0120812F3F89F0AC
:1013D000E22FE295EF70F0E080A190E02F7002C064
:1013E000959587952A95E2F78170089580579E4FCD
:1013F000EBCF80E0089590E06623E9F08F569E4F92
:10140000FC0180818F3FB1F0E82FE295EF70F0E0B2
:1014100041A18F7021E030E0B90102C0660F771F53
:101420008A95E2F7CB01962F9095942391A392A1F0
:10143000892B82A3089580579E4FE2CF90919E04FE
:10144000E92FF0E040919F049F012F5F3F4F2370F1
:10145000332742171306A9F0E056FB4F282F2F77AA
:1014600080818078822B60FB87F980839F5F9370F7
:1014700090939E0480919C048F5F80939C0481E0F4
:10148000089580E00895E5E9F5E0248130E1231B2B
:1014900008F420E02483809139048160809339042A
:1014A0000895E5E9F5E0248130E1230F08F42FEFFA
:1014B0002483809139048160809339040895909148
:1014C0009505937071F08093960560939705453B61
:1014D00008F044EB4093980580913904822B809367
:1014E00039040895E5E9F5E0438120E1421B08F461
:1014F00040E0818121E0628190E0E1CFE5E9F5E023
:10150000438120E1420F08F44FEF818121E06281A5
:1015100090E0D5CFE5E9F5E0628120E1621B08F4B7
:1015200060E0818121E0438190E0C9CFE5E9F5E009
:10153000628120E1620F08F46FEF818121E0438135
:1015400090E0BDCFE5E9F5E0818121E04381628152
:101550008850990BB4CFE5E9F5E0818190E021E076
:10156000438162810896ABCF90919505937061F0AD
:1015700081110BC094609093950510928801809121
:101580003904862B809339040895853010F09061DA
:10159000F2CF880F880F982BEECF80919505869516
:1015A0008695815009F484E061E0DECF8091950555
:1015B000869586958F5F853008F081E061E0D4CF15
:1015C00080919505837011F01092880180919505A6
:1015D0008C7F80939505089580919505837011F413
:1015E00010928801809195058C7F8160809395058C
:1015F0000895E5E9F5E0908121E09227908310922B
:10160000880190913904892B80933904089599E0D9
:10161000899F802D1124980F9B3208F09AE2209127
:101620009005222321F0963128F095E10895853127
:1016300008F485E10895322F50E0FA01EE0FFF1F04
:10164000E15CFD4F91A9905297FD9195440F551F74
:10165000FA01E159FD4F2081231B330B290F311D66
:1016600097FD3A95620F089530919005311104C0AD
:10167000853191050CF0459795CEFF920F931F93FE
:10168000CF93DF93182F062FF42ED0E0C0E02F2D3C
:10169000402F612FCE01E8DF2196CA32D105B9F77C
:1016A000CDB7DEB7E5E00C9427344F3F510519F074
:1016B00010F04FEF50E04095282F429F040E40E07D
:1016C000411D1124842F0895E42FF0E0EE0FFF1F39
:1016D000E159FD4F9081921B97FD9195292F38E19B
:1016E000239F020E20E0211D1124620F0895B0E017
:1016F000A0E0EDE7FBE00C9408349B01E82FF0E05C
:10170000E957FE4F311109C0E4918E2F7E2F6E2FC5
:10171000CDB7DEB7E8E00C942434E32EF12CE4914D
:10172000FE2F0E2F10E046E0649FC0011124CFEF82
:10173000D0E0BE010E94EA33AB01822F90E0880F17
:10174000991F25E5249FB001259F700D1124861B4C
:10175000970B982F990F980FBE016E197F09609F04
:10176000D001619FB00D709FB00D11248B2F399F58
:1017700090011124232F3327BE01621B730B609F3E
:101780009001619F300D709F300D11246E01C91AB8
:10179000D108CE9CB001CF9C700DDE9C700D112441
:1017A000672F7727C61BD70BC09F7001C19FF00C16
:1017B000D09FF00C11247F2D42305105A1F050F440
:1017C0004115510509F4A3CF4130510581F07B2F1C
:1017D000832F9DCF4430510569F080F0463051058C
:1017E00009F495CFF4CFEB2F8F2D7F2F90CF7E2F45
:1017F000E32F8DCFEF2D7B2F8F2F89CF732FEB2FE3
:10180000FBCFEF92FF920F931F93CF93DF938C0147
:1018100080919601FCDEE92E30919905369536953A
:1018200021E0320F08F43FEF60919105709192052D
:1018300050E040E0639F060E411D739F400D511D17
:101840001124470F511DF42EC82FD0E0CE1550F0B3
:10185000809190058823F9F081E094E19E15F8F4D9
:1018600080E01DC0FE01ED53FD4F808190919701F6
:10187000892379F06091960570919705809198057C
:101880002F2D4C2FF801099532DF472F282FCE013D
:10189000EBDE2196DBCF81E0E9E2EE1508F3CDB770
:1018A000DEB7E6E00C94263480E0089581E0809372
:1018B000DC030895F894E82FE295EF70F0E031A191
:1018C000282F2F7081E090E001C0880F2A95EAF759
:1018D000982F9095932391A392A1892B82A378941A
:1018E00008950F931F9380918F05882321F0AEDC1C
:1018F0001F910F910895AADC0091AF031091B003DE
:101900002091B1033091B203600F711F821F931FAA
:10191000EFCF9091BF0392FF10C041E0282F2471B8
:10192000243009F040E031E0282F2871283009F0F8
:1019300030E0431711F02CE0822793FF10C041E004
:10194000282F2471243109F040E031E0282F28713C
:10195000283109F030E0431711F02CE08227309154
:10196000C00330FF10C051E0282F2171213009F051
:1019700050E041E0282F2871283009F040E054174A
:1019800011F029E0822731FF10C041E0282F21719A
:10199000213109F040E031E0282F2871283109F089
:1019A00030E0431711F029E0822794FD877E0895E7
:1019B00082389105B9F1B0F48133910509F47DC005
:1019C00048F48932910509F46DC08A32910509F411
:1019D0007BC008958533910509F45FC08933910573
:1019E00009F10895833E9105D9F138F4803E9105BF
:1019F00029F1823E910579F10895863E9105D9F14C
:101A0000873E910509F43EC0843E910541F5209141
:101A1000C00321FF24C08091BF0384FD19C087EE5D
:101A200090E008952091BF03237009F05AC02091DF
:101A3000C00323FF14C089E290E008952091BF0302
:101A400020FD38C03091C00330FF09C024FF43C0DF
:101A500090E080E008952091BF0322FDF7CF089524
:101A60002091BF0322FD3AC03091C00330FD39C040
:101A700024FFF5CFEDCF2091BF0323FFF0CF24FD4E
:101A8000E7CFCDCF2091BF0323FD2EC03091C003FF
:101A900031FFEECF84EE90E008952091BF0325FF43
:101AA000DECFC9CF2091BF0325FD21C02091C00307
:101AB00023FFD5CF89E390E0D2CF2091BF0326FF4B
:101AC000CECF8AE290E008952091BF0326FFC7CFD2
:101AD00081E390E0089583EE90E0089582EE90E037
:101AE000089580EE90E0089586EE90E0089585E3F5
:101AF00090E008951F93CF93DF935ADFEC01C11557
:101B000080E5D807F0F5C11580E4D80708F0A8C033
:101B1000C03ED10520F5CD3CD10508F090C0C83AB3
:101B2000D10578F4C53AD10508F081C0C130D1059E
:101B300019F1209709F1C430D105F0F4D0E0C0E0EC
:101B40001BC0C33CD105D0F7C85AD0E0CC0FDD1F75
:101B5000C253DE4F0990D881C02DD4640DC0C11589
:101B600080E2D80708F0C5C0C11581E0D80708F0A9
:101B700068C0C83ED10510F7CE01DF91CF911F910B
:101B80000895C03682E5D80718F5C03482E5D80735
:101B900008F076C0C03282E5D80708F06AC0C115E7
:101BA00082E5D80708F48BC02C2F2695269580E275
:101BB000289F900111248C2F8370C1E0D0E002C0D7
:101BC000CC0FDD1F8A95E2F7C22BD32BDD68D4CF73
:101BD000C03C82E5D807F8F4C03A82E5D80708F09F
:101BE00064C0C03882E5D80708F0A8CF2C2F26950E
:101BF0002695277080E2289F900111248C2F8370F6
:101C0000C1E0D0E002C0CC0FDD1F8A95E2F7C22B05
:101C1000D32BDA68B1CFC03E82E5D80708F08ECF6B
:101C2000DC2FCC27CC27DF71C06FD06AA5CFC55A77
:101C3000D0E0C553DE4FC881D0E0D0649DCFD065E1
:101C40009BCF8D2F66DE182FCE019927B1DEC12FD5
:101C5000D0E0DC2FCC27CC27DF71C82BD92B8CCF41
:101C6000CE019927A5DECC27DF70C82BD92BD06AEF
:101C700083CFCF71D0E0DC2FCC27C16FD06A7CCF6F
:101C80002C2F26952695277080E2289F90011124FD
:101C90008C2F8370C1E0D0E002C0CC0FDD1F8A958D
:101CA000E2F7C22BD32BDC6867CF8C2F8F7131DE2C
:101CB000C82FD0E0DC2FCC27CC27DF715DCF8C2F55
:101CC0008F7127DE55E0D695C7955A95E1F7CF700D
:101CD000D0E0DC2FCC27282F30E084FF06C044E082
:101CE000220F331F4A95E1F73327C22BD32BD0693C
:101CF00043CF8D2F8F710DDE182FCE01992758DE1F
:101D0000C12FD0E0DC2FCC27CC27DF71C82BD92BFB
:101D1000D06232CF80918E0590915505981301C005
:101D200008958F5F8770FACFA82FA77023E096954C
:101D300087952A95E1F7FC01EE0FFF1FE80FF91FC9
:101D4000E60FF71F50E040E080E0219130E00A2EDE
:101D500002C0369527950A94E2F721703327042EA6
:101D600001C0220F0A94EAF7822B4F5F5F4F433086
:101D7000510559F70895292F983058F4863080F48A
:101D800090E064E173E036E0239F800D911D112403
:101D9000CBCF2C5F223020F461E173E090E0F8CFEC
:101DA00080E00895262F277091E001C0990F2A95B1
:101DB000EAF723E0769567952A95E1F7FB01EE0FA8
:101DC000FF1FE60FF71FE40FF51F50E040E0682FFC
:101DD00070E08191DF0111979B01042E02C03695BE
:101DE00027950A94E2F7217021952827292328278F
:101DF0002C934F5F5F4F4330510559F70895282FBB
:101E0000862F983068F4263050F4622F70E026E078
:101E1000929F600D711D112444E153E0C3CF0895DA
:101E20009C5F9230E0F7622F70E041E153E0F6CF23
:101E30008093BD030895982F92959F7011F0892F7C
:101E400094E0282F2695269511F09E5F822F869587
:101E500009F09F5F892F0895CF93DF93682F81E06A
:101E60006A3019F06D3029F480E082D0DF91CF9193
:101E700008958091A9099091AA0926E0FC01A3EA9E
:101E8000B9E001900D922A95E1F7603E08F458C040
:101E900026E0FC0111922A95E9F7C091A909D09199
:101EA000AA0946E050E0BE0183EA99E00E94A83406
:101EB0009E01235A3540892B41F1C90146E0969590
:101EC00087954A95E1F741E050E0BA0102C0660FFC
:101ED000771F8A95E2F7CB016091A1057091A20569
:101EE000862B972BB9016B5F7F4FE6E07695679560
:101EF000EA95E1F702C0440F551F6A95E2F7842B7B
:101F0000952B9093A2058093A1052A5F3F4F4091A6
:101F1000A005642F70E0C9010E94EA33481B4630D7
:101F200010F4240F311D211574E0370710F030E054
:101F300020E02D553A4F3093AA092093A90996CF56
:101F4000F6E06F9FB00111246754764F46E050E0F1
:101F50000E949F34A2CFCF93DF93EC01FE018491C6
:101F6000811103C0DF91CF91089576DF2196F6CFDE
:101F7000CF93382FE091A909F091AA09E35AF540CF
:101F80002091A005622F70E0CF010E94EA33281B48
:101F9000822F332359F066E00E943534C82FC15098
:101FA00010F4CF91089580E257DFF9CF9F01280FF9
:101FB000311D2115344018F080E0F0E0E0E08E0F94
:101FC0009F2F911D8D559A4F9093AA098093A9092F
:101FD000E8CF8091940390919503892B8093F00230
:101FE00048E050E06DE273E080EF92E00E94A83498
:101FF000892BB9F088E0E0EFF2E0ADE2B3E00190C8
:102000000D928A95E1F7E0912505F091260530972C
:1020100041F00280F381E02D309719F080EF92E0DB
:102020000995089510929403E2EFF2E086E0DF0153
:102030001D928A95E9F790E080E058D990E080E021
:102040002ED910929503C5CF882339F080959091B1
:102050009403892380939403BCCF0895882331F09F
:1020600090919403982B90939403B3CF0895882371
:1020700099F19CEF980F913A68F4E2EFF2E09191B8
:10208000891303C0DF0111971C9242E0E83FF40777
:10209000B1F79FCF90E2980F983088F4877021E0D5
:1020A00030E0A90102C0440F551F8A95E2F7CA012A
:1020B000809590919403892380939403EACF9BE5C4
:1020C000980F933018F490E080E010C9885A8B3153
:1020D00018F490E080E0E3C80895CF93C82F8823D8
:1020E000A1F08CEF8C0F813AE8F4E2EFF2E088EF98
:1020F00092E0DF012D91C21751F08A179B07D1F7AB
:102100006C2F80EF92E0B1D864DFCF9108952191D8
:10211000C21303C0DF0111971C928E179F07B9F7F6
:1021200058DFEECF80E28C0F883068F4C77021E072
:1021300030E001C0220FCA95EAF780919403822B08
:1021400080939403E1CFEBE5EC0FE33038F4F0E05B
:10215000E553FE4F808190E0C9D8D7CFC85ACB3124
:10216000A0F6EC2FF0E0EE0FFF1FE253FE4F808150
:10217000918195D8CACF0F931F93CF93DF93EC0132
:10218000FC0101900020E9F78F0101501109C017EF
:10219000D10728F0DF91CF911F910F910895899178
:1021A0005BDEF5CF0F931F93CF93DF938B01EA0193
:1021B00090914B05943061F58093E9008FEF9091F9
:1021C000E800815095FD06C095ED9A95F1F7000065
:1021D0008111F5CF8091E80085FF1AC00E94D907D0
:1021E000811111C08091E80085FD06C08091E80052
:1021F0008E778093E800F2CFF80181918F01809370
:10220000F100219779F78091E8008E778093E800BC
:10221000DF91CF911F910F91089543E050E0BC01F1
:1022200084E0C0CFCF93DF93EC0148E050E0BC01E5
:1022300081E0B8DF88E0FE01A7E3B5E001900D92F0
:102240008A95E1F7DF91CF910895603229F440E259
:1022500050E0BC0182E0A6CF08953BB1377F2BB19F
:1022600028604FB7F89484EA94E0FC015191CF01C3
:1022700068E02BB9000000C057FF3BB9550F0000C4
:1022800000C000C000C03BB900C06A9591F7F5E0FE
:1022900082329F0751F74FBF8FE594E00197F1F726
:1022A00000C000000895B0E0A0E0E9E5F1E10C9481
:1022B00006347C015B016A018091AE0301E010E00D
:1022C0008A3010F40AE010E0C1E0D0E0B501C701A7
:1022D000F6010995811104C021960C171D072CF4F5
:1022E000CDB7DEB7EAE00C942234CC9F9001CD9FAD
:1022F000300D300D112490E080E045E34A95F1F770
:102300000000019682179307C1F7E0CF1F93CF9388
:10231000DF93182FEB01E1DE209731F4812FA7DE48
:10232000DF91CF911F9108958FE99FE00197F1F719
:1023300000C000002197F0CFB0E0A0E0E2EAF1E1B8
:102340000C9404346C015B018AE0882EC501F6010F
:102350000995882399F1813009F049C0C501F6013A
:102360000995813059F4C501F601099570E060E0E6
:10237000893311F460E570E0C9DFE8CF823029F4D9
:10238000C501F6010995A9DEE1CF833029F4C50125
:10239000F60109956CDEDACF843071F4C501F601DF
:1023A0000995D0E0C0E0482F4053550B9A014A30C0
:1023B000510548F0209799F48111C8CFCDB7DEB709
:1023C000ECE00C9420348C9EC0018D9E900D112465
:1023D000E901C80FD91FC501F6010995E4CFEFE95E
:1023E000FFE03197F1F700C000002197E3CFE82F1D
:1023F000F0E0E75CF64F9490282F269526952695D9
:1024000030E0F901E75DF64F0491877010E0082E87
:1024100002C0159507950A94E2F701701127F9019A
:10242000E75EF64FE490F12C082E02C0F594E79495
:102430000A94E2F7F1E0EF22FF24F901E75FF64F9B
:10244000C491D0E002C0D595C7958A95E2F7C170D6
:10245000DD270115110511F081EE3FDEE114F104D5
:1024600011F086EE3ADE70E060E0892D4FDFE11476
:10247000F10411F086EEFBDD0115110511F081EE7E
:10248000F6DDCD2B09F462CF70E060E08CE274CF12
:10249000C9DD2FEF84E39CE0215080409040E1F7BC
:1024A00000C0000088E19AE00FB6F894A8958093E8
:1024B00060000FBE90936000FFCF0F931F93CF93E8
:1024C000DF93142F022F843020F5623010F598E04E
:1024D000899FE001112484E0689FB0011124C60F98
:1024E000D71FC755DE4F82E090E0442311F090E003
:1024F00080E0632F8C0F9D1F0E94F13483E090E0F9
:10250000112311F081E090E0602F8C0F9D1F0E943D
:10251000F134DF91CF911F910F9108951F93CF93C5
:10252000DF93122F8430E0F46830D0F44630C0F4EA
:10253000C42FD0E0CC0FDD1F9CE0699FC00DD11DE2
:10254000112490E6899FC00DD11D1124632FCE0167
:1025500089960E94F134612FCE018A960E94F1344F
:10256000DF91CF911F9108958F929F92AF92BF926A
:10257000DF92EF92FF920F931F93CF93DF9302E5C9
:1025800018E082EDE82E86E0F82EC0E05701D0E09A
:1025900014C0F401259134914D2D6D2F8C2FBEDF89
:1025A00082E0880E911CD39486E0D812F2CF8CE0A2
:1025B000A80EB11CDF5FD83019F04501D12CE9CF4E
:1025C000F8012591349141E060E08C2F76DFF8012D
:1025D00032962591349140E060E08C2F6EDFF80157
:1025E00034962591349141E061E08C2F66DFF8014B
:1025F00036962591349140E061E08C2F5EDF085FD4
:102600001F4FCF5F80E6E80EF11CC43009F0BECF4B
:10261000DF91CF911F910F91FF90EF90DF90BF90CE
:10262000AF909F908F900895CF93DF9385E290E0D5
:102630000E94D534D82F86E290E00E94D534C82F6E
:1026400087E290E00E94D534D53259F4C03149F484
:1026500091E0823009F090E0892F8170DF91CF9175
:10266000089580E0FACF9B0127533E4F67337240B5
:102670008105910518F4C9010C94D53480E00895C2
:10268000CF92DF92EF92FF92CF93DF93EC01C8805D
:10269000D980EA80FB80C701B601E5DF9FEFC91A48
:1026A000D90AE90AF90AC882D982EA82FB82DF9153
:1026B000CF91FF90EF90DF90CF900895FF920F930E
:1026C0001F93CF93DF93F42E843070F5623060F562
:1026D00028E0829F8001112434E0639FB00111241F
:1026E000060F171F07551E4F82E090E0442311F09C
:1026F00090E080E0800F911F0E94D534C82FD0E079
:10270000DC2FCC2783E090E0FF2011F081E090E007
:10271000800F911F0E94D5349E01282BC901CDB78F
:10272000DEB7E5E00C94273490E080E0F8CF0F931B
:102730001F93CF93DF93843030F5683020F5463017
:1027400010F5C42FD0E0CC0FDD1F2CE0629FC00D30
:10275000D11D112430E6839FC00DD11D1124CE015F
:1027600089960E94D534082F10E0102F0027CE0143
:102770008A960E94D5349801282BC901DF91CF9108
:102780001F910F91089590E080E0F8CF783038F4F1
:10279000663060F4843050F4462F672FC8CF7D3FF9
:1027A00041F4623018F441E0843050F090E080E071
:1027B00008957C3FD9F76230C8F78430B8F740E01D
:1027C0007DCFCF92DF92FF920F931F93CF93DF9332
:1027D0006C010091BE038091BD03082BC3E0D0E0E3
:1027E00010E0FC2EC8010C2E02C0959587950A9426
:1027F000E2F780FD0CC02197A0F7F12C8F2DDF911F
:10280000CF911F910F91FF90DF90CF900895B60167
:102810008C2FBCDF6FD9019771F3F0CFCF93DF938B
:10282000EC01CFDFBE01B2DF65D9DF91CF91089512
:10283000FC0124812223B9F080819181EFDF929500
:102840009F70963091F058F4925F9F70923058F4D8
:10285000803F19F030F4883E30F481E008959A5FAB
:10286000F4CF843FD1F380E00895883EB0F3813FF8
:10287000D1F7F3CFA6E0B0E0E0E4F4E10C940D343E
:1028800026E0FC01DE01119601900D922A95E1F7F8
:10289000FC01258189819A81222381F0662371F0D0
:1028A00090DF182F682F89819A81A9DA69817A814E
:1028B000812F6CDF2696E3E00C9429345CDA182F24
:1028C000F5CFA0E1B0E0E7E6F4E10C940034CE01EE
:1028D00001965C0180E1F50111928A95E9F705E224
:1028E00010E097E3492E92E0592E612C712C29ECCF
:1028F000822E992493940150110921F46096E0E10D
:102900000C941C346201F1E14F165104610471040E
:102910002CF080E1C82ED12CE12CF12CA601B401C1
:10292000C5010E94E2348C0C9D1C0D2C000CEE089D
:10293000FF084C185D086E087F08DDCF6FEF85E259
:1029400090E00E94F1346FEF86E290E00E94F13453
:102950006FEF87E290E00E94F13460E088E290E05F
:102960000E94F13401DEADDF65E285E290E00E9475
:10297000F13460E186E290E00E94F13462E087E2A7
:1029800090E00C94F134B0E0A0E0E9ECF4E10C94B8
:10299000003480900C0490900D04A0900E04B09030
:1029A0000F0480918F05882309F43FC00E942609F7
:1029B0006B017C01C818D908EA08FB080E94710C59
:1029C0004B015C0180920C0490920D04A0920E04C5
:1029D000B0920F04A091E303E3EEF3E08A2F90E0BE
:1029E0004FEF5FEF60E070E04C195D096E097F0901
:1029F000A9131EC08093E30380919505C82FC3706F
:102A000019F0C82FC695C695909188019130D1F1E3
:102A1000992309F1923009F425C1933009F42AC1B0
:102A2000CDB7DEB7E0E10C941C340E94710CC0CF2E
:102A3000218D328D2901712C612C441555056605B7
:102A4000770520F481509F5F3296D2CF2C0D3D1D2B
:102A5000328F218FF8CF109296018092910590923B
:102A60009205A0929305B092940589E2E3EEF3E01B
:102A7000A0E1B4E001900D928A95E1F781E08093A6
:102A80008801CECF90918701C91326C08370209111
:102A9000860130E091E08217130609F490E0892F57
:102AA00081708093980180919A0590919701981771
:102AB00039F08093970140E060E080E00E943D0B98
:102AC000C23009F498C050F4CC2309F45CC0C13082
:102AD00009F463C080E093C081E0E2CFC33009F421
:102AE000A3C0C430B9F7809196010E94070B082F4C
:102AF000D92F2091990531E0230F08F42FEF30E012
:102B000050E040E06FEF7FEF80E090E00E945434AF
:102B1000790110E0D12CC12C202F0D1708F051C0E5
:102B2000F801ED53FD4F808190919701892341F188
:102B3000409110044150042E000C550B47FF77C004
:102B4000C7013091990521E0320F08F43FEFA6014B
:102B5000839F080E411D939F400D511D1124490F65
:102B6000511D6091960570919705809198050E947E
:102B7000550B0E94770B472F282FC8010E94340B5A
:102B80000F5F1F4FC9CF809198018823C1F140E0AA
:102B900060E080E00E943D0B9DCF809196010E94F5
:102BA000070B082FD92F609196057091970580919A
:102BB00098050E94770BF62EE72ED82E10E00D1701
:102BC00048F080919005882309F445C081E0D53113
:102BD000B0F080CFF801ED53FD4F808190919701C7
:102BE000892331F02D2D4E2D6F2DC8010E94340BFD
:102BF0000F5F1F4FE4CF8BE19BE00E94010C90918F
:102C0000960121E0290F20939601811128C082E0CE
:102C10008093880180919801811121C0CC2341F1DA
:102C2000892F0E94070BFCCE84E69BE0E6CFFA01D9
:102C3000E05FFB4F818928130BC0FA01EE0FFF1FE5
:102C4000E05FFB4F818D928D8E159F0508F479CF43
:102C50004150510973CF81E0DA3288F23BCFC11184
:102C6000DFCFDECEC0938701837080938601F5DAD3
:102C700083E005CF80913904882351F048E050E08B
:102C800067E170E085E995E00E94E2341092390432
:102C9000C0909105D0909205E0909305F090940536
:102CA00080918F05882379F00E9426096C197D098F
:102CB0008E099F09603171058105910508F4B0CE38
:102CC00010928801ADCE0E94710CF0CFE5E9F5E0DD
:102CD00085E080838091990190919A01A0919B0158
:102CE00081839283A3838FE784838FEF858348E07A
:102CF00050E067E170E0CF010E94E23410923904A5
:102D00000895AB0124E630E0BC0188E70E94BC31A5
:102D100021E0892B09F020E0822F0895809198040A
:102D200090919B04911103C091E089270895882315
:102D300061F062E070E089E892E0E3DF811103C0B6
:102D40008091980408951092980480919804ECCF93
:102D5000CF93C091980480919B048823C9F00E946E
:102D60002609605A75418F4F9F4F6093940470936A
:102D700095048093960490939704C11107C062E074
:102D800070E087E892E0BDDF811105C0C091980432
:102D90008C2FCF91089581E080939804F7CFFC01A8
:102DA0006081718184E090E00C940B35B0E0A0E08C
:102DB000ECEDF6E10C9409347901C82F880FDD0B96
:102DC00041155105A9F0FE0193E0EE0FFF1F9A9502
:102DD000E1F7E050FF4F818192818F5B9C4F208112
:102DE00030E04217530708F49A01A9010E94B53454
:102DF000CE010E947A33D82E8823D1F00115110517
:102E0000B9F083E0CC0FDD1F8A95E1F7FE01E050B9
:102E1000FF4F438150E00417150708F4A801C05084
:102E2000DF4F6C817D816F5B7C4FC7010E94B534A1
:102E30008D2DCDB7DEB7E7E00C942534A2E0B0E0ED
:102E4000E4E2F7E10C940834C0909603D090970325
:102E5000E0909803F09099030E942609DC01CB01D1
:102E60008C199D09AE09BF0921E084369105A105A1
:102E7000B10508F420E0309194033983843691053C
:102E8000A105B10520F480915A03831321E08091BC
:102E900095038A83211105C090915B0311E0981777
:102EA000C1F010E000E030E020E042E050E0BE0180
:102EB0006F5F7F4F8AE07ADF182F882351F00E94DE
:102EC00026096093960370939703809398039093D9
:102ED0009903812F2296E8E00C942434A4E0B0E01A
:102EE000E4E7F7E10C940834C0908403D0908503A4
:102EF000E0908603F09087030E9426096C197D09F3
:102F00008E099F0911E0643671058105910510F164
:102F10000E94710C6E5F7F4F8F4F9F4F69837A8342
:102F20008B839C8310E000E030E020E044E050E040
:102F3000BE016F5F7F4F86E039DF182F882351F085
:102F40000E9426096093840370938503809386030F
:102F500090938703812F2496E8E00C9424344F92B9
:102F60005F926F927F92AF92BF92CF92DF92EF9279
:102F7000FF920F931F93CF93DF93B82E7B01A42E64
:102F8000E9016801FB0140805180628073800E94EA
:102F90002609641975098609970964367105810542
:102FA000910510F4AA2011F110E000E030E020E0DB
:102FB000A601BE018B2DFADEC82F882339F00E94AE
:102FC0002609F70160837183828393838C2FDF91BD
:102FD000CF911F910F91FF90EF90DF90CF90BF9016
:102FE000AF907F906F905F904F900895C1E0EECFCB
:102FF000A1E0B0E0EEEFF7E10C940C3480914405D1
:10300000898341E090917203981301C040E001E090
:1030100010E09E012F5F3F4F6AEA73E08EE09FDF72
:103020002196E4E00C942834A1E0B0E0EAE1F8E174
:103030000C940C348091980489832091650390E06E
:1030400041E02817190609F440E001E010E09E0174
:103050002F5F3F4F6EE973E08CE081DF2196E4E063
:103060000C9428340F931F9341E090915703809163
:10307000BE03981301C040E001E010E02EEB33E006
:103080006CE873E087E06BDF882381F041E090918A
:1030900058038091BD03981301C040E001E010E0A7
:1030A0002DEB33E068E873E088E059DF1F910F9162
:1030B0000895CF92DF92FF920F931F93CF93DF93E8
:1030C000F82E6B01EA01A801B901CE010E94A834D3
:1030D00041E0892B09F440E09E01B6018F2D3FDFCE
:1030E000DF91CF911F910F91FF90DF90CF900895C6
:1030F000ACE0B0E0EEE7F8E10C940C348091D20340
:103100009091D303A091D403B091D50389839A837E
:10311000AB83BC838091DD039091DE03A091DF033C
:10312000B091E0038D839E83AF83B8878091A20323
:103130009091A303A091A403B091A50389879A87D6
:10314000AB87BC870CE010E026E633E0AE014F5FB2
:103150005F4F66EA73E08DE0ACDF2C96E4E00C9400
:103160002834A9E0B0E0E7EBF8E10C940C3488E0F7
:10317000E5E9F5E0DE01119601900D928A95E1F7FF
:10318000198609E010E02CE533E0AE014F5F5F4F98
:103190006AE973E08BE08DDF2996E4E00C94283433
:1031A000A1E0B0E0E6EDF8E10C940C340E949D093A
:1031B000898301E010E029E533E0AE014F5F5F4F06
:1031C00060E973E089E075DF2196E4E00C9428342F
:1031D0000F931F9304E010E026E433E0AC016BE7AB
:1031E00073E082E066DF1F910F9108952F923F9266
:1031F0004F925F927F928F929F92AF92BF92CF92A7
:10320000DF92EF92FF920F931F93CF93DF930F9272
:10321000CDB7DEB7762E4A015901680101E010E012
:103220009E012F5F3F4F50E040E070E060E0BEDD68
:10323000182F882309F445C0F40120803180428092
:1032400053800E942609621973098409950964361E
:1032500071058105910538F4B701C6010E94BC09CA
:103260009981891771F18701950150E040E070E084
:1032700060E0872D9BDDB82EB701C6010E94BC0916
:1032800011E09981981310E01B2139F00E94260962
:10329000F4016083718382839383812F0F90DF9188
:1032A000CF911F910F91FF90EF90DF90CF90BF9043
:1032B000AF909F908F907F905F904F903F902F9016
:1032C0000895A701B601C5010E94B534E6CFA8E074
:1032D000B0E0EDE6F9E10C940A3488E0E82EF12C38
:1032E0000BE413E09E012F5F3F4F40E853E064E0A2
:1032F00083E07CDF182F8823B9F190914A038091F5
:103300007F03981789F1F12C90914E0380914D0322
:10331000891721F1E92FF0E0EB5BFC4F828587FBF9
:10332000662760F99F5F937090934E0390914C03D2
:103330009F5F90934C038F770E941E0AF82E811195
:10334000E3CF10E000E030E020E050E040E070E04B
:1033500060E085E02BDD182F1F2102C0F110F1CFB6
:1033600080914A0380937F03812F2896E6E00C9496
:103370002634A4E0B0E0EFEBF9E10C9408346B01E3
:1033800084E0E82EF12C02E413E09E012F5F3F4F12
:1033900047E753E061E080E029DF882361F049815D
:1033A0005A816B817C8140937303509374036093C3
:1033B0007503709376034091730350917403609189
:1033C000750370917603F6014083518362837383A2
:1033D0002496E8E00C942434CF93C82F9091BE0338
:1033E0008091BD03892B0E941B0F68EA71E0813038
:1033F00071F06CE971E0882351F06EEA71E082307F
:1034000031F064EB71E0833011F06BEB71E088EF29
:1034100092E00E94BE3468EF72E08AE394E00E947A
:10342000BE348C2F8670863021F48C2F8860CF912B
:1034300008958C2F877FFBCFCFDF8093BE03089545
:103440009091BE0321E030E0F90101C0EE0F8A95B2
:10345000EAF7D90102C0AA0FBB1F6A95E2F7EA2B6F
:1034600001C0220F4A95EAF7892F8E23E81303C083
:10347000292B822FE1CF20952923FBCF21E030E0BB
:1034800001C0220F8A95EAF720958091BE0382231E
:10349000D3CF21E030E001C0220F8A95EAF7809176
:1034A000BE03822BC9CF78941F921FB61F9211249E
:1034B0008F939F93AF93BF93809132059091330583
:1034C000A0913405B09135050196A11DB11D8093E1
:1034D000320590933305A0933405B0933505BF9121
:1034E000AF919F918F911F901FBE1F9018952FB77E
:1034F000F8948091320590913305A0913405B091F4
:1035000035052FBF0895CF93DF93EC01F0DF8C1BBF
:103510009D0BDF91CF910895EF92FF920F931F9330
:10352000CF93DF93C62FD42F022FFC0185818823F0
:10353000A1F060939F05DBDF90939E0580939D052E
:10354000C77081E001C0880FCA95EAF70E942E106B
:10355000CDB7DEB7E6E00C94263480919F05681362
:1035600035C0E0909D05F0909E05C1DF8E199F0942
:103570008A3A910558F510E21D0FCD17B9F080E297
:103580008C0F883040F4C77081E001C0880FCA9565
:10359000EAF70E942410183048F481E09D2F9770BC
:1035A00001C0880F9A95EAF70E942E1070E060E043
:1035B000802F0E948611183058F6D77081E001C024
:1035C000880FDA95EAF70E942410C2CFC77081E015
:1035D00001C0880FCA95EAF7F6CFA4E0B0E0E3EFA8
:1035E000FAE10C9407347C01FC018481882309F4FE
:1035F00077C061E0C7013ED98C01F70185810234B3
:10360000FEE71F0709F470C080F500343EE713079A
:1036100009F450C001344EE7140709F456C0F7010D
:103620009581992309F482C09801375720383105D4
:1036300008F0BBC3003108F053C066E372E080E0DD
:1036400090E011D881114CC0C12CD12C7601011110
:1036500059C0C982DA82EB82FC82BE016F5F7F4F64
:1036600080E493E10E949C113BC004349EE719075B
:10367000C9F008F43FC00534FEE71F0781F6882330
:1036800071F284E491E09A838983BE016F5F7F4F7A
:1036900083EB99E00E949C1170E060E088E20E9458
:1036A0008611BDCF8823E1F08091C00380FDB5C0B5
:1036B00081606DC08823A1F061E083E090E00E940A
:1036C000F13481E00E94180F0BC0882319F081E0CB
:1036D000E0DE02C081E0D2DE43E062E081E0B0DE05
:1036E0002496E9E00C942334882311F082E0F0CF93
:1036F00082E0F1CF882319F083E0CBDEF1CF83E0C5
:10370000BDDEEECFF7E3CF16F2E0DF06E104F10411
:1037100039F3C701B6010E943313811101C0015072
:103720002FEFC21AD20AE20AF20A91CFF801E85149
:10373000FC47E730F10508F021C3EF5EFA4C0C942A
:10374000703426E241EE61EEC701E6DEC9CF27E222
:1037500045EE65EEF9CF26E241EE60EEF5CF27E2C9
:1037600045EE64EEF1CF26E241EE62EEEDCF27E2C8
:1037700045EE66EEE9CF28E241E0EBCF8091BF0352
:1037800081608093BF0394C08091C0038860809360
:10379000C0038EC08091BF038260F3CF8091BF03CE
:1037A0008460EFCF8091BF038860EBCF8091C0032E
:1037B0007FCF8091C0038260EACF8091BF03806198
:1037C000E0CF8091BF038062DCCF8091BF03806433
:1037D000D8CF0E9412108091BF038068D2CF809111
:1037E000BF038C60CECF8091C0038360D0CF809127
:1037F000BF038E7FC6CF8091C003877FC8CF8091E3
:10380000BF038D7FBECF8091BF038B7FBACF8091E6
:10381000BF03877FB6CF8091C0038E7FB8CF8091E2
:10382000C0038D7FB4CF8091BF038F7EAACF8091DC
:10383000BF038F7DA6CF8091BF038F7BA2CF0E9455
:1038400012108091BF038F779CCF8091BF03837F3D
:1038500098CF8091C0038C7F9ACF8091BF0382FB69
:10386000992790F921E0922790FB82F990FB83F948
:1038700088CF8091C003982F909591708E7F892B6F
:1038800090FB81F984CF9091BF03892F8F7B96FFA6
:10389000806477CF0E9412109091BF03892F97FB0D
:1038A00087F980586ECF61E08EE090E00E94F1349D
:1038B0008FEB93E074DA0E94121012CF60E0F4CF25
:1038C0009091BF03892F8F7E94FF80615ACF909192
:1038D000BF03892F8E7F90FF816053CF9091C003EB
:1038E000892F877F93FF886052CF85E351C2827210
:1038F000F801E052F847EB30F10508F01DC2E85E30
:10390000FA4C0C94703481E00E94F90AE9CE8823C5
:1039100089F10E94CD0AE4CE882389F10E94A20A8F
:10392000DFCE882389F10E948A0ADACE882389F1C2
:103930000E94720AD5CE882389F10E94430AD0CE14
:10394000809194038272F801E054F847ED30F1055C
:1039500040F5ED5DFA4C0C9470340E94EC0A8091B5
:103960003904816080933904BBCE0E94E00AF7CF0E
:10397000882379F20E94D60AB3CE882379F20E9476
:10398000AB0AAECE882379F20E94960AA9CE88238C
:1039900079F20E947E0AA4CE882379F20E94510A0D
:1039A0009FCE07374CE7140709F494CE08378CE70D
:1039B000180709F49DCE9801205E3245203231056A
:1039C00098F4911133C00F7181E090E0FC0102C0C6
:1039D000EE0FFF1F0A95E2F78F016E2F83E090E054
:1039E0000E94F134802F6ECE992301F10130FCE763
:1039F0001F07D1F003302CE7120781F001151C4797
:103A0000A9F40E9412104FEF84E39CE041508040E3
:103A10009040E1F700C000000E9415096FEF7FEFB2
:103A200090E080E00E940B350E944812F70100816F
:103A30001181992309F1C8010E94E113D82E682F42
:103A4000C8010E94FF0EB8018D2D0E94C6130E946E
:103A50007A0D182FB82EF7012581368132953F70E7
:103A6000892F82958F70C82ED12C8C30E8F5F60105
:103A7000E05DFA4C0C947034C8010E94BB0ED82E45
:103A8000E2CF092F0F70907F11F00295007F812FF8
:103A90002223C9F0002369F090E2910F983010F0D2
:103AA00011110BC080919403082B009394030E9482
:103AB000E90F812F0E946D1017C080919503082B8C
:103AC00000939503F4CF0E943710002369F000950E
:103AD000105E183010F0B11015C0809194030823C7
:103AE000009394030E94E90F48E0C41AD10884E0CF
:103AF000C816D10410F40E949D0960E0C7010E941D
:103B00003A14EECD80919503082300939503EACFF4
:103B1000892F8F70907F903211F08295807FF1E035
:103B2000BF120CC0222329F03630F0F60E942E106E
:103B3000DBCF3530C8F60E942410D6CF222319F0EF
:103B40003323A1F3B6CF3323B1F3193349F42FEF65
:103B500037EE43E0215030404040E1F700C0000024
:103B6000812F0E943710C0CF892F8695869583704C
:103B700061F0813009F0B8CF812F9370211102C01C
:103B800080E090E00E944F09AFCF812F9370211108
:103B900002C080E090E00E947609A6CF892F837052
:103BA000A1F52111A1CF812F829586958770880F6D
:103BB000880F412F4F70082E01C0440F0A94EAF776
:103BC000212F207114FF07C02FE030E001C0220F29
:103BD0008A95EAF72095969596959370923081F0A4
:103BE000822F842B933030F48091BD03913029F0E3
:103BF000242B82230E94180F77CF842B822BFACF9D
:103C0000242B8091BD038227F5CF8695222311F0C6
:103C1000892F8170882309F467CF812F829586953B
:103C20008770880F880F412F4F70082E01C0440FF6
:103C30000A94EAF7212F207114FF07C02FE030E02B
:103C400001C0220F8A95EAF7209596959695937074
:103C5000923079F0822F842B933030F48091BE0320
:103C6000913021F0242B8223E7DB3ECF842B822B63
:103C7000FBCF242B8091BE038227F6CF092F0F7034
:103C8000222321F0802F05DC812F50CF812F0E942D
:103C90002410802FF3DB28CF812FE1EF1E1789F14D
:103CA000E11750F0F0EF1F17B9F02223A9F13111FD
:103CB00000CF892F8F7129C042EF141741F1E3EF34
:103CC0001E13F3CF80E0222379F29F7181E001C0BF
:103CD000880F9A95EAF7C8CF222379F0353008F09B
:103CE00003CF292F2F7181E090E001C0880F2A9522
:103CF000EAF79091BE038927B7CF363008F0F4CEAB
:103D0000F0CF892F8F71222329F2C3DBEDCE892FCB
:103D10008F712223D1F3BECF332359F0893309F0B9
:103D20001FCFFFEF27EE33E0F15020403040E1F7A6
:103D300015CF892F8F71AECF0737ECE71E0709F437
:103D4000C6CC0837FCE71F0709F4D0CC34CE8091ED
:103D5000940306312CE7120709F0C9CD8A7A91E065
:103D600009F490E09093100369E2811165E380EF1C
:103D700092E00E9435090E94E90FB2CC06313CE77F
:103D8000130709F0DDCD809110038111AECD89E2DA
:103D9000E2EFF2E09191891303C0DF0111971C92C9
:103DA00032E0E83FF307B1F7E6CFF801E851FC470E
:103DB000E730F10508F4C1CC10929F059801305707
:103DC0002332310520F684E090E00E94DD349093A8
:103DD000C0038093BF03F801E150F047E232F105E0
:103DE00008F0CCCCE45CFA4C0C947034CF93DF93A5
:103DF00080912C03807F09F04CC080912B03882395
:103E000009F447C0E0918E0550915505C0912703F4
:103E1000D0912603609128037091290347E05E1733
:103E2000C1F18E2F90E0E49FF0011124EA5AFA4F7D
:103E30002481222389F1489FF001499FF00D11242C
:103E4000DF01AA5ABA4F11962C9111972C1324C056
:103E50002C912D1321C015962C91159721111CC062
:103E600012962D913C91261B370B2A3A3105A0F46E
:103E700080912C038F70806180932C03E45AFA4F59
:103E800080818F708061808386E293E0A6DB0E9450
:103E90008A0EDF91CF910895FC013196E770BFCF74
:103EA000A4E1B0E0E6E5FFE10C9404348C0186E087
:103EB000F801DE011F9601900D928A95E1F7F80155
:103EC0008481E58096E2A92E93E0B92E90912A0391
:103ED000911126C0882309F1EE20E9F0C8010E9463
:103EE0001814F82E8823B9F087E0F801D501019065
:103EF0000D928A95E1F780912A03813031F4809107
:103F00002603909127030E940E1470DF8F2D649674
:103F1000ECE00C942034C80160DBFF24F394F6CF6E
:103F2000D080C18082809380F0902B032091280361
:103F300030912903A401421B530BFF2009F4D3C085
:103F40004A3A510508F08EC0882301F39091270367
:103F500080912C03282F207F09F054C0C91213C070
:103F600090912603D9120FC0E11046C08F70806176
:103F700080932C0386E293E030DB80912C03F801E0
:103F80008683F12CC3CFE11037C06C2D8D2D0E949C
:103F90009B076C2D8D2D0E949B07E82E8111F1CF80
:103FA000DF86C88A8F8598890E940E14292F229552
:103FB0002F70243058F49F70223080F0992391F0B4
:103FC000F8019681907F71F4FE2CA0CF2A5F2F70AC
:103FD000223060F0C80101DBEF2CF6CF992311F0FD
:103FE000882391F3805E883078F3F4CF803F60F3CC
:103FF000815F833078F7E8CF80912C0381608093D4
:104000002C03BFCFC91207C090912603D91203C059
:10401000EE2009F489C0C8010E941814882309F40D
:104020007ACFEE2009F477CF80912C03803280F094
:104030002091260330912703398728879B868A861B
:1040400090912A039C871D868E87CE010896C5DA3B
:1040500087E0F801A6E2B3E001900D928A95E1F7BE
:10406000C5DE5BCF90912C03292F207F49F486E297
:1040700093E0B3DA87E0F50111928A95E9F781CFF1
:10408000882309F443CF809127038C110FC08091BE
:104090002603D8120BC0E11009C09683C8019DDA2F
:1040A00087E0F50111928A95E9F730CFC8010E94A7
:1040B0001814882309F42FCFEE2009F42CCF809117
:1040C0002C03803228F220912603309127033A8373
:1040D00029839C828B8290912A039D831E828F83E9
:1040E000CE010196B4CF4A3A5105D0F6882309F49F
:1040F00014CFFE2CEE2009F40ECF809127038C11F3
:104100001FC080912603D8121BC080912C0380FD14
:104110000EC0982F907F59F08683903F31F0982FF2
:10412000907F905F8F70892B8683C80156DA87E075
:10413000F801A6E2B3E001900D928A95E1F7E6CE90
:10414000C8010E941814811183CF80912C038160D3
:1041500080932C03C80141DAD9CEABE1B0E0E3EBA8
:10416000F0E20C940D344E8B5F8B688F798F8A8FC1
:104170009B8F9111109295031D8A86E0FE01769621
:10418000DE011F9601900D928A95E1F78B898823B5
:1041900051F061E0CE010F960E943A1461E0CE0129
:1041A0000F960E943A1487E0FE013F96DE011896B2
:1041B00001900D928A95E1F7CE01089671DE81118A
:1041C0000CC087E0FE013896DE01119601900D9239
:1041D0008A95E1F78C8581110BC017E080918E05DF
:1041E00090915505891331C06B96E3E00C94293406
:1041F0002091550530E0C9010196877099274091BB
:104200008E054817190699F097E0929FD001939F69
:10421000B00D1124AA5ABA4FFE01319601900D92A9
:104220009A95E1F7809355050E948A0ED6CF0E9499
:1042300012101092550510928E0587E0E6E2F3E029
:10424000DF011D928A95E9F7C8CF819FC001112433
:104250008A5A9A4F25DE882339F280918E0590E0A4
:1042600001968770992780938E05B8CF30913005DD
:1042700020912C05321720F420912C052093300535
:104280006093290570932A0580932B0590932C0544
:104290002ED9909343058093420581E08093410598
:1042A0000895AAE2B0E0E7E5F1E20C940A348DE467
:1042B00095E02091F100FC012193CF01F5E08535D7
:1042C0009F07B9F780914E05833009F47BC0B8F49D
:1042D000813009F452C0823009F4D2C08091E800E4
:1042E00083FF5AC180914D0590914E059A3008F098
:1042F00053C1E92FF0E0E25AFA4C0C9470348A3042
:1043000009F4A4C08B3009F47AC0893039F7809160
:104310004D05813219F78091510590915205009712
:1043200011F00297D9F68091E800877F8093E8002A
:104330008091E80082FF41C09091F3008091F200EB
:10434000029731F48091F100813011F0863069F4E8
:104350008091F1008093930160919201709193019B
:10436000809194019091950181DF8091E8008B7795
:104370008093E8000E940A08B1CF80914D05813AF0
:1043800009F0ACCF8091E800877F8093E8008091AE
:10439000510590915205892B61F468E087E395E01F
:1043A00070E00E94B5088091E8008B778093E80068
:1043B00095CF60E090E080E0F3CF80914B058111D4
:1043C000B7CF8CCF80914D05813A09F087CF80918E
:1043D000510590915205892B09F080CF8091E8001A
:1043E000877F8093E8008091E80080FFFCCF809178
:1043F00094018093F1008091E8008E77B9CF80918D
:104400004D05813209F06ACF809151059091520596
:10441000892B09F063CF8091E800877F8093E800C3
:104420000E940A0881E090914F05911101C080E03F
:104430008093940160919201709193018091940115
:104440009091950113DF0E94121048CF80914D0585
:10445000813209F043CF8091E800877F8093E800A4
:104460000E940A0880915005809392016091920108
:10447000709193018091940190919501F7DE2ECF78
:1044800080914D05813A09F029CF8091E800877F1E
:104490008093E8008091E80080FFFCCF809192013A
:1044A000A8CF803899F0823809F076C08091510504
:1044B0008F70873008F070C08093E9008091EB0026
:1044C00085FB882780F91092E90006C080913F059E
:1044D00090914005911182609091E800977F9093B0
:1044E000E8008093F1001092F1008091E8008E774F
:1044F0003CC2882309F429C2823009F04DC0809162
:104500004F0581112DC2809151058F702FEF280F1B
:10451000263008F041C08093E9002091EB0020FF95
:104520001FC2933031F48091EB0080628093EB00E6
:1045300017C29091EB0090619093EB0021E030E086
:1045400001C0220F8A95EAF72093EA001092EA0050
:104550008091EB008860EACF81111EC010914F0559
:104560001F778091E3008078812B8093E300809116
:10457000E800877F8093E8000E940A088091E800A5
:1045800080FFFCCF8091E30080688093E30082E0AD
:10459000111183E080934B058091E80083FF0AC0EE
:1045A0008091E800877F8093E8008091EB00806233
:1045B0008093EB00AA96E6E00C9426348058823073
:1045C00058F720914F05309150052C3D43E03407BA
:1045D000A1F583E08A838AE289834FB7F894DE01EC
:1045E000139620E03EE051E2E32FF0E050935700B5
:1045F000E49120FF03C0E295EF703F5FEF708E2FD4
:1046000090E0EA30C0F0C7968D939D932F5F2431E0
:1046100059F74FBF8091E800877F8093E8006AE2F6
:1046200070E0CE0101960E94B5088091E8008B777A
:104630008093E800B1CFC096E7CF8091510590916B
:104640005205432F55274330510549F178F4413045
:10465000510509F4F1C04230510509F09DCF0BE539
:1046600010E082E7E82E88E0F82EC3C04132510501
:1046700009F4B2C04232510509F08ECF8330910562
:1046800008F08ACFFC01EE0FFF1FED5CFD4FE080CC
:10469000F180805D9D4FFC01008110E096C03327C2
:1046A0002130310509F450C02115310509F442C00B
:1046B0002230310509F452C010E000E0F12CE12C69
:1046C0004091530550915405809145058F5F80932B
:1046D000450550934A05409349054230510509F07C
:1046E00047C0909146059F5F90934605833008F43C
:1046F00063C020914805223030F090914705911118
:1047000069C08217A9F090914605853008F443C02E
:104710004F3F510509F048C0222309F447C083E008
:10472000923008F03EC080914705982B09F044C0B4
:1047300081E037C0E5E0F9E0E4910E2F10E065E09C
:10474000E62E69E0F62EBCCFEBEEF8E0E4910E2FFA
:1047500010E05BEEE52E58E0F52EB2CFEFEDF8E07D
:10476000E4910E2F10E04FEDE42E48E0F42EA8CF98
:104770004430510531F4909147059F5F9093470570
:10478000B5CF4F3F510509F0B1CF909148059F5FDC
:1047900090934805ABCF843039F42111C4CF9230C7
:1047A00029F48093440508C02111BDCF933021F432
:1047B000809147058130A9F30E94771A90934305B1
:1047C0008093420581E0809341050115110509F4AC
:1047D000E3CE0FC082E0E5CF8330910508F0DCCE58
:1047E000880F991FFC01E75CFD4FE080F18009E034
:1047F00010E08091E800877F8093E8008091530566
:10480000909154050817190708F4C80140E0009773
:10481000D1F4411118C08091E80082FD06CF80914B
:104820004B05882309F401CF853009F4FECE809131
:10483000E80083FFF0CFF9CE02E110E09DECE92E15
:1048400098E0F92ED6CF20914B05222309F4EDCE26
:10485000253009F4EACE2091E80023FDE6CE209130
:10486000E80022FDD8CF2091E80020FFD0CF309182
:10487000F3002091F200009719F02830310558F02C
:1048800041E02830310509F040E02091E8002E7722
:104890002093E800BCCFF70144914093F100FFEF73
:1048A000EF1AFF0A01972F5F3F4FE5CF803809F0DD
:1048B00073CE8091E800877F8093E80080914C055B
:1048C0008093F10012CE811167CE10914F05123006
:1048D00008F062CE8091E800877F8093E800109313
:1048E0004C050E940A08112311F084E005C0809154
:1048F000E30087FDFACF81E080934B0542E061EC55
:1049000081E00E94290842E261EC84E00E942908CB
:1049100042E261EC82E00E94290842E260EC83E01E
:104920000E94290880914B05843069F081E08093D2
:104930009501609192017091930180919401909101
:10494000950194DC29CE82E0F2CF80914F05813031
:1049500009F022CE81E0933009F080E08093400599
:104960001092E9008091E800877F8093E8000E9420
:104970000A0812CE1F920F920FB60F9211242F9396
:104980003F934F935F936F937F938F939F93AF93D7
:10499000BF93CF93DF93EF93FF93D091E900DF7044
:1049A0008091EC00C82FC17080FDC0E81092E90032
:1049B0008091F000877F8093F000789472DC1092F1
:1049C000E9008091F00088608093F000CD2BCF70DB
:1049D000C093E900FF91EF91DF91CF91BF91AF912B
:1049E0009F918F917F916F915F914F913F912F9107
:1049F0000F900FBE0F901F9018951F920F920FB639
:104A00000F9211242F933F934F935F936F937F9354
:104A10008F939F93AF93BF93CF93EF93FF93809127
:104A2000E10082FF09C08091E20082FF05C0809111
:104A3000E1008B7F8093E1008091DA0080FF24C049
:104A40008091D80080FF20C08091DA008E7F809313
:104A5000DA008091D90080FFCFC080E189BD82E17A
:104A600089BD09B400FEFDCF81E080934B058091A4
:104A70003605811109C00E94BA070E945B08809127
:104A8000E20084608093E2008091E10080FF23C017
:104A90008091E20080FF1FC08091E2008E7F8093B2
:104AA000E2008091E20080618093E2008091D80072
:104AB00080628093D80019BC85E080934B0583E029
:104AC000809395016091920170919301809194017E
:104AD00090919501CBDB8091E10084FF39C08091FA
:104AE000E20084FF35C080E189BD82E189BD99B5CE
:104AF000892F817090FFFBCF9091D8009F7D90937C
:104B0000D8009091E1009F7E9093E1009091E200A7
:104B10009F7E9093E2009091E20091609093E2007A
:104B200090914C05992309F46DC094E090934B0546
:104B300090914B05943009F482E080939501609147
:104B400092017091930180919401909195018EDB77
:104B50008091E10083FF3EC08091E20083FF3AC074
:104B60008091E100877F8093E10082E080934B0594
:104B700010924C058091E1008E7F8093E10080913E
:104B8000E2008E7F8093E2008091E200806180935A
:104B9000E20042E060E080E00E9429088091F0009D
:104BA00088608093F000C1E0C0939501609192010C
:104BB00070919301809194019091950157DBC0937E
:104BC0009401609192017091930180919401909170
:104BD00095014CDBFF91EF91CF91BF91AF919F91E8
:104BE0008F917F916F915F914F913F912F910F9096
:104BF0000FBE0F901F90189519BC10924B05109284
:104C0000360542CF9091E30097FD02C0982F8ECFDA
:104C100093E08CCFACE0B0E0E0E1F6E20C94073436
:104C200080E00CEF93E0F92EEE24E3942DEFD22EEA
:104C300032E0C32E90919F0420919E04291709F41D
:104C400046C0E92FF0E0E056FB4F108117FBBB2474
:104C5000B0F81F779F5F937090939F0480919D049D
:104C60008F5F80939D04B11008C00E94771A1F8344
:104C700008879A878987FB8607C00E94771A1F8357
:104C8000D8869A878987CB86EC864F815885698537
:104C90007A858B859C8561DABB2089F00E94771A22
:104CA0001983DA829C838B83CD821E8249815A814B
:104CB0006B817C818D819E8150DA81E0BBCF0E9427
:104CC000771A19830A839C838B83FD82EECF2C96FF
:104CD000E9E00C9423342F923F925F926F927F927F
:104CE0008F929F92AF92BF92CF92DF92EF92FF92FC
:104CF0000F931F93CF93DF9380919B04882309F434
:104D00008BC0C0919904D0919A040E94771A8C1B91
:104D10009D0BC29708F460C00E94771A90939A0482
:104D20008093990483EA95E09093AA098093A90956
:104D300080918F05882309F481C08AE394E00E9462
:104D4000BB1081E00E94B80F8CEB92E00E94AB0F89
:104D500081E00E94B80FC0914405C35089EB92E0F6
:104D6000C23010F086EB92E00E94AB0F88EA92E02E
:104D70000E94AB0F81EA92E00E94AB0F8EE992E0B5
:104D8000C23010F08BE992E00E94AB0F88EA92E00B
:104D90000E94AB0F84E992E00E94AB0F8CEB92E093
:104DA0000E94AB0F81E00E94B80F82EC91E00E945C
:104DB000BB100E949D09C82F81E992E0C0FD02C08E
:104DC0008EE892E00E94AB0F8BE892E0C1FD02C03A
:104DD0008EE892E00E94AB0F8091A1059091A20510
:104DE000892B09F058C0809198048823A9F00E946B
:104DF0002609009194041091950420919604309115
:104E00009704601B710B820B930B6F3F7F4F8F4F8B
:104E10009F4710F40E948E16DF91CF911F910F9142
:104E2000FF90EF90DF90CF90BF90AF909F908F90CA
:104E30007F906F905F903F902F9008952091A105F3
:104E40003091A205A3EAB5E090E080E041E050E0B7
:104E5000FC01EE52FD4FE4916D91E61791F0ED01EA
:104E60002197E883BC01E6E076956795EA95E1F73E
:104E7000EA0102C0CC0FDD1F6A95E2F7BE012C2BC0
:104E8000372B01968115D4E09D0711F73093A205C9
:104E90002093A105A1CF80919B04882309F4A3CF7F
:104EA0008091930481119FCF0E94A8162091A105A3
:104EB0003091A2052115310509F495CF80E041E03C
:104EC00050E0082F10E01A01082E02C0220C331CFB
:104ED0000A94E2F7B10162237323672B11F48F5F09
:104EE000F0CF9091920490FF95C0880F880F880FA3
:104EF00080938B0110928E01895F80938C0187E0F3
:104F000080938F0124E630E047E050E069E871E0EB
:104F100088E70E947D31892B09F065CFA80126E042
:104F2000440F551F2A95E1F78091920480FF83C0BA
:104F3000E2E5F4E080E4DF011D928A95E9F7A8E25A
:104F4000B2E000E212E080E3C82E82E0D82E97E0C3
:104F5000592E772473948D91E80129918E01240FA5
:104F6000352F311D2D553A4FE82FF0E0EE5AFB4F0B
:104F700090E080E0652C681A872C082E01C0880C10
:104F80000A94EAF77901A12CE701B9907E01B820D3
:104F9000662D6A196770962E062E000C770BDB2D96
:104FA00001C0DD0F9A94EAF77195619571096770F8
:104FB000772701C0B6946A95EAF7BD2A6081962EDC
:104FC0009B289082A39468E0A612DECF01963196CA
:104FD0008830910579F6CA16DB0609F0BCCF04E6E5
:104FE00010E020E430E042E554E060E488E70E940D
:104FF000FD31892B09F0F7CEE101C095D095809164
:10500000A1059091A205C823D923D093A205C093EE
:10501000A105E9CE8295880F880F807480938B015B
:1050200098013695279520938E01815C80938C01A1
:1050300020938F0167CF4D555A4F04E610E020E4CE
:1050400030E0D3CFACE0B0E0E8E2F8E20C94033417
:105050008E010F5F1F4F88E0D8011D928A95E9F7F6
:1050600086E0C82E82E0D82EF12CE12CAA24A3944D
:10507000B12C20E1822E22E0922EF60181916F0167
:105080008F3F09F442C0F894E82FE295EF70F0E00A
:1050900021A18F70A50102C0440F551F8A95E2F728
:1050A000CA01922F982B91A392A18095892382A364
:1050B000789400C0EAE0F2E0712C31E021912F3FBA
:1050C00009F4F0C0A22FA295AF70B0E090968C9139
:1050D00090E02F7002C0959587952A95E2F780FDA4
:1050E000E1C0832F782A330F8E169F0639F7F60119
:1050F000319780818F3F11F00E945A0C50EA5A95E7
:10510000F1F7F801EE0DFF1D70828FEFE81AF80A33
:1051100094E0E916F10409F0B0CF48E050E0B8019E
:1051200083EB93E00E94A834009741F028E0F80157
:10513000A3EBB3E001900D922A95E1F70091BC0337
:1051400010E00F531C4F892B09F4AEC081E080930F
:1051500039030E94771A9093380380933703F12C18
:10516000E0908F05EE2009F4FDC019861A861B8693
:105170001C868091AE038A3008F0BCC049EB59E12F
:10518000BE01675F7F4FC8010E945311882309F455
:10519000D8C048EE58E1BE01675F7F4FC8010E944A
:1051A0005311882309F4CDC047E659E1BE01675F7A
:1051B0007F4FC8010E945311882309F4C2C04EE6F4
:1051C00057E1BE01675F7F4FC8010E9453118823DA
:1051D00009F4B7C042E358E1BE01675F7F4FC801E1
:1051E0000E945311882309F4ACC040ED58E1BE0180
:1051F000675F7F4FC8010E945311882309F4A1C043
:105200004EE157E1BE01675F7F4FC8010E94531115
:10521000882309F496C041EB58E1BE01675F7F4FD8
:10522000C8010E945311882309F48BC044E158E15E
:10523000BE01675F7F4FC8010E945311882309F4A4
:1052400080C048E758E1BE01675F7F4FC8010E94F8
:105250005311882309F475C048EF57E1BE01675F19
:105260007F4FC8010E945311882309F46AC010922D
:10527000AE038091BB0390E044E050E0BE01675F65
:105280007F4F8F539C4F0E94A83421E0209340030E
:10529000892B09F048C0E12C8E2D8F292C96EDE04A
:1052A0000C941F3480E01ECFF0903903FF2009F4E6
:1052B00056CFC0903703D09038030E94771A8C19CC
:1052C0009D09059708F44BCF44E050E063EB73E091
:1052D000C8010E94A834892B59F084E0E3EBF3E085
:1052E000D80101900D928A95E1F71092390338CFD9
:1052F000F12CFBCFC0903A03D0903B030E94771A69
:105300008C199D09843F914008F038CF809140036B
:10531000882309F2FE01399684E0DF011D928A9507
:10532000E9F710924003E091BB03F0E0EF53FC4F2C
:1053300089859A85AB85BC8580839183A283B3835D
:10534000ABCF8091AE038F3F31F08F5F8093AE0380
:105350008A3008F48ECF0E94771A90933B03809393
:105360003A03D4CFC090BB03D12CF601EF53FC4FCE
:105370006F0184E0F801A2E4B3E001900D928A95F8
:10538000E1F764E070E082E493E00E94BC0980935E
:10539000410384E0E6E4F3E0D60101900D928A95A2
:1053A000E1F788E0ECE9F4E0ABE4B3E001900D92C2
:1053B0008A95E1F768E070E08BE493E00E94BC0915
:1053C00080934A038090530390905403A090550318
:1053D000B090560380913C0390913D03A0913E0311
:1053E000B0913F0388169906AA06BB06B1F08092D9
:1053F0003C0390923D03A0923E03B0923F030E9473
:105400002609861A970AA80AB90A8092AF039092D1
:10541000B003A092B103B092B2038091570380937E
:10542000BE03809158038093BD03809159038093FC
:10543000220580915B0390915A039093940380938B
:10544000950388E0ECE5F3E0A5E9B5E001900D9265
:105450008A95E1F780916503882309F440C00E9492
:10546000A81680916E0390916F03A0917003B09184
:10547000710340916A0350916B0360916C037091CA
:105480006D030091660310916703209168033091CA
:1054900069030093D2031093D3032093D403309372
:1054A000D5034093DD035093DE036093DF037093D5
:1054B000E0038093A2039093A303A093A403B0936B
:1054C000A50380917203809344050E94771A9093FC
:1054D00043058093420581E080934105DDCE0E9423
:1054E0008E16BFCFA6E0B0E0E8E7FAE20C940C34E9
:1054F0000E94771A8C0180913503909136038017B2
:10550000910781F019821A820E94771A682F4981C7
:105510005A81792F80E090E00E94AD2010933603ED
:10552000009335032696E4E00C9428341F921FB6AE
:105530001F9211248F939F93AF93BF938091310556
:10554000811113C08091320590913305A0913405EB
:10555000B09135054196A11DB11D80933205909300
:105560003305A0933405B0933505BF91AF919F915A
:105570008F911F901FBE1F901895CDB7DEB7AA97C9
:105580000FB6F894DEBF0FBECDBF85B7806885BF6C
:1055900085B7806885BF84B7877F84BF0FB6F894CE
:1055A000A8958091600088618093600010926000EF
:1055B0000FBE80E890E00FB6F8948093610090935E
:1055C00061000FBE81E0809395016091920170911E
:1055D000930180919401909195010E94362184E578
:1055E0009CE09093EF028093EE020E94BA070E9423
:1055F0005B088091E20084608093E200789480915F
:105600004B058823A1F01091E9001F709091EC00E8
:10561000892F817090FD80E8182B1092E90080910D
:10562000E80083FD0E9451211F701093E90082E081
:1056300084BD93E095BD9AEF97BD80936E00109264
:10564000AF031092B0031092B1031092B2030E9404
:105650001413811102C00E949E148091D8008061B1
:105660008093D8002AE12A95F1F700C08091D900F3
:10567000182F117080FD04C00E94BA0710924B05CC
:1056800010938F0581E081278093900580937801A6
:1056900011114DD7ECE9F4E088E0DF011D928A9505
:1056A000E9F78091780191E089278093D803809170
:1056B00078019093DB0380917801809178018111CA
:1056C00006C084EF8093900185EF8093910160E0A4
:1056D00080E00E94FB0961E080E00E94FB09EFE8A6
:1056E000F1E03197F1F700C0000010E08091DB039A
:1056F000181708F49CC0809178018091780194E09B
:10570000811190E09093BC0384E0891B8093BB03DC
:1057100086E60E945A0C87E90E945A0C86EC0E9489
:105720005A0C84E30E945A0C0AE012E090E1E92E40
:1057300092E0F92ED8018D918D018F3F11F00E94DA
:105740005A0CE016F106B1F788E0E1ECF3E0DF0176
:10575000282F1D922A95E9F7E3EBF3E0DF011D9274
:105760008A95E9F790E080E00E94DD34833E9E4F09
:1057700021F40E941413811138C063EE7EEF90E093
:1057800080E00E940B3560E082E090E00E94F134FE
:1057900081E08093BD0361E083E090E00E94F134FA
:1057A0001A8219828A8184618A83CE0101960E94BD
:1057B000CF160E9466160E949E1440E050E0BA0187
:1057C0008FE090E00E94033540E050E0BA0183E1B1
:1057D00090E00E94033548E050E067E170E085E921
:1057E00095E00E94E2341092390482E090E00E9439
:1057F000D5348093C90384E090E00E94DD34909317
:10580000C0038093BF031EDCEFE3FCE93197F1F79F
:1058100000C0000017DC8091C10380FF1AC06FEF49
:105820007FEF90E080E00E940B350E94150960E058
:10583000812F0E94DF09082F61E0812F0E94DF097C
:10584000E12FF0E0E752FC4F880F802B80831F5F31
:105850004DCF83E090E00E94D5340E94180F8091D4
:10586000BE030E94EC190E94DD09109210048FEF14
:105870009FEF90932A048093290490932C048093A3
:105880002B0490932E0480932D04909330048093E6
:105890002F049093320480933104909334048093C6
:1058A00033049093360480933504909338048093A6
:1058B00037041092E3039093FD038093FC039093CD
:1058C000FF038093FE039093010480930004909360
:1058D000030480930204909305048093040490933E
:1058E000070480930604909309048093080490931E
:1058F0000B0480930A0481E08093390448E050E06F
:1059000067E170E085E995E00E94C53410923904A2
:10591000809195058C7F11F40E94661682E0809339
:10592000920480E88093A005B4D46BE070E08CE72B
:1059300091E00E9481168823E9F18091920465E04C
:1059400070E081FD24C187E791E00E9481168823E1
:1059500089F16DE070E085E691E00E948116882370
:1059600049F10E942609605A75418F4F9F4F6093FD
:105970009404709395048093960490939704E3EABB
:10598000F5E080E094E0DF019C011D922150304061
:10599000E1F7F093AA09E093A9098FEF9FEF9093A5
:1059A000A2058093A10581E080939B0480939804D5
:1059B0001092930480918F05811101C0BBD53FEFF8
:1059C00083ED90E3315080409040E1F700C000004B
:1059D000809144058350823048F48091C0038160F7
:1059E0008093C0038FEB93E00E94CF1689E791E08C
:1059F000909326058093250580914B05853069F4A9
:105A000010E400E182E1F82E80914B05853009F425
:105A1000C1C00E9412100E949D0914DB8AEC93E021
:105A200098A78FA3A1ECB3E0BAA7A9A7FC01919115
:105A30008D9123E0E23DF20709F4E3C09817B9F332
:105A400020908F05BFE3AB2EB2E0BB2EE12CA9A5C1
:105A5000BAA59D90BAA7A9A7EFA1F8A56190F8A74C
:105A6000EFA3691409F47FC069242501812C7724F0
:105A70007394872D862109F46AC0F72CF92022201F
:105A8000A1F089A2EAA20E94771A9CA38BA3F1E05D
:105A9000FDA391E0F11001C090E09EA349A15AA19D
:105AA0006BA17CA18DA10E94AD20FF2041F0D2010D
:105AB0008C91F12C8F3F19F0382EFF24F3940F2D89
:105AC00010E08091E303800F912F911D09974CF115
:105AD000E8E0CE2ED12CC01AD10AB8016C517C4F0F
