:100000006BC7000086C7000084C700000C94303125
:1000100080C700007EC700007CC700007AC70000D0
:1000200078C7000076C700000C9451230C940E236F
:100030000C94EC286EC700006CC700006AC7000073
:1000400068C7000066C7000064C7000062C7000000
:1000500060C700000C94B71A5CC700005AC70000C4
:1000600058C7000056C7000054C7000052C7000020
:1000700050C700004EC700004CC700004AC7000030
:1000800048C7000046C7000044C7000042C7000040
:1000900040C700003EC700003CC700003AC7000050
:1000A00038C7000036C7000034C7000005010980CA
:1000B000A101850319012AB700150126B700950192
:1000C00075108100C0050C0901A101850419012AE0
:1000D000A002150126A002950175108100C00660DE
:1000E000FF0961A1010962150026FF00952075082E
:1000F00081020963150026FF00952075089102C052
:1001000005010906A101050719E029E715002501E8
:10011000950875018102950175088101050719008F
:1001200029FF150026FF00950675088100050819AE
:1001300001290515002501950575019102950175A7
:10014000039101C00000000000000000000000005A
:10015000000000000000000000000000000000009F
:1001600000000000000000007E0F00D4FFFFFFC76A
:100170000000007800000000000000002A2B28008A
:100180000000000000000000000000000000002946
:10019000000000002C1E3420212224342627252E86
:1001A000362D3738271E1F202122232425263333BE
:1001B000362E37381F0405060708090A0B0C0D0EEA
:1001C0000F101112131415161718191A1B1C1D2FB6
:1001D0003130232D350405060708090A0B0C0D0ED6
:1001E0000F101112131415161718191A1B1C1D2F96
:1001F0003130354C00DA1281FFD9F1DB20A4A62E74
:10020000AF00A0C0D30000A1C8D30000AED580A825
:100210003F408D1420000001010101010101010195
:1002200002020202020202020203030303030303A7
:100230000304040404040404050505050506060674
:100240000606070707070708080808090909090A31
:100250000A0A0B0B0B0C0C0C0D0D0D0E0E0E0F0FD6
:100260000F10101111111212131314141515161664
:100270001717181819191A1A1B1B1C1D1D1E1E1FD3
:100280002020212222232424252626272829292A22
:100290002B2C2D2D2E2F303132323334353637384A
:1002A000393A3B3C3D3E3F40414243444546474846
:1002B000494A4C4D4E4F50515354555658595A5B1C
:1002C0005D5E5F616264656668696B6C6D6F7072BC
:1002D000737577787A7B7D7E8082838587888A8C28
:1002E0008E8F91939596989A9C9EA0A2A3A5A7A95C
:1002F000ABADAFB1B3B5B7BABCBEC0C2C4C6C9CB53
:10030000CDCFD1D4D6D8DBDDDFE2E4E7E9EBEEF008
:10031000F3F5F8FAFDFF00AF00AE939400E1E100C1
:10032000919200A0A1A2A3A4E100B7B800B5B600C5
:100330008081828384E100E1E1E1E1E1E1E1E1E169
:10034000E1E1E1E100979800959600C0C0C0C0C00F
:10035000C0C0C0C0C0C0C0C0C0C0C0C0C0C0C0C09D
:10036000000000000000000000000000000000008D
:10037000000000000000000000000000000000007D
:1003800000F0F0F0F0FFFFFFFFFFFFFFFFFFFFFFB8
:10039000FFFFFFFFFFFFFFFFFFFFFFFFFFFFFFFF6D
:1003A000FFFFFFFFFFFFFFFFFFFFFFFFFFFFFFFF5D
:1003B000FFFFFFFFFFFFFFFFFFFFFFFFFFF0F0F07A
:1003C000F00000000000000000000000000000003D
:1003D000000000000000000000000000000000001D
:1003E000000000000000000000000000000000000D
:1003F00000000000000000000000000000000000FD
:1004000000FFFFFFFFFFFFFFFFFFFFFFFFFFFFFFFB
:10041000FFFFFFFFFFFFFFFFFFFFFFFFFFFFFFFFEC
:10042000FFFFFFFFFFFFFFFFFFFFFFFFFFFFFFFFDC
:10043000FFFFFFFFFFFFFFFFFFFFFFFFFFFFFFFFCC
:10044000FF000000000000000000000000000000AD
:10045000000000000000000000000000000000009C
:1004600000000000000000000000000000F0F0F0BC
:10047000F0FFFFFFFFFFFFFFFFFFFFFFFFFFFFFF9B
:10048000FFFFFFFFFFFFFFFFFF0F0F0F0F00000039
:1004900000000000000F0F0F0FFFFFFFFFFFFFFF27
:1004A000FFFFFFFFFFFFFFFFFF0F0F0F0F00000019
:1004B00000000000000F0F0F0FFFFFFFFFFFFFFF07
:1004C000FFFFFFFFFFFFFFFFFFFFFFFFFFFFFFFF3C
:1004D000FFF0F0F0F000000000000000000000005D
:1004E00000000000000000000000000000FFFFFF0F
:1004F000FFFFFFFFFFFFFFFFFFFFFFFFFFFFFFFF0C
:10050000FFFFFFFFFFFFFFFFFFF0F0F0F000000034
:100510000000000000F0F0F0F0FFFFFFFFFFFFFF22
:10052000FFFFFFFFFFFFFFFFFFF0F0F0F000000014
:100530000000000000F0F0F0F0FFFFFFFFFFFFFF02
:10054000FFFFFFFFFFFFFFFFFFFFFFFFFFFFFFFFBB
:10055000FFFFFFFFFF0000000000000000000000A0
:1005600000000000000000000000000000FFFFFF8E
:10057000FFFFFFFFFFFFFFFFFFFFFFFFFFFFFFFF8B
:10058000FFFFFFFFFFFFFFFFFFFFFFFFFFFFFFFF7B
:10059000FFFFFFFFFFFFFFFFFF0F0F0F0F0F0F0FFB
:1005A0000F0F0F0F0F0F0F0F0FFFFFFFFFFFFFFFCB
:1005B000FFFFFFFFFFFFFFFFFFFFFFFFFFFFFFFF4B
:1005C000FFFFFFFFFFFFFFFFFFFFFFFFFFFFFFFF3B
:1005D000FFFFFFFFFF000000000000000000000020
:1005E000000000000000000000000000000F0F0FDE
:1005F0000FFFFFFFFFFFFFFFFFFFFFFFFFFFFFFFFB
:10060000FFFFFFFFFFFFFFFFFFFFFFFFFFFFFFFFFA
:10061000FFFFFFFFFF0F0F0F0F00000000F0F0F0D3
:10062000F0F0F0F0F0000000000F0F0F0FFFFFFFE1
:10063000FFFFFFFFFFFFFFFFFFFFFFFFFFFFFFFFCA
:10064000FFFFFFFFFFFFFFFFFFFFFFFFFFFFFFFFBA
:10065000FF0F0F0F0F00000000000000000000005F
:10066000000000000000000000000000000000008A
:10067000000000000000000000000000000000007A
:1006800000FFFFFFFFFFFFFFFFFFFFFFFFFFFFFF79
:10069000FF0F0F0F0F00000000F0F0F0F0FFFFFF62
:1006A000FFFFFFFFFFF0F0F0F0000000000F0F0F62
:1006B0000FFFFFFFFFFFFFFFFFFFFFFFFFFFFFFF3A
:1006C000FF0000000000000000000000000000002B
:1006D000000000000000000000000000000000001A
:1006E000000000000000000000000000000000000A
:1006F00000000000000000000000000000000000FA
:1007000000FFFFFFFFFFFFFFFFFFFFFFFFFFFFFFF8
:10071000FFF0F0F0F0F0F0F0F0FFFFFFFFFFFFFF61
:10072000FFFFFFFFFFFFFFFFFFF0F0F0F0F0F0F042
:10073000F0FFFFFFFFFFFFFFFFFFFFFFFFFFFFFFD8
:10074000FF000000000000000000000000000000AA
:100750000000000000000000000000000000000099
:1007600000000014001A000800150017002B0004F8
:10077000001600070009000A00E1001D001B00062A
:1007800000190005000000E000417E2C00E200A8F6
:10079000000000130012000C0018001C003400338D
:1007A000000F000E000D000B00E50038003700368A
:1007B000001000110000002A00427E2800E300AE75
:1007C0000000003900530052002E002F0229004A79
:1007D00000500051004F002F0001004D004B00164B
:1007E000014E002602000029002B002800E2000034
:1007F0007C00005700610060005F00300234022D71
:10080000005E005D005C003000010055005B005A96
:10081000005900270200004C002A002C00E300AE23
:100820000000001E021F022002210222020000001E
:1008300000000000000000000000000000000000B8
:10084000000000000000000100010001000100A8FC
:100850000000003100201455002402230200000093
:100860000000000000000000000000000000000088
:100870000000000000000001000100010001000074
:100880007C000082744B78477845784978007C0278
:100890007C4C78487846784A78457E447E00004211
:1008A0007844784378000001000100010001000055
:1008B0007C000069004200410040000000680045E3
:1008C000003F003E003D000000440043003C003B70
:1008D000003A0000000000010001000100010000DA
:1008E0007CA900AA00BD00BE00A900AA00AB00AC14
:1008F0000049784A78487848784B784C784378446F
:100900007809025B00030100A0FA0904000001035A
:1009100001010009211101000122440007058103A2
:10092000080001090401000203000000092111016F
:1009300000012222000705820320000107050303AE
:100940002000010904020001030000000921110137
:100950000001223200070584032000011201000279
:10096000000000083C3A01000001010200010A03F6
:100970004B006C006F007200000018034700650018
:100980006900670065006900670065006900730021
:1009900074000000040309040000000000003E5B36
:1009A0004F5B3E003E6B4F6B3E001C3E7C3E1C008E
:1009B000183C7E3C18001C577D571C001C5E7F5E57
:1009C0001C0000183C180000FFE7C3E7FF000018F8
:1009D00024180000FFE7DBE7FF0030483A060E006E
:1009E000262979292600407F05050700407F052537
:1009F0003F005A3CE73C5A007F3E1C1C0800081C84
:100A00001C3E7F0014227F2214005F5F005F5F00A6
:100A100006097F017F00006689956A00606060605A
:100A2000600094B6FFB69400080C7E0C08001030ED
:100A30007E30100008083E1C0800081C3E08080014
:100A40001E10101010000C1E0C1E0C0030383E380A
:100A50003000060E3E0E0600000000000000000000
:100A60005F000000000700070000143E143E140061
:100A70002E2A7F2A3A0020120824020037494937DB
:100A80005000000807030000001C22410000004144
:100A9000221C00002A1C7F1C2A0008083E080800AF
:100AA000008070300000080808080800000060603E
:100AB00000002010080402007F5149457F0008040F
:100AC000027F0000714949494F004141494977007F
:100AD0000F1010107F004F49494971007E49494964
:100AE00070000101710907007749494977000749FA
:100AF00049493F000000140000000040340000009D
:100B0000000814224100141414141400004122148B
:100B10000800010159090F007F415D594F007F090D
:100B200009097F007F49494976007F4141414100E1
:100B30007F4141417E007F49494949007F090909B8
:100B400009007F4141497B007F0808087F000000C1
:100B50007F000000704040407F007F080808770059
:100B60007F40404040007F011F017F007F0408104C
:100B70007F007F4141417F007F0909090F007F41CC
:100B800071417F007F0909196F0047494949790080
:100B900001017F0101007F4040407F001F20402075
:100BA0001F007F407F407F007708080877004F488C
:100BB00048487F00615149454300007F41410000A2
:100BC0000204081020000041417F000004020102DD
:100BD000040040404040400000000708000060540E
:100BE00054547C007F44444478007C444444440092
:100BF000784444447F007C5454545C00087F0909C5
:100C0000090038A4A4A4FC007F04040478000000B8
:100C10007D0000007040407D00007F0808087600DD
:100C200000007F4000007C047C047C007C04040401
:100C300078007C4444447C00FC242424380038247C
:100C40002424FC007C04040404005C545454740008
:100C500004047F0404007C4040407C001C204020B1
:100C60001C007C407C407C006C1010106C00BCA010
:100C7000A0A0FC004464544C44000008364100002D
:100C80000000770000000041360800000201020465
:100C900002003C2623263C000000E0F0F0F0F0FECD
:100CA000FF9F0F0F9FFFFFFFFF9F0F0F9FFFFEF0A4
:100CB000F0F0F0E00000FF000000000000C0300C89
:100CC0000300000000FF0000000000000000E01032
:100CD00008040202020101010101010202020408EA
:100CE00010E000000000FF0101010101010101010C
:100CF00001FF7F515555457F415F5F5F7F007F4119
:100D00007B77417F415F5F5F7F007F415D5D5D7FFE
:100D1000415F5F5F7F00C0E0F0F0F0E0E6F7F3F0E6
:100D200060007C7C7C7C7C007C7C7C7C7C00F81C77
:100D3000DE1FFFFFFF1FDE1CF800C0E2B4F8F8F86A
:100D4000F8F8B4E2C000000000000000000000005D
:100D500000000000000000000000070F0F0F0FFF51
:100D6000FFFFFF9F87E1F9F9E1879FFFFFFFFF0F7B
:100D70000F0F0F070000FF0000C0300C33C0000051
:100D80000000000000FF000000000000003FC00065
:100D90000000000000000000000000000000000053
:100DA00000C03F000000FF08080808080838C8080D
:100DB000080F7E00007F00007800007E00002424E1
:100DC00012122424484824241212000000000000BB
:100DD0000000000000000F1F3F7F7F3F3F7F7F38F4
:100DE00010001F1F1F1F1F001F1F1F1F1F000F149A
:100DF00021404541454021140F007D7D7D7D7D7D55
:100E00007D7D7D7D7D000000000000000000000071
:100E100000000000000000000808080808080000A2
:100E200000000000000000000000000000000000C2
:100E30000000000000003F0C030000000000030C55
:100E400030000000003F2020202020202020010230
:100E5000040810101020202020202010101008045A
:100E60000201000000003F0000000000000000033D
:100E70000C304000004000004000004000001C3EDC
:100E80003E3E1C003E1C1C0808003E3E3E3E3E000E
:100E90000000000000000000000000000000000052
:100EA0000000000000000000000000000000000042
:100EB0000000000000000000000000000000000032
:100EC0000000000000000000000000000000000022
:100ED000000000000000000011241FBECFEFDAE088
:100EE000DEBFCDBF12E0A0E0B1E0EAEBF7E602C062
:100EF00005900D92A63FB107D9F729E0A6EFB2E021
:100F000001C01D92A237B207E1F70E9413290C9489
:100F1000653376C8E8EDF0E080818E7F80831092A3
:100F2000E2001092DA001092E100A0EEB0E08C91A5
:100F300081608C9380818F77808319BCA7EDB0E0AE
:100F40008C918E7F8C9380818F7E80831092100590
:100F500008952091E4003091E50095E6A9012091E3
:100F6000EC00822F817020FF06C08091E80080FF96
:100F700006C080E008952091E80022FD1AC080910B
:100F80002505882389F0853089F08091EB0085FD67
:100F90000FC02091E4003091E50042175307F9F2A9
:100FA0009150E1F684E0089582E0089583E0089589
:100FB00081E008958091270587FF13C08091E800A4
:100FC00082FF06C08091E8008B778093E80004C020
:100FD000809125058111F2CF089580912505882300
:100FE000D9F38091E80080FFF8CF8091E8008E77F8
:100FF000ECCF982F9093E900242F762F50E089179B
:1010000031F07091EC002091ED005091F00021FD45
:1010100007C09F5F973071F78093E90081E00895E2
:101020003091EB003E7F3093EB003091ED003D7F3F
:101030003093ED003091EB0031603093EB00709312
:10104000EC002093ED005093F0002091EE0027FD7E
:10105000E0CF80E00895B0E0A0E0E1E3F8E00C9498
:101060005E32C8EDD0E088818F7E8883E7EDF0E0C6
:1010700080818160808384E082BF81E0809310055D
:1010800088818E7F888302EE10E0F8011082109232
:10109000DA0081EEC82ED12CF601108288818F777C
:1010A000888388818068888388818F7D888319BC44
:1010B000109225051092260510921A051092190516
:1010C00090EEE92EF12CF70180818B7F808388815F
:1010D0008160888342E060E080E08BDFF601808100
:1010E0008E7F8083F8018081816080838081886029
:1010F0008083F70180818E7F8083888180618883EF
:10110000CDB7DEB7E8E00C947A32FC0180912D0572
:1011100090912E0586179707A0F06115710529F4A7
:101120009091E8009E779093E80090E0611571053A
:1011300051F4911108C08091E80082FF34C080E032
:101140000895BC01F2CF809125058823C1F1853037
:10115000C1F18091E80083FD30C08091E80082FDFC
:10116000EACF8091E80080FFE1CF8091F3002091E9
:10117000F200382F6115710519F02830310558F04B
:1011800091E02830310509F090E02091E8002E77B9
:101190002093E800CBCF81918093F10061507109D9
:1011A0002F5F3F4FE7CF80912505882341F08530A1
:1011B00041F08091E80083FFBECF81E0089582E096
:1011C000089583E008950895089587E797E7909339
:1011D00001088093000888E19AE00FB6F894A8957A
:1011E000809360000FBE90936000FFCF2FB7F894FC
:1011F00060910C0570910D0580910E0590910F0581
:101200002FBF08958091930108959C01FC013296AF
:101210009FEF80E04191461751F09F3F19F4411133
:1012200001C0982F8F5F8630A9F79F3F09F408957A
:10123000290F311D97FD3A95F90162830895A3E0C6
:10124000B0E0E5E2F9E00C946432209101053091C0
:10125000020528173907B1F0909302058093010524
:10126000E091FF04F0910005309761F00084F18572
:10127000E02D309739F024E029839B838A83CE01C7
:10128000019609952396E2E00C948032A3E0B0E049
:10129000ECE4F9E00C9464322091FD043091FE04FA
:1012A00028173907B1F09093FE048093FD04E09174
:1012B000FF04F0910005309761F00084F185E02D86
:1012C000309739F023E029839B838A83CE010196EE
:1012D00009952396E2E00C9480328091FA04811102
:1012E00003C08091FC040895E091FF04F091000593
:1012F000309739F00190F081E02D309711F0099589
:10130000089580E00895282F269F020E20E0211DD9
:101310001124822F0895FC01680F791F8FEF91E34C
:101320002191822728E030E087FF09C0880F8927B4
:1013300021503109C9F7E617F70791F70895880F8B
:10134000F7CFFC01EE0FFF1FE80FF91FE458FB4F2A
:101350006183408322830895539A089590E0662321
:10136000A1F08F569E4FFC0120812F3F89F0E22F84
:10137000E295EF70F0E080A190E02F7002C09595AB
:1013800087952A95E2F78170089580579E4FEBCF9D
:1013900080E0089590E06623E9F08F569E4FFC01AF
:1013A00080818F3FB1F0E82FE295EF70F0E041A12E
:1013B0008F7021E030E0B90102C0660F771F8A9577
:1013C000E2F7CB01962F9095942391A392A1892BBC
:1013D00082A3089580579E4FE2CF90917604E92F23
:1013E000F0E0409177049F012F5F3F4F2370332738
:1013F00042171306A9F0E858FB4F282F2F7780815A
:101400008078822B60FB87F980839F5F9370909335
:101410007604809174048F5F8093740481E0089552
:1014200080E00895E3E3F5E0248130E1231B08F434
:1014300020E0248380911104816080931104089539
:10144000E3E3F5E0248130E1230F08F42FEF248358
:101450008091110481608093110408959091330567
:10146000937071F08093340560933505453B08F027
:1014700044EB4093360580911104822B8093110434
:101480000895E3E3F5E0438120E1421B08F440E0E6
:10149000818121E0628190E0E1CFE3E3F5E04381E7
:1014A00020E1420F08F44FEF818121E0628190E05A
:1014B000D5CFE3E3F5E0628120E1621B08F460E050
:1014C000818121E0438190E0C9CFE3E3F5E06281CF
:1014D00020E1620F08F46FEF818121E0438190E009
:1014E000BDCFE3E3F5E0818121E043816281885053
:1014F000990BB4CFE3E3F5E0818190E021E04381F3
:1015000062810896ABCF90913305937061F08111A1
:101510000BC0946090933305109288018091110460
:10152000862B8093110408958A3010F09462F2CFD4
:10153000880F880F982BEECF80913305869586957E
:10154000815009F489E061E0DECF80913305869512
:1015500086958F5F8A3008F081E061E0D4CF80917A
:101560003305837011F010928801809133058C7FD0
:1015700080933305089580913305837011F41092A0
:101580008801809133058C7F8160809333050895B5
:10159000E3E3F5E0908121E09227908310928801A7
:1015A00090911104892B80931104089599E0899FEB
:1015B000802D1124980F9B3208F09AE22091FB04B1
:1015C000222321F0963128F095E10895853108F421
:1015D00085E10895EF92FF920F939701201B310947
:1015E0002F3F310519F010F02FEF30E02095382F04
:1015F000320F08F43FEF832F0F91FF90EF90089583
:10160000EF92FF920F939701201B31092F3F310575
:1016100019F010F02FEF30E0322F3095482F430FA4
:1016200008F44FEF842F620F0F91FF90EF90089511
:10163000EF92FF920F93970195E0099F200D311DC6
:1016400011242F3F310519F010F02FEF30E02095D5
:10165000382F320F08F43FEF832F0F91FF90EF9058
:101660000895E42FF0E0EE0FFF1FE958FD4F608171
:10167000621B08953091FB04311104C0853191053E
:101680000CF045975ECEFF920F931F93CF93DF939D
:10169000182F062FF42ED0E0C0E02F2D402F612F01
:1016A000CE01E8DF2196CA32D105B9F7CDB7DEB752
:1016B000E5E00C947D321F93CF93DF93C62F172F55
:1016C000D82F4F3F510519F010F04FEF50E060E474
:1016D000842F809518DE6C2F680F712F8D2FDF916E
:1016E000CF911F9108951F93CF93DF93C62F172F8C
:1016F000D82F2695E22F26FDE0958E2F8F7026FDA0
:101700008F5FE695E695E695E670F0E0E05EFD4FCA
:101710009181989F802D912D112482958F709295A3
:10172000907F892B9081890F27FD819587FD819579
:101730006CE0880FE8DD682F6C0F712F8D2FDF9123
:10174000CF911F91089530E020E0869F080E211D63
:10175000969F200D311D1124290F311DC9010895B7
:10176000982F8091FB04882329F081E0953128F09F
:1017700080E003C081E09A32D8F70895B0E0A0E09D
:10178000E4ECFBE00C945E329B01E82FF0E0EA5EB3
:10179000FD4F311109C0E4918E2F7E2F6E2FCDB7F2
:1017A000DEB7E8E00C947A32E32EF12CE491FE2FC0
:1017B0000E2F10E046E0649FC0011124CFEFD0E06F
:1017C000BE010E944032AB01822F90E0880F991F2A
:1017D00025E5249FB001259F700D1124861B970BD2
:1017E000982F990F980FBE016E197F09609FD00145
:1017F000619FB00D709FB00D11248B2F399F900108
:101800001124232F3327BE01621B730B609F9001AD
:10181000619F300D709F300D11246E01C91AD108DF
:10182000CE9CB001CF9C700DDE9C700D1124672FF3
:101830007727C61BD70BC09F7001C19FF00CD09FAC
:10184000F00C11247F2D42305105A1F050F44115C8
:10185000510509F4A3CF4130510581F07B2F832F2F
:101860009DCF4430510569F080F04630510509F4B0
:1018700095CFF4CFEB2F8F2D7F2F90CF7E2FE32F9F
:101880008DCFEF2D7B2F8F2F89CF732FEB2FFBCF9A
:10189000A8E0B0E0EEE4FCE00C94543289837C8351
:1018A0006B838091960182DE492E20913B052A832D
:1018B000682F70E078876F83CB01880F991FFC0138
:1018C000E95BFD4F6F01F9818F2F90E09C012F5F45
:1018D0003F4F3E832D836F81641530F0842D40DFB0
:1018E0002896E2E10C947032EF81F885E553FD4FC4
:1018F0008081909197018923D1F0709034051091E7
:1019000035056D817E81655C7A4F4B015980612C74
:10191000FA815F16B0F060913605862DF4DC672DF4
:10192000712F2CDF472F282F8F819885A3DE2F81E1
:1019300038852F5F3F4F38872F8332E0C30ED11C8D
:10194000CACFF40181914F01F60190A9292F281BDC
:10195000330B1901A1A8F4018781A81ABB08229CA6
:101960009001239C300D300D1124AA9CC001AB9C2A
:10197000900D900D1124820F931F082F8230910536
:1019800024F14FEF813EFEE19F073CF4AC0175E08E
:10199000569547957A95E1F7485F51E0652F640FBA
:1019A0007727771F9B0135952795022F229FB0013E
:1019B000239F700D700D11248617970710F54FEFB8
:1019C000420F451758F70FEF050F6091370571E08B
:1019D000670F08F46FEFF401EE0FFF1FEB53F540B4
:1019E00085899689B0DE7C019501A101672D712F53
:1019F000862DEB81FC810995762E172F5394682E46
:101A000087CF2F3F11F351E0520FDBCFEF92FF92C0
:101A10000F931F93CF93DF937C0180919601C6DDD6
:101A2000C82F192F609137056695669521E0620FE2
:101A300008F46FEF80912F059091300584DE082F18
:101A4000D0E0C11738F0812F8BDECDB7DEB7E6E0EE
:101A50000C947C32FE01E553FD4F808190919701FB
:101A6000892379F0609134057091350580913605B0
:101A7000202F4C2FF701099581DE472F282FCE010B
:101A8000F9DD2196DECF80E0089581E08093DD03CB
:101A90000895F894E82FE295EF70F0E031A1282F37
:101AA0002F7081E090E001C0880F2A95EAF7982F07
:101AB0009095932391A392A1892B82A37894089562
:101AC0000F931F938091FA04882321F08FDB1F91DD
:101AD0000F9108958BDB0091B0031091B103209119
:101AE000B2033091B303600F711F821F931FEFCFBA
:101AF0009091C00392FF10C041E0282F2471243040
:101B000009F040E031E0282F2871283009F030E05A
:101B1000431711F02CE0822793FF10C041E0282FDB
:101B20002471243109F040E031E0282F2871283158
:101B300009F030E0431711F02CE082273091C10307
:101B400030FF10C051E0282F2171213009F050E002
:101B500041E0282F2871283009F040E0541711F097
:101B600029E0822731FF10C041E0282F2171213167
:101B700009F040E031E0282F2871283109F030E0E9
:101B8000431711F029E0822794FD877E089582385B
:101B90009105B9F1B0F48133910509F47DC048F4A1
:101BA0008932910509F46DC08A32910509F47BC030
:101BB00008958533910509F45FC08933910509F1D2
:101BC0000895833E9105D9F138F4803E910529F1BD
:101BD000823E910579F10895863E9105D9F1873EBF
:101BE000910509F43EC0843E910541F52091C10361
:101BF00021FF24C08091C00384FD19C087EE90E0CE
:101C000008952091C003237009F05AC02091C103A8
:101C100023FF14C089E290E008952091C00320FDC5
:101C200038C03091C10330FF09C024FF43C090E0A9
:101C300080E008952091C00322FDF7CF0895209100
:101C4000C00322FD3AC03091C10330FD39C024FFEA
:101C5000F5CFEDCF2091C00323FFF0CF24FDE7CFD8
:101C6000CDCF2091C00323FD2EC03091C10331FFA1
:101C7000EECF84EE90E008952091C00325FFDECFE3
:101C8000C9CF2091C00325FD21C02091C10323FFAE
:101C9000D5CF89E390E0D2CF2091C00326FFCECFED
:101CA0008AE290E008952091C00326FFC7CF81E328
:101CB00090E0089583EE90E0089582EE90E008951C
:101CC00080EE90E0089586EE90E0089585E390E040
:101CD00008951F93CF93DF935ADFEC01C11580E580
:101CE000D807D0F5C11580E2D80708F0E7C0C33C9B
:101CF000D10598F4C83AD10508F095C0C53AD10588
:101D000008F085C0C430D10508F088C0C130D105C5
:101D100009F484C0D0E0C0E081C0C83ED10548F4D9
:101D2000C03ED10508F07AC0CD3CD10598F3D0650E
:101D300075C0C11581E0D80768F38D2FD9DE182F43
:101D4000CE01992724DFC12FD0E0DC2FCC27CC2770
:101D5000DF71C82BD92B62C0C03682E5D80718F5D1
:101D6000C03482E5D80708F070C0C03282E5D807D9
:101D700008F064C0C11582E5D80708F485C02C2F8F
:101D80002695269580E2289F900111248C2F837040
:101D9000C1E0D0E002C0CC0FDD1F8A95E2F7C22B74
:101DA000D32BDD683BC0C03C82E5D807F8F4C03ACD
:101DB00082E5D80708F05EC0C03882E5D80708F091
:101DC000A9CF2C2F26952695277080E2289F900179
:101DD00011248C2F8370C1E0D0E002C0CC0FDD1F36
:101DE0008A95E2F7C22BD32BDA6818C0C03E82E591
:101DF000D80708F08FCF9E0143E0220F331F4A958A
:101E0000E1F7207E3327CE0183709927E4CFC55AAE
:101E1000D0E0C553DE4FC881D0E0D064CE01DF9161
:101E2000CF911F910895C85AD0E0CC0FDD1FC25347
:101E3000DE4F0990D881C02DD464F0CFCF71D0E0AF
:101E4000DC2FCC27C16FD06AE9CF2C2F26952695A1
:101E5000277080E2289F900111248C2F8370C1E0AD
:101E6000D0E002C0CC0FDD1F8A95E2F7C22BD32B46
:101E7000DC68D4CF8C2F8F713BDEC82FD0E0DC2FF5
:101E8000CC27CC27DF71CACF8C2F8F7131DE95E044
:101E9000D695C7959A95E1F7CF70D0E0DC2FCC2787
:101EA000282F30E084FF06C084E0220F331F8A957C
:101EB000E1F73327C22BD32BD069B0CFCE019927BE
:101EC00066DEEC01ABCFA82FA77023E0969587952F
:101ED0002A95E1F7FC01EE0FFF1FE80FF91FE60F4F
:101EE000F71F50E040E080E0219130E00A2E02C070
:101EF000369527950A94E2F721703327042E01C006
:101F0000220F0A94EAF7822B4F5F5F4F433051054F
:101F100059F70895292F983058F4863080F490E0CE
:101F20006CE173E036E0239F800D911D1124CBCF2F
:101F30002C5F223020F469E173E090E0F8CF80E07C
:101F40000895262F277091E001C0990F2A95EAF78E
:101F500023E0769567952A95E1F7FB01EE0FFF1FC9
:101F6000E60FF71FE40FF51F50E040E0682F70E028
:101F70008191DF0111979B01042E02C036952795B0
:101F80000A94E2F7217021952827292328272C93EA
:101F90004F5F5F4F4330510559F70895282F862F23
:101FA000983068F4263050F4622F70E026E0929F5B
:101FB000600D711D11244CE153E0C3CF08959C5F67
:101FC0009230E0F7622F70E049E153E0F6CF809362
:101FD000BE030895982F92959F7011F0892F94E079
:101FE000282F2695269511F09E5F822F869509F061
:101FF0009F5F892F0895CF93DF93682F81E06A3028
:1020000019F06D3029F480E082D0DF91CF910895EE
:10201000809170099091710926E0FC01AAE6B9E06F
:1020200001900D922A95E1F7603E08F458C026E031
:10203000FC0111922A95E9F7C0917009D0917109BC
:1020400046E050E0BE018AE699E00E94FE329E0121
:102050002A563540892B41F1C90146E0969587956E
:102060004A95E1F741E050E0BA0102C0660F771FE0
:102070008A95E2F7CB016091680570916905862B1E
:10208000972BB9016B5F7F4FE6E076956795EA95F0
:10209000E1F702C0440F551F6A95E2F7842B952B98
:1020A00090936905809368052A5F3F4F40916705CB
:1020B000642F70E0C9010E944032481B463010F482
:1020C000240F311D211574E0370710F030E020E0B7
:1020D00026593A4F309371092093700996CFF6E054
:1020E0006F9FB00111246856764F46E050E00E9481
:1020F000F532A2CFCF93DF93EC01FE0184918111E1
:1021000003C0DF91CF91089576DF2196F6CFCF936C
:10211000382FE0917009F0917109EA56F54020914D
:102120006705622F70E0CF010E944032281B822F8A
:10213000332359F066E00E948B32C82FC15010F44F
:10214000CF91089580E257DFF9CF9F01280F311D0D
:102150002115344018F080E0F0E0E0E08E0F9F2F72
:10216000911D86599A4F9093710980937009E8CF19
:102170008091950390919603892B8093F80248E013
:1021800050E06EE273E088EF92E00E94FE32892B0D
:10219000B9F088E0E8EFF2E0AEE2B3E001900D9232
:1021A0008A95E1F7E091FF04F0910005309741F046
:1021B0000280F381E02D309719F088EF92E00995C5
:1021C000089510929503EAEFF2E086E0DF011D9298
:1021D0008A95E9F790E080E059D890E080E02FD828
:1021E00010929603C5CF882339F08095909195037E
:1021F000892380939503BCCF0895882331F0909173
:102200009503982B90939503B3CF08958823A1F15C
:102210009CEF980F913A68F4EAEFF2E091918913FC
:1022200003C0DF0111971C9243E0E030F407B1F7DF
:102230009FCF90E2980F983088F4877021E030E0CB
:10224000A90102C0440F551F8A95E2F7CA01809583
:1022500090919503892380939503EACF9BE5980F8E
:10226000933018F490E080E011C8885A8B3120F444
:1022700090E080E00C941F090895CF93C82F882325
:10228000A9F08CEF8C0F813AF0F4EAEFF2E080E0F5
:1022900093E0DF012D91C21759F08A179B07D1F700
:1022A0006C2F88EF92E00E94050962DFCF910895BC
:1022B0002191C21303C0DF0111971C928E179F0753
:1022C000B9F756DFEDCF80E28C0F883068F4C77025
:1022D00021E030E001C0220FCA95EAF78091950312
:1022E000822B80939503E1CFEBE5EC0FE33040F4D4
:1022F000F0E0E553FE4F808190E00E944609D6CF82
:10230000C85ACB3198F6EC2FF0E0EE0FFF1FE253E6
:10231000FE4F808191810E941F09C8CF0F931F93A8
:10232000CF93DF93EC01FC0101900020E9F78F01CE
:1023300001501109C017D10728F0DF91CF911F91EB
:102340000F910895899157DEF5CF0F931F93CF9387
:10235000DF938B01EA0190912505943061F580931C
:10236000E9008FEF9091E800815095FD06C095ED52
:102370009A95F1F700008111F5CF8091E80085FF73
:102380001AC00E94A907811111C08091E80085FD43
:1023900006C08091E8008E778093E800F2CFF801C4
:1023A00081918F018093F100219779F78091E80066
:1023B0008E778093E800DF91CF911F910F91089560
:1023C00043E050E0BC0184E0C0CFCF93DF93EC0149
:1023D00048E050E0BC0181E0B8DF88E0FE01A1E107
:1023E000B5E001900D928A95E1F7DF91CF910895C4
:1023F000603229F440E250E0BC0182E0A6CF0895AB
:102400003BB1377F2BB128604FB7F8948CE794E04D
:10241000FC015191CF0168E02BB9000000C057FFCB
:102420003BB9550F000000C000C000C03BB900C060
:102430006A9591F7F4E08A3F9F0751F74FBF8FE508
:1024400094E00197F1F700C000000895B0E0A0E02B
:10245000ECE2F2E10C945C327C015B016A01809158
:10246000AF0301E010E08A3010F40AE010E0C1E0B0
:10247000D0E0B501C701F6010995811104C021968C
:102480000C171D072CF4CDB7DEB7EAE00C947832B8
:10249000CC9F9001CD9F300D300D112490E080E055
:1024A00045E34A95F1F70000019682179307C1F7BB
:1024B000E0CF87DE2FEF84E39CE021508040904006
:1024C000E1F700C0000088E19AE00FB6F894A89503
:1024D000809360000FBE90936000FFCF0F931F9317
:1024E000CF93DF93142F022F843020F5623010F544
:1024F00098E0899FE001112484E0689FB0011124D5
:10250000C60FD71FC755DE4F82E090E0442311F07D
:1025100090E080E0632F8C0F9D1F0E94473383E083
:1025200090E0112311F081E090E0602F8C0F9D1F4F
:102530000E944733DF91CF911F910F9108951F9310
:10254000CF93DF93122F8430E0F46830D0F446301C
:10255000C0F4C42FD0E0CC0FDD1F9CE0699FC00DFC
:10256000D11D112490E6899FC00DD11D1124632F28
:10257000CE0189960E944733612FCE018A960E9430
:102580004733DF91CF911F9108958F929F92AF9221
:10259000BF92DF92EF92FF920F931F93CF93DF933F
:1025A00001EE18E081E6E82E87E0F82EC0E0570142
:1025B000D0E014C0F401259134914D2D6D2F8C2F56
:1025C000BEDF82E0880E911CD39486E0D812F2CF51
:1025D0008CE0A80EB11CDF5FD83019F04501D12C7A
:1025E000E9CFF8012591349141E060E08C2F76DF4E
:1025F000F80132962591349140E060E08C2F6EDF37
:10260000F80134962591349141E061E08C2F66DF2A
:10261000F80136962591349140E061E08C2F5EDF21
:10262000085F1F4FCF5F80E6E80EF11CC43009F051
:10263000BECFDF91CF911F910F91FF90EF90DF9070
:10264000BF90AF909F908F900895CF93DF9385E2D6
:1026500090E00E942B33D82F86E290E00E942B332B
:10266000C82F87E290E00E942B33D53259F4C03155
:1026700049F491E0823009F090E0892F8170DF9178
:10268000CF91089580E0FACF9B0127533E4F6733E7
:1026900072408105910518F4C9010C942B3380E038
:1026A0000895CF92DF92EF92FF92CF93DF93EC01E8
:1026B000C880D980EA80FB80C701B601E5DF9FEFC3
:1026C000C91AD90AE90AF90AC882D982EA82FB82C0
:1026D000DF91CF91FF90EF90DF90CF900895FF9220
:1026E0000F931F93CF93DF93F42E843070F56230F5
:1026F00060F528E0829F8001112434E0639FB001DF
:102700001124060F171F07551E4F82E090E0442347
:1027100011F090E080E0800F911F0E942B33C82FB2
:10272000D0E0DC2FCC2783E090E0FF2011F081E0A7
:1027300090E0800F911F0E942B339E01282BC9012E
:10274000CDB7DEB7E5E00C947D3290E080E0F8CFC5
:102750000F931F93CF93DF93843030F5683020F5CB
:10276000463010F5C42FD0E0CC0FDD1F2CE0629F67
:10277000C00DD11D112430E6839FC00DD11D112441
:10278000CE0189960E942B33082F10E0102F0027CE
:10279000CE018A960E942B339801282BC901DF9124
:1027A000CF911F910F91089590E080E0F8CF78309D
:1027B00038F4663060F4843050F4462F672FC8CF69
:1027C0007D3F41F4623018F441E0843050F090E0F5
:1027D00080E008957C3FD9F76230C8F78430B8F7BD
:1027E00040E07DCFCF92DF92FF920F931F93CF9364
:1027F000DF936C010091BF038091BE03082BC3E0FF
:10280000D0E010E0FC2EC8010C2E02C095958795F3
:102810000A94E2F780FD0CC02197A0F7F12C8F2DD0
:10282000DF91CF911F910F91FF90DF90CF9008958E
:10283000B6018C2FBCDF4DDA019771F3F0CFA6E023
:10284000B0E0E5E2F4E10C94633226E0FC01DE0145
:10285000119601900D922A95E1F7FC01258189815D
:102860009A81222381F0662371F0BCDF182F682F34
:1028700089819A8193DB69817A81812F98DF2696FD
:10288000E3E00C947F3246DB182FF5CFA0E1B0E0F7
:10289000ECE4F4E10C945632CE0101965C0180E147
:1028A000F50111928A95E9F705E210E097E3492EC8
:1028B00092E0592E612C712C29EC822E992493944C
:1028C0000150110921F46096E0E10C94723262012A
:1028D000F1E14F165104610471042CF080E1C82E1F
:1028E000D12CE12CF12CA601B401C5010E94383392
:1028F0008C0C9D1C0D2C000CEE08FF084C185D087C
:102900006E087F08DDCF6FEF85E290E00E944733CD
:102910006FEF86E290E00E9447336FEF87E290E02E
:102920000E94473360E088E290E00E9447332DDE4A
:10293000ADDF65E285E290E00E94473360E186E228
:1029400090E00E94473362E087E290E00C944733C6
:10295000B0E0A0E0EEEAF4E10C94563280900D0471
:1029600090900E04A0900F04B09010048091FA048F
:10297000882309F43EC00E94F6086B017C01C81848
:10298000D908EA08FB089CD84B015C0180920D0431
:1029900090920E04A0920F04B0921004A091E40350
:1029A000E4EEF3E08A2F90E04FEF5FEF60E070E03D
:1029B0004C195D096E097F09A9131DC08093E403BA
:1029C00080913305C82FC37019F0C82FC695C695DE
:1029D000909188019130C9F1992301F1923009F465
:1029E0009AC1933009F49FC1CDB7DEB7E0E10C94F2
:1029F000723266D8C2CF218D328D2901712C612CA3
:102A0000441555056605770520F481509F5F329681
:102A1000D3CF2C0D3D1D328F218FF8CF1092960110
:102A200080922F0590923005A0923105B092320528
:102A300089E2E4EEF3E0ABE3B5E001900D928A9514
:102A4000E1F781E080938801CFCF90918701C9138E
:102A500022C083702091860130E091E08217130636
:102A600009F490E0892F8170809398018091380556
:102A700090919701981739F08093970140E060E0BA
:102A800080E00E94430BCA3090F4EC2FF0E0E9594B
:102A9000FC4C0C94C63281E0E6CF809198018823EB
:102AA00009F4A4C040E060E080E00E94430B80E0B5
:102AB0009DC0809196010E94D60A082FD92F60915F
:102AC000340570913505809136050E94BE0BF62EB7
:102AD000E72ED82E10E00D1720F08D2F0E94B00B9E
:102AE00085C0F801E553FD4F8081909197018923BE
:102AF00031F02D2D4E2D6F2DC8010E943A0B0F5F26
:102B00001F4FE9CF809196010E94D60A082FD92F36
:102B1000E0903505F090360510913405612F7E2D3B
:102B20008F2D0E94BE0BD62EC72EB82E6091370572
:102B3000610F7E2D8F2D0E94BE0BF62EE72EA82E44
:102B400010E00D1750F6F801E553FD4F908180918C
:102B50009701892359F02A2D4E2D6F2D90FD03C02A
:102B60002B2D4C2D6D2DC8010E943A0B0F5F1F4F6E
:102B7000E8CF809196010E94D60A082FD92FE090C5
:102B80003505D09036056091370580E40E948309B1
:102B9000F82E10E00D1708F0A0CFF801E553FD4F17
:102BA0008081909197018923D1F0F801EE0FFF1FEA
:102BB000E95BFD4F60A9F69EB001112425E07595F3
:102BC00067952A95E1F780913405680F7E2D8D2D4C
:102BD0000E94BE0B472F282FC8010E943A0B0F5F9F
:102BE0001F4FD8CF81E39BE00E94060D9091960184
:102BF00021E0290F20939601811189C082E0809302
:102C0000880180919801811182C0CC2309F489C088
:102C1000892F0E94D60AE8CE83E79BE0E5CF80911A
:102C200096010E94D60A082FD92E2091370531E04F
:102C3000230F08F42FEF30E050E040E06FEF7FEF1C
:102C400080E090E00E94AA32790110E0D1E0202FCC
:102C50000D1510F08D2D42CFF801E553FD4F808109
:102C600090919701892309F140913B054150042E31
:102C7000000C550B47FF1CC0C701609137052D2F75
:102C8000620F08F46FEF0E94A30BAC016091340552
:102C900070913505809136050E945B0B0E94BE0B3A
:102CA000472F282FC8010E943A0B0F5F1F4FCFCF2D
:102CB000FA01E55CFA4F818982130AC0FA01EE0F2E
:102CC000FF1FE55CFA4F818D928D8E159F05A8F24E
:102CD00041505109CFCF68E17BE080E00E94480C71
:102CE00085CF80913B0521E0382F321B08F430E07E
:102CF000832F60E07BE0F2CF80913B0521E0382F0D
:102D0000321B08F430E0832F6AEE7AE0E7CFCC2361
:102D100009F46ACE7DCFC0938701837080938601CA
:102D20006FDB83E08FCE80911104882351F048E05F
:102D300050E067E170E083E395E00E943833109241
:102D40001104C0902F05D0903005E0903105F0902F
:102D500032058091FA04882379F00E94F6086C19F4
:102D60007D098E099F09603171058105910508F47F
:102D70003BCE1092880138CE0E94600DF0CFE3E385
:102D8000F5E081E180838091990190919A01A09171
:102D90009B0181839283A3838FE784838FEF858355
:102DA00048E050E067E170E0CF010E9438331092B4
:102DB00011040895AB0124E630E0BC0188E70E94CD
:102DC000123021E0892B09F020E0822F08958091B4
:102DD000700490917304911103C091E089270895C4
:102DE000882361F062E070E088E193E0E3DF811125
:102DF00003C0809170040895109270048091700453
:102E0000ECCFCF93C0917004809173048823C9F0F4
:102E10000E94F608605A75418F4F9F4F60936C0473
:102E200070936D0480936E0490936F04C11107C07A
:102E300062E070E086E193E0BDDF811105C0C091E2
:102E400070048C2FCF91089581E080937004F7CFA8
:102E5000B0E0A0E0EEE2F7E10C945F327901C82F18
:102E6000880FDD0B41155105A9F0FE0193E0EE0F2F
:102E7000FF1F9A95E1F7E050FF4F818192818E5BB1
:102E80009C4F208130E04217530708F49A01A901B2
:102E90000E940B33CE010E94D031D82E8823D1F06E
:102EA00001151105B9F083E0CC0FDD1F8A95E1F71C
:102EB000FE01E050FF4F438150E00417150708F46E
:102EC000A801C050DF4F6C817D816E5B7C4FC701D4
:102ED0000E940B338D2DCDB7DEB7E7E00C947B322B
:102EE000A2E0B0E0E6E7F7E10C945E32C090970311
:102EF000D0909803E0909903F0909A030E94F6080E
:102F0000DC01CB018C199D09AE09BF0921E0843693
:102F10009105A105B10508F420E0309195033983AE
:102F200084369105A105B10520F480915B038313DC
:102F300021E0809196038A83211105C090915C0362
:102F400011E09817C1F010E000E030E020E042E02E
:102F500050E0BE016F5F7F4F8AE07ADF182F882331
:102F600051F00E94F6086093970370939803809342
:102F7000990390939A03812F2296E8E00C947A3279
:102F8000A4E0B0E0E6ECF7E10C945E32C09085037B
:102F9000D0908603E0908703F09088030E94F608A3
:102FA0006C197D098E099F0911E064367105810550
:102FB000910510F10E94600D6E5F7F4F8F4F9F4F04
:102FC00069837A838B839C8310E000E030E020E00B
:102FD00044E050E0BE016F5F7F4F86E039DF182F7D
:102FE000882351F00E94F60860938503709386034E
:102FF0008093870390938803812F2496E8E00C94B4
:103000007A324F925F926F927F92AF92BF92CF923D
:10301000DF92EF92FF920F931F93CF93DF93B82E1F
:103020007B01A42EE9016801FB0140805180628090
:1030300073800E94F6086419750986099709643639
:1030400071058105910510F4AA2011F110E000E04E
:1030500030E020E0A601BE018B2DFADEC82F8823C8
:1030600039F00E94F608F7016083718382839383AD
:103070008C2FDF91CF911F910F91FF90EF90DF90F8
:10308000CF90BF90AF907F906F905F904F900895DA
:10309000C1E0EECFA1E0B0E0E0E5F8E10C946232EF
:1030A00080911E05898341E090917303981301C0BC
:1030B00040E001E010E09E012F5F3F4F6BEA73E0BC
:1030C0008EE09FDF2196E4E00C947E32A1E0B0E038
:1030D000ECE6F8E10C9462328091700489832091CF
:1030E000660390E041E02817190609F440E001E08A
:1030F00010E09E012F5F3F4F6FE973E08CE081DFAE
:103100002196E4E00C947E320F931F9341E090915E
:1031100058038091BF03981301C040E001E010E024
:103120002FEB33E06DE873E087E06BDF882381F0FD
:1031300041E0909159038091BE03981301C040E093
:1031400001E010E02EEB33E069E873E088E059DF3E
:103150001F910F910895CF92DF92FF920F931F93CB
:10316000CF93DF93F82E6B01EA01A801B901CE01DC
:103170000E94FE3241E0892B09F440E09E01B60135
:103180008F2D3FDFDF91CF911F910F91FF90DF9047
:10319000CF900895ACE0B0E0E0EDF8E10C9462323D
:1031A0008091D3039091D403A091D503B091D6031D
:1031B00089839A83AB83BC838091DE039091DF0384
:1031C000A091E003B091E1038D839E83AF83B88724
:1031D0008091A3039091A403A091A503B091A603AD
:1031E00089879A87AB87BC870CE010E027E633E03D
:1031F000AE014F5F5F4F67EA73E08DE0ACDF2C9666
:10320000E4E00C947E32A9E0B0E0E9E0F9E10C944E
:10321000623288E0E3E3F5E0DE01119601900D9261
:103220008A95E1F7198609E010E02DE533E0AE015B
:103230004F5F5F4F6BE973E08BE08DDF2996E4E031
:103240000C947E32A1E0B0E0E8E2F9E10C94623245
:103250000E946D09898301E010E02AE533E0AE01A8
:103260004F5F5F4F61E973E089E075DF2196E4E02D
:103270000C947E320F931F9304E010E027E433E0B8
:10328000AC016CE773E082E066DF1F910F91089557
:103290002F923F924F925F927F928F929F92AF9226
:1032A000BF92CF92DF92EF92FF920F931F93CF9333
:1032B000DF930F92CDB7DEB7762E4A015901680130
:1032C00001E010E09E012F5F3F4F50E040E070E0D2
:1032D00060E0BEDD182F882309F445C0F40120808A
:1032E0003180428053800E94F60862197309840974
:1032F0009509643671058105910538F4B701C60159
:103300000E948B099981891771F18701950150E01D
:1033100040E070E060E0872D9BDDB82EB701C6016C
:103320000E948B0911E09981981310E01B2139F05C
:103330000E94F608F4016083718382839383812F56
:103340000F90DF91CF911F910F91FF90EF90DF9041
:10335000CF90BF90AF909F908F907F905F904F9055
:103360003F902F900895A701B601C5010E940B332D
:10337000E6CFA8E0B0E0EFEBF9E10C94603288E032
:10338000E82EF12C0CE413E09E012F5F3F4F41E843
:1033900053E064E083E07CDF182F8823B9F190913B
:1033A0004B0380918003981789F1F12C90914F0382
:1033B00080914E03891721F1E92FF0E0EA5BFC4F81
:1033C000828587FB662760F99F5F937090934F0318
:1033D00090914D039F5F90934D038F770E94ED096D
:1033E000F82E8111E3CF10E000E030E020E050E063
:1033F00040E070E060E085E02BDD182F1F2102C067
:10340000F110F1CF80914B0380938003812F289698
:10341000E6E00C947C32A4E0B0E0E1E1FAE10C9447
:103420005E326B0184E0E82EF12C03E413E09E0190
:103430002F5F3F4F48E753E061E080E029DF8823BA
:1034400061F049815A816B817C8140937403509370
:1034500075036093760370937703409174035091E2
:1034600075036091760370917703F6014083518371
:10347000628373832496E8E00C947A321F93CF938F
:10348000DF93182FEB010E943D11209739F4812F13
:103490000E940611DF91CF911F9108958FE99FE05F
:1034A0000197F1F700C000002197EFCFCF93C82F0D
:1034B0009091BF038091BE03892B0E94EA0F68EAB6
:1034C00071E0813071F06CE971E0882351F06EEAAF
:1034D00071E0823031F064EB71E0833011F06BEB1E
:1034E00071E080E093E00E9414338C2F8670863068
:1034F00021F48C2F8860CF9108958C2F877FFBCF8C
:10350000D5DF8093BF0308959091BF0321E030E0A1
:10351000F90101C0EE0F8A95EAF7D90102C0AA0F9E
:10352000BB1F6A95E2F7EA2B01C0220F4A95EAF722
:10353000892F8E23E81303C0292B822FE1CF2095FA
:103540002923FBCF21E030E001C0220F8A95EAF762
:1035500020958091BF038223D3CF21E030E001C0CA
:10356000220F8A95EAF78091BF03822BC9CF789406
:103570001F921FB61F9211248F939F93AF93BF93F7
:1035800080910C0590910D05A0910E05B0910F054D
:103590000196A11DB11D80930C0590930D05A0937C
:1035A0000E05B0930F05BF91AF919F918F911F9022
:1035B0001FBE1F9018952FB7F89480910C0590911D
:1035C0000D05A0910E05B0910F052FBF0895CF9363
:1035D000DF93EC01F0DF8C1B9D0BDF91CF91089501
:1035E000EF92FF920F931F93CF93DF93C62FD42FA9
:1035F000022FFC0185818823A1F060936605DBDF43
:103600009093650580936405C77081E001C0880FC1
:10361000CA95EAF70E94FD10CDB7DEB7E6E00C943C
:103620007C3280916605681334C0E0906405F090A8
:103630006505C1DF8E199F09883C910550F510E2A0
:103640001D0FCD17B9F080E28C0F883040F4C770A1
:1036500081E001C0880FCA95EAF70E94F310183084
:1036600048F481E09D2F977001C0880F9A95EAF782
:103670000E94FD1070E060E0802F00DF183060F6DF
:10368000D77081E001C0880FDA95EAF70E94F31045
:10369000C3CFC77081E001C0880FCA95EAF7F6CFA3
:1036A000A0E1B0E0E6E5FBE10C945C324B875C877F
:1036B0006D877E878F87988B91111092960386E095
:1036C000FE013B96DE01119601900D928A95E1F77D
:1036D0008D81882309F487C061E0CE010196AFD8BF
:1036E00061E0CE010196ABD88D81882309F47BC0BF
:1036F00061E0CE010196A3D88C019E81992309F443
:10370000E3C0980137572038310508F0E3C3003192
:1037100008F069C066E372E080E090E00E94441324
:10372000811161C0C12CD12C7601011122C0CF8240
:10373000D886E986FA868AE0A82ECE0107960E94EE
:103740005113882309F44FC0813009F066C0CE01BF
:1037500007960E945113813001F5CE0107960E9411
:10376000511370E060E0893311F460E570E086DEAB
:10377000E4CF27E3C21622E0D206E104F10499F176
:10378000C701B6010E944413811101C001503FEFEF
:10379000C31AD30AE30AF30AC8CF823039F4CE0140
:1037A00007960E9451130E943D11C7CF833039F410
:1037B000CE0107960E9451130E940611BECF84309D
:1037C00081F4CE0107960E94511310E000E0482FCB
:1037D0004053550B9A014A30510548F00115110527
:1037E00099F48111AACF6096EAE00C947832A09EF9
:1037F000C001A19E900D11248901080F191FCE014F
:1038000007960E945113E3CFEFE9FFE03197F1F7FC
:1038100000C0000001501109E1CFE82FF0E0EC58A2
:10382000FE4FB490282F26952695269530E0F90175
:10383000EC59FE4FE4908770F12C082E02C0F594ED
:10384000E7940A94E2F7F1E0EF22FF24F901EC5A41
:10385000FE4FC490D12C082E02C0D594C7940A9470
:10386000E2F741E0C422DD24F901EC5BFE4F049154
:1038700010E002C0159507958A95E2F701701127AF
:10388000E114F10419F081EE0E943D11C114D1043C
:1038900019F086EE0E943D1170E060E08B2DEEDDA8
:1038A000C114D10419F086EE0E940611E114F1044E
:1038B00019F081EE0E9406110115110509F43DCFA2
:1038C00070E060E08CE253CFF801E851FC47E7304C
:1038D000F10508F0E8C2EF58FC4C0C94C63226E221
:1038E00041EE61EECE0101967BDE7DCF27E245EE13
:1038F00065EEF8CF26E241EE60EEF4CF27E245EE2A
:1039000064EEF0CF26E241EE62EEECCF27E245EE28
:1039100066EEE8CF28E241E0EBCF8091C003816002
:103920008093C00395C08091C10388608093C103D8
:103930008FC08091C0038260F3CF8091C003846008
:10394000EFCF8091C0038860EBCF8091C10381608D
:10395000EDCF8091C1038260E9CF8091C003806187
:10396000DFCF8091C0038062DBCF8091C003806491
:10397000D7CF0E94E1108091C0038068D1CF8091A1
:10398000C0038C60CDCF8091C1038360CFCF809185
:10399000C0038E7FC5CF8091C103877FC7CF809141
:1039A000C0038D7FBDCF8091C0038B7FB9CF809145
:1039B000C003877FB5CF8091C1038E7FB7CF809141
:1039C000C1038D7FB3CF8091C0038F7EA9CF80913B
:1039D000C0038F7DA5CF8091C0038F7BA1CF0E94B4
:1039E000E1108091C0038F779BCF8091C003837FCC
:1039F00097CF8091C1038C7F99CF8091C00382FBC8
:103A0000992790F921E0922790FB82F990FB83F9A6
:103A100087CF8091C103982F909591708E7F892BCD
:103A200090FB81F983CF9091C003892F8F7B96FF04
:103A3000806476CF0E94E1109091C003892F97FB9C
:103A400087F980586DCF61E08EE090E00E944733A7
:103A50006091C0037091C10384E090E00E946133E3
:103A60000E94E110C0CE60E0EFCF9091C003892F9B
:103A70008F7E94FF806154CF9091C003892F8E7FF9
:103A800090FF81604DCF9091C103892F877F93FF75
:103A900088604CCF85E311C28272F801E052F8478A
:103AA000EB30F10508F0D9C1E858FC4C0C94C63253
:103AB00081E00E94C80A97CE882389F10E949C0A5F
:103AC00092CE882389F10E94710A8DCE882389F1D4
:103AD0000E94590A88CE882389F10E94410A83CE28
:103AE000882389F10E94120A7ECE8091950382720A
:103AF000F801E054F847ED30F10540F5ED57FC4C86
:103B00000C94C6320E94BB0A80911104816080939C
:103B1000110469CE0E94AF0AF7CF882379F20E9480
:103B2000A50A61CE882379F20E947A0A5CCE8823A6
:103B300079F20E94650A57CE882379F20E944D0AD5
:103B400052CE882379F20E94200A4DCE07378CE7A7
:103B5000180731F10837ECE71E0729F19801205EBC
:103B600032452032310508F5911141C00F7181E0D5
:103B700090E09C0102C0220F331F0A95E2F78901F1
:103B8000622F83E090E00E944733802F0E94E70F6E
:103B90002ACE81E0E2DC43E062E081E0B5DC23CEC6
:103BA00081E0D0DCF8CF82E0FCCF992301F1013035
:103BB0003CE71307D1F003304CE7140781F00115FF
:103BC0001C47A9F40E94E1108FEF94E3ECE08150D0
:103BD0009040E040E1F700C000000E94E5086FEF70
:103BE0007FEF90E080E00E9461330E9459120981CA
:103BF0001A819923E9F0C8010E94F213F82E682F68
:103C0000C8010E94CE0FB8018F2D0E94D7130E94C9
:103C1000690E182FD82E2E81892F82958F70E82E4D
:103C2000F12C8C30E8F5F701E057FC4C0C94C632CF
:103C3000C8010E948A0FF82EE6CF092F0F70907FDF
:103C400011F00295007F812F2223C9F0002369F033
:103C500090E2910F983010F011110BC080919503F4
:103C6000082B009395030E94B810812F0E943D11EC
:103C700017C080919603082B00939603F4CF0E94FF
:103C80000611002369F00095105E183010F0D11075
:103C900016C0809195030823009395030E94B810E5
:103CA000E8E0EE1AF108F2E0EF16F10410F40E94D9
:103CB0006D0960E0CE0101960E941F1494CD8091A1
:103CC0009603082300939603E9CF892F869586955E
:103CD000837059F0813021F7812F9370211102C038
:103CE00080E090E00E941F09DBCF812F93702111AB
:103CF00002C080E090E00E944609D2CF892F8370F5
:103D0000A1F52111CDCF812F829586958770880FDF
:103D1000880F412F4F70082E01C0440F0A94EAF714
:103D2000212F207114FF07C02FE030E001C0220FC7
:103D30008A95EAF72095969596959370923081F042
:103D4000822F842B933030F48091BE03913029F080
:103D5000242B82230E94E70FA3CF842B822BFACF40
:103D6000242B8091BE038227F5CF8695222311F064
:103D7000892F8170882309F493CF812F82958695AE
:103D80008770880F880F412F4F70082E01C0440F95
:103D90000A94EAF7212F207114FF07C02FE030E0CA
:103DA00001C0220F8A95EAF7209596959695937013
:103DB000923079F0822F842B933030F48091BF03BE
:103DC000913021F0242B82239BDB6ACF842B822B22
:103DD000FBCF242B8091BF038227F6CF092F0F70D2
:103DE000222331F0802FB9DB812F0E94FD1058CFA4
:103DF000812F0E94F310802FA5DB52CFF2EF1F1707
:103E000061F033EF131771F041EF141315C0892FD0
:103E10008F71222389F3A1DB43CF892F8F71222356
:103E2000D1F3EACF80E0222379F29F7181E001C0D3
:103E3000880F9A95EAF7C8CF211117CF193349F4A3
:103E40005FEF87EE93E0515080409040E1F700C073
:103E50000000812F0E94061123CF07372CE712079D
:103E600009F497CE08373CE7130709F077CE99237A
:103E700009F499CE82E08ECE8091950306314CE70D
:103E8000140709F009CE8A7A91E009F490E0909342
:103E9000180369E2811165E388EF92E00E94050949
:103EA0000E94B810A0CC06315CE7150709F01DCEC2
:103EB000809118038111EECD89E2EAEFF2E0919151
:103EC000891303C0DF0111971C9253E0E030F5071E
:103ED000B1F7E6CFF801E851FC47E730F10508F407
:103EE000FACC10926605980130572332310520F63E
:103EF00084E090E00E9433339093C1038093C00329
:103F0000F801E150F047E232F10508F006CDE45641
:103F1000FC4C0C94C63230910A05209106053217EC
:103F200020F42091060520930A0560930305709301
:103F3000040580930505909306053DDB90931D05D0
:103F400080931C0581E080931B050895AAE2B0E0F0
:103F5000ECEAFFE10C94603287E295E02091F100F9
:103F6000FC012193CF01F5E08F329F07B9F78091D3
:103F70002805833009F47BC0B8F4813009F452C0BD
:103F8000823009F4D2C08091E80083FF5AC1809149
:103F90002705909128059A3008F053C1E92FF0E0E9
:103FA000E254FC4C0C94C6328A3009F4A4C08B3025
:103FB00009F47AC0893039F780912705813219F7E1
:103FC00080912B0590912C05009711F00297D9F65E
:103FD0008091E800877F8093E8008091E80082FF6D
:103FE00041C09091F3008091F200029731F48091EA
:103FF000F100813011F0863069F48091F1008093F6
:10400000930160919201709193018091940190913C
:10401000950181DF8091E8008B778093E8000E9412
:10402000DA07B1CF80912705813A09F0ACCF8091B2
:10403000E800877F8093E80080912B0590912C0504
:10404000892B61F468E081E195E070E00E948508C9
:104050008091E8008B778093E80095CF60E090E056
:1040600080E0F3CF809125058111B7CF8CCF80916F
:104070002705813A09F087CF80912B0590912C0577
:10408000892B09F080CF8091E800877F8093E8003A
:104090008091E80080FFFCCF809194018093F10033
:1040A0008091E8008E77B9CF80912705813209F0A1
:1040B0006ACF80912B0590912C05892B09F063CF55
:1040C0008091E800877F8093E8000E94DA0781E012
:1040D00090912905911101C080E080939401609135
:1040E000920170919301809194019091950113DF59
:1040F0000E94E11048CF80912705813209F043CF1B
:104100008091E800877F8093E8000E94DA07809121
:104110002A058093920160919201709193018091A0
:10412000940190919501F7DE2ECF80912705813A79
:1041300009F029CF8091E800877F8093E800809183
:10414000E80080FFFCCF80919201A8CF803899F0E1
:10415000823809F076C080912B058F70873008F087
:1041600070C08093E9008091EB0085FB882780F97F
:104170001092E90006C08091190590911A059111DD
:1041800082609091E800977F9093E8008093F1001F
:104190001092F1008091E8008E773BC2882309F4E9
:1041A00028C2823009F04DC08091290581112CC2AE
:1041B00080912B058F702FEF280F263008F041C01B
:1041C0008093E9002091EB0020FF1EC2933031F470
:1041D0008091EB0080628093EB0016C29091EB001F
:1041E00090619093EB0021E030E001C0220F8A95AE
:1041F000EAF72093EA001092EA008091EB008860D1
:10420000EACF81111EC0109129051F778091E3002C
:104210008078812B8093E3008091E800877F8093F2
:10422000E8000E94DA078091E80080FFFCCF8091CF
:10423000E30080688093E30082E0111183E08093C3
:1042400025058091E80083FF0AC08091E800877F00
:104250008093E8008091EB0080628093EB00AA9647
:10426000E6E00C947C328058823058F72091290582
:1042700030912A052C3D43E03407A1F583E08A8381
:104280008AE289834FB7F894DE01139620E03EE07E
:1042900051E2E32FF0E050935700E49120FF03C078
:1042A000E295EF703F5FEF708E2F90E0EA30C0F044
:1042B000C7968D939D932F5F243159F74FBF8091FF
:1042C000E800877F8093E8006AE270E0CE01019603
:1042D0000E9485088091E8008B778093E800B1CF39
:1042E000C096E7CF80912B0590912C05432F552741
:1042F0004330510549F178F44130510509F4F0C0DB
:104300004230510509F09DCF0BE510E081E0E82E29
:1043100089E0F82EC2C04132510509F4B1C04232E1
:10432000510509F08ECF8330910508F08ACFFC014A
:10433000EE0FFF1FE55CFD4FE080F180885C9D4F34
:10434000FC01008110E095C033272130310509F4CC
:1043500050C02115310509F442C02230310509F45D
:1043600052C010E000E0F12CE12C40912D0550915D
:104370002E0580911F058F5F80931F0550932405A4
:10438000409323054230510509F047C09091200524
:104390009F5F90932005833008F463C0209122052D
:1043A000223030F090912105911168C08217A9F058
:1043B00090912005853008F443C04F3F510509F026
:1043C00048C0222309F447C083E0923008F03EC081
:1043D00080912105982B09F044C081E037C0E4E9C1
:1043E000F9E0E4910E2F10E064E9E62E69E0F62E84
:1043F000BCCFEAE7F9E0E4910E2F10E05AE7E52E92
:1044000059E0F52EB2CFEEE6F9E0E4910E2F10E080
:104410004EE6E42E49E0F42EA8CF4430510531F4A5
:10442000909121059F5F90932105B5CF4F3F510596
:1044300009F0B1CF909122059F5F90932205ABCFF9
:10444000843039F42111C4CF923029F480931E05B1
:1044500008C02111BDCF933021F480912105813016
:10446000A9F3A9D890931D0580931C0581E0809342
:104470001B050115110509F4E4CE0FC082E0E6CF5B
:104480008330910508F0DDCE880F991FFC01EF5BAA
:10449000FD4FE080F18009E010E08091E800877F27
:1044A0008093E80080912D0590912E05081719073B
:1044B00008F4C80140E00097D1F4411118C0809180
:1044C000E80082FD07CF80912505882309F402CFFB
:1044D000853009F4FFCE8091E80083FFF0CFFACE5B
:1044E00002E110E09CE5E92E99E0F92ED6CF20916B
:1044F0002505222309F4EECE253009F4EBCE2091D8
:10450000E80023FDE7CE2091E80022FDD8CF2091DE
:10451000E80020FFD0CF3091F3002091F200009707
:1045200019F02830310558F041E02830310509F004
:1045300040E02091E8002E772093E800BCCFF701FF
:1045400044914093F100FFEFEF1AFF0A01972F5FAC
:104550003F4FE5CF803809F074CE8091E800877F27
:104560008093E800809126058093F10013CE81119D
:1045700068CE10912905123008F063CE8091E800D2
:10458000877F8093E800109326050E94DA071123A5
:1045900011F084E005C08091E30087FDFACF81E04F
:1045A0008093250542E061EC81E00E94F90742E238
:1045B00061EC84E00E94F90742E261EC82E00E9433
:1045C000F90742E260EC83E00E94F907809125053B
:1045D000843069F081E0809395016091920170913F
:1045E0009301809194019091950195DC2ACE82E00F
:1045F000F2CF80912905813009F023CE81E09330FC
:1046000009F080E080931A051092E9008091E8009B
:10461000877F8093E8000E94DA0713CE1F920F92E3
:104620000FB60F9211242F933F934F935F936F9385
:104630007F938F939F93AF93BF93CF93DF93EF932A
:10464000FF93D091E900DF708091EC00C82FC1701A
:1046500080FDC0E81092E9008091F000877F809390
:10466000F000789473DC1092E9008091F00088608B
:104670008093F000CD2BCF70C093E900FF91EF91B4
:10468000DF91CF91BF91AF919F918F917F916F916A
:104690005F914F913F912F910F900FBE0F901F9000
:1046A00018951F920F920FB60F9211242F933F93DC
:1046B0004F935F936F937F938F939F93AF93BF932A
:1046C000CF93EF93FF938091E10082FF09C0809127
:1046D000E20082FF05C08091E1008B7F8093E100C2
:1046E0008091DA0080FF24C08091D80080FF20C034
:1046F0008091DA008E7F8093DA008091D90080FF6C
:10470000CFC080E189BD82E189BD09B400FEFDCF43
:1047100081E08093250580911005811109C00E94D8
:104720008A070E942B088091E20084608093E20057
:104730008091E10080FF23C08091E20080FF1FC0D4
:104740008091E2008E7F8093E2008091E2008061A0
:104750008093E2008091D80080628093D80019BCD9
:1047600085E08093250583E0809395016091920117
:10477000709193018091940190919501CCDB80918F
:10478000E10084FF39C08091E20084FF35C080E100
:1047900089BD82E189BD99B5892F817090FFFBCFDA
:1047A0009091D8009F7D9093D8009091E1009F7EDA
:1047B0009093E1009091E2009F7E9093E2009091AF
:1047C000E20091609093E20090912605992309F40C
:1047D0006DC094E09093250590912505943009F4DF
:1047E00082E0809395016091920170919301809194
:1047F0009401909195018FDB8091E10083FF3EC091
:104800008091E20083FF3AC08091E100877F80932E
:10481000E10082E080932505109226058091E10059
:104820008E7F8093E1008091E2008E7F8093E20092
:104830008091E20080618093E20042E060E080E0ED
:104840000E94F9078091F00088608093F000C1E039
:10485000C0939501609192017091930180919401B0
:104860009091950158DBC0939401609192017091F1
:10487000930180919401909195014DDBFF91EF910F
:10488000CF91BF91AF919F918F917F916F915F91E8
:104890004F913F912F910F900FBE0F901F90189541
:1048A00019BC109225051092100542CF9091E3009B
:1048B00097FD02C0982F8ECF93E08CCFACE0B0E094
:1048C000E4E6F4E20C945D3280E00CEF93E0F92E24
:1048D000EE24E3942DEFD22E32E0C32E9091770494
:1048E00020917604291709F448C0E92FF0E0E85830
:1048F000FB4F108117FBBB24B0F81F779F5F9370AD
:1049000090937704809175048F5F80937504B11044
:1049100008C00E94DB1A1F8308879A878987FB8655
:1049200007C00E94DB1A1F83D8869A878987CB86A7
:10493000EC864F81588569857A858B859C850E9498
:10494000501BBB2091F00E94DB1A1983DA829C83F2
:104950008B83CD821E8249815A816B817C818D81BE
:104960009E810E94501B81E0B9CF0E94DB1A1983FF
:104970000A839C838B83FD82EDCF2C96E9E00C9417
:1049800079322F923F925F926F927F928F929F9295
:10499000AF92BF92CF92DF92EF92FF920F931F934D
:1049A000CF93DF9380917304882309F48BC0C09167
:1049B0007104D09172040E94DB1A8C1B9D0BC2976C
:1049C00008F460C00E94DB1A909372048093710413
:1049D0008AE695E090937109809370098091FA04BA
:1049E000882309F481C082E194E00E948E1181E065
:1049F0000E9487108BE493E00E947A1081E00E946D
:104A00008710C0911E05C35088E493E0C23010F0B7
:104A100085E493E00E947A1087E393E00E947A1085
:104A200080E393E00E947A108DE293E0C23010F0B0
:104A30008AE293E00E947A1087E393E00E947A1062
:104A400083E293E00E947A108BE493E00E947A1054
:104A500081E00E94871082EC91E00E948E110E94FA
:104A60006D09C82F80E293E0C0FD02C08DE193E0A4
:104A70000E947A108AE193E0C1FD02C08DE193E0CB
:104A80000E947A108091680590916905892B09F040
:104A900058C0809170048823A9F00E94F608009104
:104AA0006C0410916D0420916E0430916F04601BB2
:104AB000710B820B930B6F3F7F4F8F4F9F4710F40B
:104AC0000E94E716DF91CF911F910F91FF90EF9019
:104AD000DF90CF90BF90AF909F908F907F906F901E
:104AE0005F903F902F90089520916805309169055F
:104AF000AAE6B5E090E080E041E050E0FC01EF592B
:104B0000FC4FE4916D91E61791F0ED012197E88358
:104B1000BC01E6E076956795EA95E1F7EA0102C007
:104B2000CC0FDD1F6A95E2F7BE012C2B372B0196C7
:104B30008115D4E09D0711F730936905209368052E
:104B4000A1CF80917304882309F4A3CF80916B04D3
:104B500081119FCF0E94011720916805309169054E
:104B60002115310509F495CF80E041E050E0082F90
:104B700010E01A01082E02C0220C331C0A94E2F73E
:104B8000B10162237323672B11F48F5FF0CF9091F3
:104B90006A0490FF95C0880F880F880F80938B015F
:104BA00010928E01895F80938C0187E080938F0142
:104BB00024E630E047E050E069E871E088E70E94D1
:104BC000D32F892B09F065CFA80126E0440F551F8C
:104BD0002A95E1F780916A0480FF83C0EAE2F4E05D
:104BE00080E4DF011D928A95E9F7A0E3B2E008E2D4
:104BF00012E088E3C82E82E0D82E97E0592E772461
:104C000073948D91E80129918E01240F352F311D68
:104C100026593A4FE82FF0E0E65DFB4F90E080E048
:104C2000652C681A872C082E01C0880C0A94EAF7B4
:104C30007901A12CE701B9907E01B820662D6A198F
:104C40006770962E062E000C770BDB2D01C0DD0F52
:104C50009A94EAF77195619571096770772701C099
:104C6000B6946A95EAF7BD2A6081962E9B289082B9
:104C7000A39468E0A612DECF0196319688309105A4
:104C800079F6CA16DB0609F0BCCF04E610E020E492
:104C900030E04AE254E060E488E70E945330892B18
:104CA00009F0F7CEE101C095D0958091680590910B
:104CB0006905C823D923D0936905C0936805E9CE57
:104CC0008295880F880F807480938B0198013695A8
:104CD000279520938E01815C80938C0120938F0116
:104CE00067CF46595A4F04E610E020E430E0D3CFB6
:104CF000ACE0B0E0EEE7F6E20C9459328E010F5FC3
:104D00001F4F88E0D8011D928A95E9F786E0C82EEA
:104D100082E0D82EF12CE12CAA24A394B12C20E11E
:104D2000822E22E0922EF60181916F018F3F09F4CD
:104D300042C0F894E82FE295EF70F0E021A18F7067
:104D4000A50102C0440F551F8A95E2F7CA01922FB0
:104D5000982B91A392A18095892382A3789400C077
:104D6000EAE0F2E0712C31E021912F3F09F4F0C02C
:104D7000A22FA295AF70B0E090968C9190E02F702A
:104D800002C0959587952A95E2F780FDE1C0832FB3
:104D9000782A330F8E169F0639F7F60131978081F6
:104DA0008F3F11F00E94490D50EA5A95F1F7F80132
:104DB000EE0DFF1D70828FEFE81AF80A94E0E916F5
:104DC000F10409F0B0CF48E050E0B80184EB93E083
:104DD0000E94FE32009741F028E0F801A4EBB3E016
:104DE00001900D922A95E1F70091BD0310E00E535A
:104DF0001C4F892B09F4AEC081E080933A030E94D6
:104E0000DB1A9093390380933803F12CE090FA0475
:104E1000EE2009F4FDC019861A861B861C86809137
:104E2000AF038A3008F0BCC04BE05AE1BE01675FB7
:104E30007F4FC8010E942612882309F4D8C04AE394
:104E400059E1BE01675F7F4FC8010E942612882387
:104E500009F4CDC049EB59E1BE01675F7F4FC8013E
:104E60000E942612882309F4C2C040EC57E1BE011B
:104E7000675F7F4FC8010E942612882309F4B7C0DC
:104E800044E858E1BE01675F7F4FC8010E942612C7
:104E9000882309F4ACC042E259E1BE01675F7F4F4D
:104EA000C8010E942612882309F4A1C040E757E1F7
:104EB000BE01675F7F4FC8010E942612882309F454
:104EC00096C043E059E1BE01675F7F4FC8010E9471
:104ED0002612882309F48BC046E658E1BE01675FBD
:104EE0007F4FC8010E942612882309F480C04AEC33
:104EF00058E1BE01675F7F4FC8010E9426128823D8
:104F000009F475C04AE458E1BE01675F7F4FC801EC
:104F10000E942612882309F46AC01092AF03809180
:104F2000BC0390E044E050E0BE01675F7F4F8E53CA
:104F30009C4F0E94FE3221E020934103892B09F00F
:104F400048C0E12C8E2D8F292C96EDE00C94753203
:104F500080E01ECFF0903A03FF2009F456CFC090B6
:104F60003803D09039030E94DB1A8C199D090597EC
:104F700008F44BCF44E050E064EB73E0C8010E94BA
:104F8000FE32892B59F084E0E4EBF3E0D801019084
:104F90000D928A95E1F710923A0338CFF12CFBCFAE
:104FA000C0903B03D0903C030E94DB1A8C199D09F2
:104FB000843F914008F038CF80914103882309F263
:104FC000FE01399684E0DF011D928A95E9F710927F
:104FD0004103E091BC03F0E0EE53FC4F89859A85D4
:104FE000AB85BC8580839183A283B383ABCF809153
:104FF000AF038F3F31F08F5F8093AF038A3008F4A7
:105000008ECF0E94DB1A90933C0380933B03D4CF56
:10501000C090BC03D12CF601EE53FC4F6F0184E02D
:10502000F801A3E4B3E001900D928A95E1F764E002
:1050300070E083E493E00E948B098093420384E054
:10504000E7E4F3E0D60101900D928A95E1F788E05C
:10505000E4E7F4E0ACE4B3E001900D928A95E1F767
:1050600068E070E08CE493E00E948B0980934B032E
:105070008090540390905503A0905603B09057032E
:1050800080913D0390913E03A0913F03B091400376
:1050900088169906AA06BB06B1F080923D0390924D
:1050A0003E03A0923F03B09240030E94F608861A86
:1050B000970AA80AB90A8092B0039092B103A0920D
:1050C000B203B092B303809158038093BF038091E1
:1050D00059038093BE0380915A038093FC0480910E
:1050E0005C0390915B03909395038093960388E013
:1050F000EDE5F3E0A3E3B5E001900D928A95E1F7C9
:1051000080916603882309F440C00E9401178091B2
:105110006F0390917003A0917103B091720340915D
:105120006B0350916C0360916D0370916E0300915D
:105130006703109168032091690330916A0300931B
:10514000D3031093D4032093D5033093D603409315
:10515000DE035093DF036093E0037093E1038093D9
:10516000A3039093A403A093A503B093A6038091F7
:10517000730380931E050E94DB1A90931D05809394
:105180001C0581E080931B05DDCE0E94E716BFCF92
:10519000A6E0B0E0EEECF8E20C9462320E94DB1A7A
:1051A0008C0180913603909137038017910781F02D
:1051B00019821A820E94DB1A682F49815A81792F3D
:1051C00080E090E00E94501B109337030093360359
:1051D0002696E4E00C947E321F921FB61F92112493
:1051E0008F939F93AF93BF9380910B05811113C051
:1051F00080910C0590910D05A0910E05B0910F05C1
:105200004196A11DB11D80930C0590930D05A093AF
:105210000E05B0930F05BF91AF919F918F911F9095
:105220001FBE1F901895CDB7DEB7AA970FB6F8949A
:10523000DEBF0FBECDBF85B7806885BF85B78068EC
:1052400085BF84B7877F84BF0FB6F894A8958091F7
:105250006000886180936000109260000FBE80E85B
:1052600090E00FB6F89480936100909361000FBEB8
:1052700081E08093950160919201709193018091FA
:105280009401909195010E948B1F83E49DE090937F
:10529000F7028093F6020E948A070E942B088091F1
:1052A000E20084608093E200789480912505882351
:1052B000A1F01091E9001F709091EC00892F81708E
:1052C00090FD80E8182B1092E9008091E80083FDA2
:1052D0000E94A61F1F701093E90082E084BD93E036
:1052E00095BD9AEF97BD80936E001092B003109217
:1052F000B1031092B2031092B3030E9425138111DF
:1053000002C00E9483148091D80080618093D800ED
:105310002AE12A95F1F700C08091D900182F117069
:1053200080FD04C00E948A07109225051093FA049C
:1053300081E081278093FB048093780111114DD780
:10534000E4E7F4E088E0DF011D928A95E9F78091B7
:10535000780191E089278093D90380917801909317
:10536000DC038091780180917801811106C084EF7F
:105370008093900185EF8093910160E080E00E942E
:10538000CA0961E080E00E94CA09EFE8F1E03197C4
:10539000F1F700C0000010E08091DC03181708F45A
:1053A00099C0809178018091780194E0811190E01A
:1053B0009093BD0384E0891B8093BC0386E60E9422
:1053C000490D87E90E94490D86EC0E94490D84E34E
:1053D0000E94490D0AE012E090E1E92E92E0F92ED8
:1053E000D8018D918D018F3F11F00E94490DE0167B
:1053F000F106B1F788E0E2ECF3E0DF01282F1D921F
:105400002A95E9F7E4EBF3E0DF011D928A95E9F7CD
:1054100090E080E00E943333833E9E4F21F40E944F
:105420002513811135C063EE7EEF90E080E00E948D
:10543000613360E082E090E00E94473381E0809336
:10544000BE0361E083E090E00E94473360E074E1D6
:1054500084E090E00E9461330E94BF160E94831492
:1054600040E050E0BA018FE090E00E94593340E004
:1054700050E0BA0183E190E00E94593348E050E0E7
:1054800067E170E083E395E00E94383310921104E5
:1054900082E090E00E942B338093CA0384E090E086
:1054A0000E9433339093C1038093C00321DCEFE368
:1054B000FCE93197F1F700C000001ADC8091C203CB
:1054C00080FF1AC06FEF7FEF90E080E00E946133B1
:1054D0000E94E50860E0812F0E94AE09082F61E07C
:1054E000812F0E94AE09E12FF0E0E652FC4F880FB9
:1054F000802B80831F5F50CF83E090E00E942B338E
:105500000E94E70F8091BF030E94561A0E94AC09C7
:1055100010923B058FEF9FEF9093550580935405B4
:10552000909357058093560590935905809358059D
:1055300090935B0580935A0590935D0580935C057D
:1055400090935F0580935E0590936105809360055D
:1055500090936305809362051092E4039093FE0399
:105560008093FD03909300048093FF0390930204C3
:1055700080930104909304048093030490930604A1
:1055800080930504909308048093070490930A0481
:105590008093090490930C0480930B0481E0809322
:1055A000110448E050E067E170E083E395E00E9479
:1055B0001B3310921104809133058C7F11F40E94EB
:1055C000BF1682E080936A0480E880936705B7D4B1
:1055D0006BE070E08BE092E00E94DA168823E9F13C
:1055E00080916A0465E070E081FD28C186E092E068
:1055F0000E94DA16882389F16DE070E084EF91E073
:105600000E94DA16882349F10E94F608605A754113
:105610008F4F9F4F60936C0470936D0480936E0462
:1056200090936F04EAE6F5E080E094E0DF019C01EE
:105630001D9221503040E1F7F0937109E093700919
:105640008FEF9FEF909369058093680581E08093C9
:1056500073048093700410926B048091FA0481119A
:1056600001C0BED53FEF83ED90E3315080409040C4
:10567000E1F700C0000080911E058350823068F47D
:105680008091C10381608093C1036091C0037091D8
:10569000C10384E090E00E94613389E791E0909338
:1056A00000058093FF0480912505853069F410E49E
:1056B00000E182E1F82E80912505853009F4C1C012
:1056C0000E94E1100E946D0913DB8BEC93E098A718
:1056D0008FA3A2ECB3E0BAA7A9A7FC0191918D9189
:1056E00023E0E33DF20709F4E3C09817B9F32090F3
:1056F000FA04B7E4AB2EB2E0BB2EE12CA9A5BAA503
:105700009D90BAA7A9A7EFA1F8A56190F8A7EFA36C
:10571000691409F47FC069242501812C77247394CE
:10572000872D862109F46AC0F72CF9202220A1F0E8
:1057300089A2EAA20E94DB1A9CA38BA3F1E0FDA33D
:1057400091E0F11001C090E09EA349A15AA16BA184
:105750007CA18DA10E94501BFF2041F0D2018C91B1
:10576000F12C8F3F19F0382EFF24F3940F2D10E009
:105770008091E403800F912F911D09974CF1E8E08F
:10578000CE2ED12CC01AD10AB8016B517C4FA60184
:1057900085EE93E040D7B80163517C4FA6018DEEB2
:1057A00093E039D7A601440F551FB801660F771F44
:1057B00063507C4F8DEF93E02ED7B8016B507C4F38
:1057C000A60185EF93E027D788E08F198093E40343
:1057D0008091E40390E0A32DB0E09D01220F331FE0
:1057E00029583D4FAA0FBB1FBD0168587D4F41E0AE
:1057F000480F9F1508F494C08093E4038394770CBA
:10580000BFEF4B1A5B0AE6E08E128ACFEFA1F8A534
:1058100031979082E394F6E0AF0EB11C28E0E212DB
:105820006DCF0E94600D6093D3037093D403809377
:10583000D5039093D603DD24D3943EC081E092E05B
:10584000D7CE80912505843039F10E94A8140E949A
:10585000E71610920B05A8E1B0E00FB6F894A895F2
:10586000A09360000FBE1093600083B7817F8460B7
:1058700083BF83B7816083BF7894889583B78E7F19
:1058800083BF0FB6F894A8958091600088618093DB
:105890006000109260000FBE2BDAE2ECF3E0819121
:1058A0008111D9C22AEC33E02E173F07C1F703CF8D
:1058B00098131DCF6DDCD12C0E94A814E090FA043F
:1058C000EE2019F00E945E24E82E8091DD038823EB
:1058D00051F01092DD0380917604809377048091DB
:1058E000740480937504F12C8091DC03F81668F140
:1058F0008091FA04882319F00E945E24E82AEE20A1
:1059000009F45FC00E94600D6093DE037093DF03B3
:105910008093E0039093E10334D80E94011755C0AF
:1059200090E0FC01EC51FC4FD9015C915183DB010B
:105930005C915187318A880F991FFC01EC51FC4F13
:10594000128E118E91E0842F52CF61E08F2D0E9434
:10595000AE09182F60E08F2D0E94AE09E12FEE0FE7
:105960008E2B0F2D10E0D801A652BC4FEC919E2F2C
:105970009370891721F1EE0FEE0FE82BEC938091D5
:10598000D9038F0DEF70F0E0E05FFD4F09521C4F1F
:10599000C080D8019C91C90ECC92B1E060E0BC15EA
:1059A00024F0EFEFCE161CF461E00E94ED098C2D7F
:1059B000CC0C990B62E070E0BAD5D8018C93F394CB
:1059C00093CF0E94C124D110A8CF0E946D0990915D
:1059D000E203891721F08093E2030E94F608809188
:1059E0000605823049F580911B05882329F1009135
:1059F0001C0510911D050E94DB1A801B910B8A3F2C
:105A00009105D0F010921B0510921D0510921C05F7
:105A100090911E058091E303981304C08091850145
:105A2000882351F01092850180911E058093E30335
:105A300080911E0580911E0580912505843009F016
:105A400032CE83E08093E9008091E80082FF2BCE84
:105A50008091E80090E085FF05C00E94A907882397
:105A600091F091E08091E8008B778093E800992392
:105A700009F419CE8981EFEFE80FE53158F5F0E030
:105A8000E853FC4C83C500E210E0FE0131967F0133
:105A90008091E80085FD0AC08091E8008B778093B3
:105AA000E8000E94A907882399F3DBCF8091F100D9
:105AB000D7018D937D010150110951F7D2CF1A8280
:105AC0008CE08B831AC08A81823009F4DFC128F40C
:105AD000813061F08FEF898310C0833001F1843011
